{
  "_format": "hh-sol-artifact-1",
  "contractName": "EternalHouseFactory",
  "sourceName": "contracts/main.sol",
  "abi": [
    {
      "anonymous": false,
      "inputs": [
        {
          "indexed": true,
          "internalType": "address",
          "name": "previousOwner",
          "type": "address"
        }
      ],
      "name": "OwnershipRenounced",
      "type": "event"
    },
    {
      "anonymous": false,
      "inputs": [
        {
          "indexed": true,
          "internalType": "address",
          "name": "previousOwner",
          "type": "address"
        },
        {
          "indexed": true,
          "internalType": "address",
          "name": "newOwner",
          "type": "address"
        }
      ],
      "name": "OwnershipTransferred",
      "type": "event"
    },
    {
      "anonymous": false,
      "inputs": [
        {
          "indexed": false,
          "internalType": "bool",
          "name": "set",
          "type": "bool"
        }
      ],
      "name": "UpdatedFreezeStamp",
      "type": "event"
    },
    {
      "anonymous": false,
      "inputs": [
        {
          "indexed": false,
          "internalType": "bool",
          "name": "set",
          "type": "bool"
        }
      ],
      "name": "UpdatedHibernationPeriod",
      "type": "event"
    },
    {
      "anonymous": false,
      "inputs": [
        {
          "indexed": false,
          "internalType": "bool",
          "name": "set",
          "type": "bool"
        }
      ],
      "name": "UpdatedSalePeriod",
      "type": "event"
    },
    {
      "inputs": [],
      "name": "isOwner",
      "outputs": [
        {
          "internalType": "bool",
          "name": "",
          "type": "bool"
        }
      ],
      "stateMutability": "view",
      "type": "function"
    },
    {
      "inputs": [],
      "name": "owner",
      "outputs": [
        {
          "internalType": "address",
          "name": "",
          "type": "address"
        }
      ],
      "stateMutability": "view",
      "type": "function"
    },
    {
      "inputs": [],
      "name": "renounceOwnership",
      "outputs": [],
      "stateMutability": "nonpayable",
      "type": "function"
    },
    {
      "inputs": [
        {
          "internalType": "uint256",
          "name": "_hibernationTimePeriod",
          "type": "uint256"
        }
      ],
      "name": "setHibernationTimePeriod",
      "outputs": [],
      "stateMutability": "nonpayable",
      "type": "function"
    },
    {
      "inputs": [
        {
          "internalType": "uint256",
          "name": "_freezeTimeStamp",
          "type": "uint256"
        }
      ],
      "name": "setInitialFreezeTimeStamp",
      "outputs": [],
      "stateMutability": "nonpayable",
      "type": "function"
    },
    {
      "inputs": [
        {
          "internalType": "uint256",
          "name": "_saleTimePeriod",
          "type": "uint256"
        }
      ],
      "name": "setSaleTimePeriod",
      "outputs": [],
      "stateMutability": "nonpayable",
      "type": "function"
    },
    {
      "inputs": [
        {
          "internalType": "address",
          "name": "newOwner",
          "type": "address"
        }
      ],
      "name": "transferOwnership",
      "outputs": [],
      "stateMutability": "nonpayable",
      "type": "function"
    },
    {
      "inputs": [],
      "name": "withdraw",
      "outputs": [
        {
          "internalType": "bool",
          "name": "",
          "type": "bool"
        }
      ],
      "stateMutability": "nonpayable",
      "type": "function"
    }
  ],
  "bytecode": "0x608060405234801561001057600080fd5b50336000806101000a81548173ffffffffffffffffffffffffffffffffffffffff021916908373ffffffffffffffffffffffffffffffffffffffff160217905550610753806100606000396000f3fe608060405234801561001057600080fd5b50600436106100885760003560e01c80638da5cb5b1161005b5780638da5cb5b146100ed5780638f32d59b1461010b578063f2fde38b14610129578063f6fc7e051461014557610088565b8063070c46c51461008d5780633ccfd60b146100a9578063715018a6146100c75780638c73bd6b146100d1575b600080fd5b6100a760048036038101906100a291906105a1565b610161565b005b6100b16101ca565b6040516100be9190610603565b60405180910390f35b6100cf610231565b005b6100eb60048036038101906100e691906105a1565b6102e8565b005b6100f561033b565b60405161010291906105e8565b60405180910390f35b610113610364565b6040516101209190610603565b60405180910390f35b610143600480360381019061013e9190610578565b6103bb565b005b61015f600480360381019061015a91906105a1565b6103d8565b005b610169610364565b61017257600080fd5b6101896301e133808261044190919063ffffffff16565b6003819055507f48d5b81f805ab9c28ee208af32dc0b2370401edd015e57bf3d4868d4aac92a4a60016040516101bf9190610603565b60405180910390a150565b60006101d4610364565b6101dd57600080fd5b60003390508073ffffffffffffffffffffffffffffffffffffffff166108fc479081150290604051600060405180830381858888f19350505050158015610228573d6000803e3d6000fd5b50600191505090565b610239610364565b61024257600080fd5b60008054906101000a900473ffffffffffffffffffffffffffffffffffffffff1673ffffffffffffffffffffffffffffffffffffffff167ff8df31144d9c2f0f6b59d69b8b98abd5459d07f2742c4df920b25aae33c6482060405160405180910390a260008060006101000a81548173ffffffffffffffffffffffffffffffffffffffff021916908373ffffffffffffffffffffffffffffffffffffffff160217905550565b6102f0610364565b6102f957600080fd5b806001819055507f8b3f67438accf50058941fade95f949c7e8a0fe403e05c21f5ffc8d1a8ce5e7760016040516103309190610603565b60405180910390a150565b60008060009054906101000a900473ffffffffffffffffffffffffffffffffffffffff16905090565b60008060009054906101000a900473ffffffffffffffffffffffffffffffffffffffff1673ffffffffffffffffffffffffffffffffffffffff163373ffffffffffffffffffffffffffffffffffffffff1614905090565b6103c3610364565b6103cc57600080fd5b6103d581610457565b50565b6103e0610364565b6103e957600080fd5b6104006301e133808261044190919063ffffffff16565b6002819055507f074c3a3a3955368962500b6a79b06996a24d06af0f7270e5dae387a95a65ea5560016040516104369190610603565b60405180910390a150565b6000818361044f919061061e565b905092915050565b600073ffffffffffffffffffffffffffffffffffffffff168173ffffffffffffffffffffffffffffffffffffffff16141561049157600080fd5b8073ffffffffffffffffffffffffffffffffffffffff1660008054906101000a900473ffffffffffffffffffffffffffffffffffffffff1673ffffffffffffffffffffffffffffffffffffffff167f8be0079c531659141344cd1fd0a4f28419497f9722a3daafe3b4186f6b6457e060405160405180910390a3806000806101000a81548173ffffffffffffffffffffffffffffffffffffffff021916908373ffffffffffffffffffffffffffffffffffffffff16021790555050565b60008135905061055d816106ef565b92915050565b60008135905061057281610706565b92915050565b60006020828403121561058a57600080fd5b60006105988482850161054e565b91505092915050565b6000602082840312156105b357600080fd5b60006105c184828501610563565b91505092915050565b6105d381610678565b82525050565b6105e28161068a565b82525050565b60006020820190506105fd60008301846105ca565b92915050565b600060208201905061061860008301846105d9565b92915050565b6000610629826106b6565b9150610634836106b6565b9250817fffffffffffffffffffffffffffffffffffffffffffffffffffffffffffffffff048311821515161561066d5761066c6106c0565b5b828202905092915050565b600061068382610696565b9050919050565b60008115159050919050565b600073ffffffffffffffffffffffffffffffffffffffff82169050919050565b6000819050919050565b7f4e487b7100000000000000000000000000000000000000000000000000000000600052601160045260246000fd5b6106f881610678565b811461070357600080fd5b50565b61070f816106b6565b811461071a57600080fd5b5056fea26469706673582212206bfc896067be2d2da549d8e6e2ec9656f63d33b0f4035cba5001a7bd757e576564736f6c63430008000033",
  "linkReferences": {},
  "deployedLinkReferences": {}
}