{
  "_format": "hh-sol-artifact-1",
  "contractName": "TheInfinityCollections",
  "sourceName": "contracts/erc721.sol",
  "abi": [
    {
      "anonymous": false,
      "inputs": [
        {
          "indexed": true,
          "internalType": "address",
          "name": "owner",
          "type": "address"
        },
        {
          "indexed": true,
          "internalType": "address",
          "name": "approved",
          "type": "address"
        },
        {
          "indexed": true,
          "internalType": "uint256",
          "name": "tokenId",
          "type": "uint256"
        }
      ],
      "name": "Approval",
      "type": "event"
    },
    {
      "anonymous": false,
      "inputs": [
        {
          "indexed": true,
          "internalType": "address",
          "name": "owner",
          "type": "address"
        },
        {
          "indexed": true,
          "internalType": "address",
          "name": "operator",
          "type": "address"
        },
        {
          "indexed": false,
          "internalType": "bool",
          "name": "approved",
          "type": "bool"
        }
      ],
      "name": "ApprovalForAll",
      "type": "event"
    },
    {
      "anonymous": false,
      "inputs": [
        {
          "indexed": false,
          "internalType": "uint256",
          "name": "id",
          "type": "uint256"
        },
        {
          "indexed": false,
          "internalType": "string",
          "name": "name",
          "type": "string"
        },
        {
          "indexed": false,
          "internalType": "string",
          "name": "description",
          "type": "string"
        },
        {
          "indexed": false,
          "internalType": "string",
          "name": "imgUrl",
          "type": "string"
        },
        {
          "indexed": false,
          "internalType": "uint256",
          "name": "size",
          "type": "uint256"
        },
        {
          "indexed": false,
          "internalType": "string",
          "name": "tokenURI",
          "type": "string"
        }
      ],
      "name": "NewSlot",
      "type": "event"
    },
    {
      "anonymous": false,
      "inputs": [
        {
          "indexed": true,
          "internalType": "address",
          "name": "previousOwner",
          "type": "address"
        }
      ],
      "name": "OwnershipRenounced",
      "type": "event"
    },
    {
      "anonymous": false,
      "inputs": [
        {
          "indexed": true,
          "internalType": "address",
          "name": "previousOwner",
          "type": "address"
        },
        {
          "indexed": true,
          "internalType": "address",
          "name": "newOwner",
          "type": "address"
        }
      ],
      "name": "OwnershipTransferred",
      "type": "event"
    },
    {
      "anonymous": false,
      "inputs": [
        {
          "indexed": true,
          "internalType": "address",
          "name": "from",
          "type": "address"
        },
        {
          "indexed": true,
          "internalType": "address",
          "name": "to",
          "type": "address"
        },
        {
          "indexed": true,
          "internalType": "uint256",
          "name": "tokenId",
          "type": "uint256"
        }
      ],
      "name": "Transfer",
      "type": "event"
    },
    {
      "anonymous": false,
      "inputs": [
        {
          "indexed": false,
          "internalType": "string",
          "name": "baseURI",
          "type": "string"
        }
      ],
      "name": "UpdatedBaseURI",
      "type": "event"
    },
    {
      "anonymous": false,
      "inputs": [
        {
          "indexed": false,
          "internalType": "bool",
          "name": "set",
          "type": "bool"
        }
      ],
      "name": "UpdatedFreezeStamp",
      "type": "event"
    },
    {
      "anonymous": false,
      "inputs": [
        {
          "indexed": false,
          "internalType": "bool",
          "name": "set",
          "type": "bool"
        }
      ],
      "name": "UpdatedHibernationPeriod",
      "type": "event"
    },
    {
      "anonymous": false,
      "inputs": [
        {
          "indexed": false,
          "internalType": "bool",
          "name": "set",
          "type": "bool"
        }
      ],
      "name": "UpdatedSalePeriod",
      "type": "event"
    },
    {
      "anonymous": false,
      "inputs": [
        {
          "indexed": false,
          "internalType": "uint256",
          "name": "id",
          "type": "uint256"
        },
        {
          "indexed": false,
          "internalType": "string",
          "name": "name",
          "type": "string"
        },
        {
          "indexed": false,
          "internalType": "string",
          "name": "description",
          "type": "string"
        },
        {
          "indexed": false,
          "internalType": "string",
          "name": "imgUrl",
          "type": "string"
        },
        {
          "indexed": false,
          "internalType": "string",
          "name": "tokenURI",
          "type": "string"
        }
      ],
      "name": "UpdatedSlot",
      "type": "event"
    },
    {
      "inputs": [
        {
          "internalType": "address",
          "name": "to",
          "type": "address"
        },
        {
          "internalType": "uint256",
          "name": "tokenId",
          "type": "uint256"
        }
      ],
      "name": "approve",
      "outputs": [],
      "stateMutability": "nonpayable",
      "type": "function"
    },
    {
      "inputs": [
        {
          "internalType": "address",
          "name": "owner",
          "type": "address"
        }
      ],
      "name": "balanceOf",
      "outputs": [
        {
          "internalType": "uint256",
          "name": "",
          "type": "uint256"
        }
      ],
      "stateMutability": "view",
      "type": "function"
    },
    {
      "inputs": [
        {
          "internalType": "uint256",
          "name": "id",
          "type": "uint256"
        },
        {
          "internalType": "string",
          "name": "_name",
          "type": "string"
        },
        {
          "internalType": "string",
          "name": "_description",
          "type": "string"
        },
        {
          "internalType": "string",
          "name": "_imgUrl",
          "type": "string"
        },
        {
          "internalType": "string",
          "name": "_uri",
          "type": "string"
        }
      ],
      "name": "changeSlotInfo",
      "outputs": [],
      "stateMutability": "nonpayable",
      "type": "function"
    },
    {
      "inputs": [
        {
          "internalType": "string[]",
          "name": "_namesArr",
          "type": "string[]"
        },
        {
          "internalType": "string[]",
          "name": "_descriptionArr",
          "type": "string[]"
        },
        {
          "internalType": "string[]",
          "name": "_imgUrlArr",
          "type": "string[]"
        },
        {
          "internalType": "uint256[]",
          "name": "_sizeArr",
          "type": "uint256[]"
        },
        {
          "internalType": "string[]",
          "name": "_URIs",
          "type": "string[]"
        }
      ],
      "name": "createSlot",
      "outputs": [],
      "stateMutability": "payable",
      "type": "function"
    },
    {
      "inputs": [
        {
          "internalType": "uint256",
          "name": "tokenId",
          "type": "uint256"
        }
      ],
      "name": "getApproved",
      "outputs": [
        {
          "internalType": "address",
          "name": "",
          "type": "address"
        }
      ],
      "stateMutability": "view",
      "type": "function"
    },
    {
      "inputs": [
        {
          "internalType": "uint256",
          "name": "_id",
          "type": "uint256"
        }
      ],
      "name": "getSlot",
      "outputs": [
        {
          "internalType": "string",
          "name": "",
          "type": "string"
        },
        {
          "internalType": "string",
          "name": "",
          "type": "string"
        },
        {
          "internalType": "string",
          "name": "",
          "type": "string"
        },
        {
          "internalType": "address",
          "name": "",
          "type": "address"
        },
        {
          "internalType": "uint256",
          "name": "",
          "type": "uint256"
        },
        {
          "internalType": "uint256",
          "name": "",
          "type": "uint256"
        },
        {
          "internalType": "string",
          "name": "",
          "type": "string"
        }
      ],
      "stateMutability": "view",
      "type": "function"
    },
    {
      "inputs": [],
      "name": "getSlots",
      "outputs": [
        {
          "internalType": "string[]",
          "name": "",
          "type": "string[]"
        },
        {
          "internalType": "string[]",
          "name": "",
          "type": "string[]"
        },
        {
          "internalType": "string[]",
          "name": "",
          "type": "string[]"
        },
        {
          "internalType": "address[]",
          "name": "",
          "type": "address[]"
        },
        {
          "internalType": "uint256[]",
          "name": "",
          "type": "uint256[]"
        },
        {
          "internalType": "uint256[]",
          "name": "",
          "type": "uint256[]"
        },
        {
          "internalType": "string[]",
          "name": "",
          "type": "string[]"
        }
      ],
      "stateMutability": "view",
      "type": "function"
    },
    {
      "inputs": [
        {
          "internalType": "address",
          "name": "owner",
          "type": "address"
        },
        {
          "internalType": "address",
          "name": "operator",
          "type": "address"
        }
      ],
      "name": "isApprovedForAll",
      "outputs": [
        {
          "internalType": "bool",
          "name": "",
          "type": "bool"
        }
      ],
      "stateMutability": "view",
      "type": "function"
    },
    {
      "inputs": [],
      "name": "isOwner",
      "outputs": [
        {
          "internalType": "bool",
          "name": "",
          "type": "bool"
        }
      ],
      "stateMutability": "view",
      "type": "function"
    },
    {
      "inputs": [],
      "name": "owner",
      "outputs": [
        {
          "internalType": "address",
          "name": "",
          "type": "address"
        }
      ],
      "stateMutability": "view",
      "type": "function"
    },
    {
      "inputs": [
        {
          "internalType": "uint256",
          "name": "tokenId",
          "type": "uint256"
        }
      ],
      "name": "ownerOf",
      "outputs": [
        {
          "internalType": "address",
          "name": "",
          "type": "address"
        }
      ],
      "stateMutability": "view",
      "type": "function"
    },
    {
      "inputs": [],
      "name": "renounceOwnership",
      "outputs": [],
      "stateMutability": "nonpayable",
      "type": "function"
    },
    {
      "inputs": [
        {
          "internalType": "address",
          "name": "from",
          "type": "address"
        },
        {
          "internalType": "address",
          "name": "to",
          "type": "address"
        },
        {
          "internalType": "uint256",
          "name": "tokenId",
          "type": "uint256"
        }
      ],
      "name": "safeTransferFrom",
      "outputs": [],
      "stateMutability": "nonpayable",
      "type": "function"
    },
    {
      "inputs": [
        {
          "internalType": "address",
          "name": "from",
          "type": "address"
        },
        {
          "internalType": "address",
          "name": "to",
          "type": "address"
        },
        {
          "internalType": "uint256",
          "name": "tokenId",
          "type": "uint256"
        },
        {
          "internalType": "bytes",
          "name": "_data",
          "type": "bytes"
        }
      ],
      "name": "safeTransferFrom",
      "outputs": [],
      "stateMutability": "nonpayable",
      "type": "function"
    },
    {
      "inputs": [
        {
          "internalType": "address",
          "name": "operator",
          "type": "address"
        },
        {
          "internalType": "bool",
          "name": "approved",
          "type": "bool"
        }
      ],
      "name": "setApprovalForAll",
      "outputs": [],
      "stateMutability": "nonpayable",
      "type": "function"
    },
    {
      "inputs": [
        {
          "internalType": "uint256",
          "name": "_hibernationTimePeriod",
          "type": "uint256"
        }
      ],
      "name": "setHibernationTimePeriod",
      "outputs": [],
      "stateMutability": "nonpayable",
      "type": "function"
    },
    {
      "inputs": [
        {
          "internalType": "uint256",
          "name": "_freezeTimeStamp",
          "type": "uint256"
        }
      ],
      "name": "setInitialFreezeTimeStamp",
      "outputs": [],
      "stateMutability": "nonpayable",
      "type": "function"
    },
    {
      "inputs": [
        {
          "internalType": "uint256",
          "name": "_saleTimePeriod",
          "type": "uint256"
        }
      ],
      "name": "setSaleTimePeriod",
      "outputs": [],
      "stateMutability": "nonpayable",
      "type": "function"
    },
    {
      "inputs": [
        {
          "internalType": "uint256",
          "name": "tokenId",
          "type": "uint256"
        },
        {
          "internalType": "string",
          "name": "_tokenURI",
          "type": "string"
        }
      ],
      "name": "setTokenURI",
      "outputs": [
        {
          "internalType": "string",
          "name": "",
          "type": "string"
        }
      ],
      "stateMutability": "nonpayable",
      "type": "function"
    },
    {
      "inputs": [
        {
          "internalType": "bytes4",
          "name": "interfaceId",
          "type": "bytes4"
        }
      ],
      "name": "supportsInterface",
      "outputs": [
        {
          "internalType": "bool",
          "name": "",
          "type": "bool"
        }
      ],
      "stateMutability": "view",
      "type": "function"
    },
    {
      "inputs": [
        {
          "internalType": "uint256",
          "name": "tokenId",
          "type": "uint256"
        }
      ],
      "name": "tokenURI",
      "outputs": [
        {
          "internalType": "string",
          "name": "",
          "type": "string"
        }
      ],
      "stateMutability": "view",
      "type": "function"
    },
    {
      "inputs": [
        {
          "internalType": "uint256",
          "name": "",
          "type": "uint256"
        }
      ],
      "name": "tokenURIs",
      "outputs": [
        {
          "internalType": "string",
          "name": "",
          "type": "string"
        }
      ],
      "stateMutability": "view",
      "type": "function"
    },
    {
      "inputs": [
        {
          "internalType": "address",
          "name": "from",
          "type": "address"
        },
        {
          "internalType": "address",
          "name": "to",
          "type": "address"
        },
        {
          "internalType": "uint256",
          "name": "tokenId",
          "type": "uint256"
        }
      ],
      "name": "transferFrom",
      "outputs": [],
      "stateMutability": "nonpayable",
      "type": "function"
    },
    {
      "inputs": [
        {
          "internalType": "address",
          "name": "newOwner",
          "type": "address"
        }
      ],
      "name": "transferOwnership",
      "outputs": [],
      "stateMutability": "nonpayable",
      "type": "function"
    },
    {
      "inputs": [],
      "name": "withdraw",
      "outputs": [
        {
          "internalType": "bool",
          "name": "",
          "type": "bool"
        }
      ],
      "stateMutability": "nonpayable",
      "type": "function"
    }
  ],
  "bytecode": "0x608060405260405180610100016040528060a061ffff16815260200160c861ffff16815260200161012c61ffff16815260200160c861ffff168152602001606461ffff168152602001606461ffff168152602001601c61ffff168152602001600261ffff16815250611dd79060086200007a929190620001fb565b50604051806101000160405280600060ff168152602001600060ff168152602001600060ff168152602001600060ff168152602001600060ff168152602001600060ff168152602001600060ff168152602001600060ff16815250611dd8906008620000e892919062000253565b50604051806101000160405280655af3107a400065ffffffffffff168152602001655af3107a400065ffffffffffff168152602001655af3107a400065ffffffffffff168152602001655af3107a400065ffffffffffff168152602001655af3107a400065ffffffffffff168152602001655af3107a400065ffffffffffff168152602001655af3107a400065ffffffffffff168152602001655af3107a400065ffffffffffff16815250611dd9906008620001a6929190620002aa565b50348015620001b457600080fd5b50336000806101000a81548173ffffffffffffffffffffffffffffffffffffffff021916908373ffffffffffffffffffffffffffffffffffffffff16021790555062000325565b82805482825590600052602060002090810192821562000240579160200282015b828111156200023f578251829061ffff169055916020019190600101906200021c565b5b5090506200024f919062000306565b5090565b82805482825590600052602060002090810192821562000297579160200282015b8281111562000296578251829060ff1690559160200191906001019062000274565b5b509050620002a6919062000306565b5090565b828054828255906000526020600020908101928215620002f3579160200282015b82811115620002f2578251829065ffffffffffff16905591602001919060010190620002cb565b5b50905062000302919062000306565b5090565b5b808211156200032157600081600090555060010162000307565b5090565b6158f280620003356000396000f3fe6080604052600436106101665760003560e01c8063715018a6116100d1578063a22cb4651161008a578063e985e9c511610064578063e985e9c514610555578063f2fde38b14610592578063f6fc7e05146105bb578063fab2c469146105e457610166565b8063a22cb465146104c6578063b88d4fde146104ef578063c87b56dd1461051857610166565b8063715018a6146103d15780637eba7ba6146103e857806385b90cb81461042b5780638c73bd6b146104475780638da5cb5b146104705780638f32d59b1461049b57610166565b806323b872dd1161012357806323b872dd1461029d5780633ccfd60b146102c657806342842e0e146102f15780636352211e1461031a5780636c8b703f1461035757806370a082311461039457610166565b806301ffc9a71461016b578063070c46c5146101a8578063081812fc146101d1578063095ea7b31461020e578063162094c41461023757806319f19ed714610274575b600080fd5b34801561017757600080fd5b50610192600480360381019061018d9190614098565b610615565b60405161019f9190614eaa565b60405180910390f35b3480156101b457600080fd5b506101cf60048036038101906101ca91906140ea565b61068f565b005b3480156101dd57600080fd5b506101f860048036038101906101f391906140ea565b6106f8565b6040516102059190614da3565b60405180910390f35b34801561021a57600080fd5b5061023560048036038101906102309190613f6d565b61077d565b005b34801561024357600080fd5b5061025e60048036038101906102599190614113565b610895565b60405161026b9190614ec5565b60405180910390f35b34801561028057600080fd5b5061029b60048036038101906102969190614167565b610969565b005b3480156102a957600080fd5b506102c460048036038101906102bf9190613e67565b61097d565b005b3480156102d257600080fd5b506102db6109dd565b6040516102e89190614eaa565b60405180910390f35b3480156102fd57600080fd5b5061031860048036038101906103139190613e67565b610a44565b005b34801561032657600080fd5b50610341600480360381019061033c91906140ea565b610a64565b60405161034e9190614da3565b60405180910390f35b34801561036357600080fd5b5061037e600480360381019061037991906140ea565b610b16565b60405161038b9190614ec5565b60405180910390f35b3480156103a057600080fd5b506103bb60048036038101906103b69190613e02565b610bb7565b6040516103c891906152b4565b60405180910390f35b3480156103dd57600080fd5b506103e6610c6f565b005b3480156103f457600080fd5b5061040f600480360381019061040a91906140ea565b610d26565b6040516104229796959493929190614ee7565b60405180910390f35b61044560048036038101906104409190613fa9565b611016565b005b34801561045357600080fd5b5061046e600480360381019061046991906140ea565b6114b0565b005b34801561047c57600080fd5b50610485611503565b6040516104929190614da3565b60405180910390f35b3480156104a757600080fd5b506104b061152c565b6040516104bd9190614eaa565b60405180910390f35b3480156104d257600080fd5b506104ed60048036038101906104e89190613f31565b611583565b005b3480156104fb57600080fd5b5061051660048036038101906105119190613eb6565b611599565b005b34801561052457600080fd5b5061053f600480360381019061053a91906140ea565b6115fb565b60405161054c9190614ec5565b60405180910390f35b34801561056157600080fd5b5061057c60048036038101906105779190613e2b565b6116e9565b6040516105899190614eaa565b60405180910390f35b34801561059e57600080fd5b506105b960048036038101906105b49190613e02565b61177d565b005b3480156105c757600080fd5b506105e260048036038101906105dd91906140ea565b61179a565b005b3480156105f057600080fd5b506105f9611803565b60405161060c9796959493929190614e0a565b60405180910390f35b60007f80ac58cd000000000000000000000000000000000000000000000000000000007bffffffffffffffffffffffffffffffffffffffffffffffffffffffff1916827bffffffffffffffffffffffffffffffffffffffffffffffffffffffff19161480610688575061068782612230565b5b9050919050565b61069761152c565b6106a057600080fd5b6106b76301e133808261229a90919063ffffffff16565b6003819055507f48d5b81f805ab9c28ee208af32dc0b2370401edd015e57bf3d4868d4aac92a4a60016040516106ed9190614eaa565b60405180910390a150565b6000610703826122b0565b610742576040517f08c379a000000000000000000000000000000000000000000000000000000000815260040161073990615194565b60405180910390fd5b6006600083815260200190815260200160002060009054906101000a900473ffffffffffffffffffffffffffffffffffffffff169050919050565b600061078882610a64565b90508073ffffffffffffffffffffffffffffffffffffffff168373ffffffffffffffffffffffffffffffffffffffff1614156107f9576040517f08c379a00000000000000000000000000000000000000000000000000000000081526004016107f090615214565b60405180910390fd5b8073ffffffffffffffffffffffffffffffffffffffff1661081861231c565b73ffffffffffffffffffffffffffffffffffffffff16148061084757506108468161084161231c565b6116e9565b5b610886576040517f08c379a000000000000000000000000000000000000000000000000000000000815260040161087d906150d4565b60405180910390fd5b6108908383612324565b505050565b606061089f61152c565b6108a857600080fd5b6108b1836122b0565b6108f0576040517f08c379a00000000000000000000000000000000000000000000000000000000081526004016108e7906151d4565b60405180910390fd5b81611dda60008581526020019081526020016000209080519060200190610918929190613a7c565b507fe12d4d4a70d9b5c313db41dbfde977d2932dd59c55fca4a4af5181b2397c1725611dda600085815260200190815260200160002060405161095b9190614f72565b60405180910390a192915050565b61097685858585856123dd565b5050505050565b61098e61098861231c565b8261279e565b6109cd576040517f08c379a00000000000000000000000000000000000000000000000000000000081526004016109c490615254565b60405180910390fd5b6109d883838361287c565b505050565b60006109e761152c565b6109f057600080fd5b60003390508073ffffffffffffffffffffffffffffffffffffffff166108fc479081150290604051600060405180830381858888f19350505050158015610a3b573d6000803e3d6000fd5b50600191505090565b610a5f83838360405180602001604052806000815250611599565b505050565b6000806004600084815260200190815260200160002060009054906101000a900473ffffffffffffffffffffffffffffffffffffffff169050600073ffffffffffffffffffffffffffffffffffffffff168173ffffffffffffffffffffffffffffffffffffffff161415610b0d576040517f08c379a0000000000000000000000000000000000000000000000000000000008152600401610b0490615114565b60405180910390fd5b80915050919050565b611dda6020528060005260406000206000915090508054610b3690615747565b80601f0160208091040260200160405190810160405280929190818152602001828054610b6290615747565b8015610baf5780601f10610b8457610100808354040283529160200191610baf565b820191906000526020600020905b815481529060010190602001808311610b9257829003601f168201915b505050505081565b60008073ffffffffffffffffffffffffffffffffffffffff168273ffffffffffffffffffffffffffffffffffffffff161415610c28576040517f08c379a0000000000000000000000000000000000000000000000000000000008152600401610c1f906150f4565b60405180910390fd5b600560008373ffffffffffffffffffffffffffffffffffffffff1673ffffffffffffffffffffffffffffffffffffffff168152602001908152602001600020549050919050565b610c7761152c565b610c8057600080fd5b60008054906101000a900473ffffffffffffffffffffffffffffffffffffffff1673ffffffffffffffffffffffffffffffffffffffff167ff8df31144d9c2f0f6b59d69b8b98abd5459d07f2742c4df920b25aae33c6482060405160405180910390a260008060006101000a81548173ffffffffffffffffffffffffffffffffffffffff021916908373ffffffffffffffffffffffffffffffffffffffff160217905550565b606080606060008060006060610d3b886122b0565b610d7a576040517f08c379a0000000000000000000000000000000000000000000000000000000008152600401610d71906151d4565b60405180910390fd5b60006008896104428110610db7577f4e487b7100000000000000000000000000000000000000000000000000000000600052603260045260246000fd5b600702016040518060e0016040529081600082018054610dd690615747565b80601f0160208091040260200160405190810160405280929190818152602001828054610e0290615747565b8015610e4f5780601f10610e2457610100808354040283529160200191610e4f565b820191906000526020600020905b815481529060010190602001808311610e3257829003601f168201915b50505050508152602001600182018054610e6890615747565b80601f0160208091040260200160405190810160405280929190818152602001828054610e9490615747565b8015610ee15780601f10610eb657610100808354040283529160200191610ee1565b820191906000526020600020905b815481529060010190602001808311610ec457829003601f168201915b50505050508152602001600282018054610efa90615747565b80601f0160208091040260200160405190810160405280929190818152602001828054610f2690615747565b8015610f735780601f10610f4857610100808354040283529160200191610f73565b820191906000526020600020905b815481529060010190602001808311610f5657829003601f168201915b505050505081526020016003820154815260200160048201548152602001600582015481526020016006820154815250509050806000015181602001518260400151600460008d815260200190815260200160002060009054906101000a900473ffffffffffffffffffffffffffffffffffffffff1684606001518560c00151610ffc8f6115fb565b975097509750975097509750975050919395979092949650565b6001151561102383612b73565b151514611065576040517f08c379a000000000000000000000000000000000000000000000000000000000815260040161105c90615174565b60405180910390fd5b82518451146110a9576040517f08c379a00000000000000000000000000000000000000000000000000000000081526004016110a090614f94565b60405180910390fd5b81518351146110ed576040517f08c379a00000000000000000000000000000000000000000000000000000000081526004016110e490614f94565b60405180910390fd5b8051825114611131576040517f08c379a000000000000000000000000000000000000000000000000000000000815260040161112890614f94565b60405180910390fd5b8451815114611175576040517f08c379a000000000000000000000000000000000000000000000000000000000815260040161116c90614f94565b60405180910390fd5b60008451116111b9576040517f08c379a00000000000000000000000000000000000000000000000000000000081526004016111b090615134565b60405180910390fd5b6014845111156111fe576040517f08c379a00000000000000000000000000000000000000000000000000000000081526004016111f590615094565b60405180910390fd5b60005b84518110156114a8576000868281518110611245577f4e487b7100000000000000000000000000000000000000000000000000000000600052603260045260246000fd5b60200260200101519050600086838151811061128a577f4e487b7100000000000000000000000000000000000000000000000000000000600052603260045260246000fd5b6020026020010151905060008684815181106112cf577f4e487b7100000000000000000000000000000000000000000000000000000000600052603260045260246000fd5b602002602001015190506000868581518110611314577f4e487b7100000000000000000000000000000000000000000000000000000000600052603260045260246000fd5b602002602001015190506000868681518110611359577f4e487b7100000000000000000000000000000000000000000000000000000000600052603260045260246000fd5b602002602001015190506000855114156113a8576040517f08c379a000000000000000000000000000000000000000000000000000000000815260040161139f90615274565b60405180910390fd5b6000835114156113ed576040517f08c379a00000000000000000000000000000000000000000000000000000000081526004016113e490615294565b60405180910390fd5b600081511415611432576040517f08c379a000000000000000000000000000000000000000000000000000000000815260040161142990615074565b60405180910390fd5b600084511461144d576114488585858585612c40565b611490565b61148f856040518060400160405280600181526020017f2000000000000000000000000000000000000000000000000000000000000000815250858585612c40565b5b505050505080806114a090615779565b915050611201565b505050505050565b6114b861152c565b6114c157600080fd5b806001819055507f8b3f67438accf50058941fade95f949c7e8a0fe403e05c21f5ffc8d1a8ce5e7760016040516114f89190614eaa565b60405180910390a150565b60008060009054906101000a900473ffffffffffffffffffffffffffffffffffffffff16905090565b60008060009054906101000a900473ffffffffffffffffffffffffffffffffffffffff1673ffffffffffffffffffffffffffffffffffffffff163373ffffffffffffffffffffffffffffffffffffffff1614905090565b61159561158e61231c565b8383612f2b565b5050565b6115aa6115a461231c565b8361279e565b6115e9576040517f08c379a00000000000000000000000000000000000000000000000000000000081526004016115e090615254565b60405180910390fd5b6115f584848484613098565b50505050565b6060611606826122b0565b611645576040517f08c379a000000000000000000000000000000000000000000000000000000000815260040161163c906151d4565b60405180910390fd5b611dda6000838152602001908152602001600020805461166490615747565b80601f016020809104026020016040519081016040528092919081815260200182805461169090615747565b80156116dd5780601f106116b2576101008083540402835291602001916116dd565b820191906000526020600020905b8154815290600101906020018083116116c057829003601f168201915b50505050509050919050565b6000600760008473ffffffffffffffffffffffffffffffffffffffff1673ffffffffffffffffffffffffffffffffffffffff16815260200190815260200160002060008373ffffffffffffffffffffffffffffffffffffffff1673ffffffffffffffffffffffffffffffffffffffff16815260200190815260200160002060009054906101000a900460ff16905092915050565b61178561152c565b61178e57600080fd5b611797816130f4565b50565b6117a261152c565b6117ab57600080fd5b6117c26301e133808261229a90919063ffffffff16565b6002819055507f074c3a3a3955368962500b6a79b06996a24d06af0f7270e5dae387a95a65ea5560016040516117f89190614eaa565b60405180910390a150565b60608060608060608060606000611dd68054905067ffffffffffffffff811115611856577f4e487b7100000000000000000000000000000000000000000000000000000000600052604160045260246000fd5b60405190808252806020026020018201604052801561188957816020015b60608152602001906001900390816118745790505b5090506000611dd68054905067ffffffffffffffff8111156118d4577f4e487b7100000000000000000000000000000000000000000000000000000000600052604160045260246000fd5b60405190808252806020026020018201604052801561190757816020015b60608152602001906001900390816118f25790505b5090506000611dd68054905067ffffffffffffffff811115611952577f4e487b7100000000000000000000000000000000000000000000000000000000600052604160045260246000fd5b60405190808252806020026020018201604052801561198557816020015b60608152602001906001900390816119705790505b5090506000611dd68054905067ffffffffffffffff8111156119d0577f4e487b7100000000000000000000000000000000000000000000000000000000600052604160045260246000fd5b6040519080825280602002602001820160405280156119fe5781602001602082028036833780820191505090505b5090506000611dd68054905067ffffffffffffffff811115611a49577f4e487b7100000000000000000000000000000000000000000000000000000000600052604160045260246000fd5b604051908082528060200260200182016040528015611a775781602001602082028036833780820191505090505b5090506000611dd68054905067ffffffffffffffff811115611ac2577f4e487b7100000000000000000000000000000000000000000000000000000000600052604160045260246000fd5b604051908082528060200260200182016040528015611af05781602001602082028036833780820191505090505b5090506000611dd68054905067ffffffffffffffff811115611b3b577f4e487b7100000000000000000000000000000000000000000000000000000000600052604160045260246000fd5b604051908082528060200260200182016040528015611b695781602001602082028036833780820191505090505b5090506000611dd68054905067ffffffffffffffff811115611bb4577f4e487b7100000000000000000000000000000000000000000000000000000000600052604160045260246000fd5b604051908082528060200260200182016040528015611be757816020015b6060815260200190600190039081611bd25790505b50905060005b611dd680549050811015612209576000611dd68281548110611c38577f4e487b7100000000000000000000000000000000000000000000000000000000600052603260045260246000fd5b9060005260206000209060070201600301549050611dd68281548110611c87577f4e487b7100000000000000000000000000000000000000000000000000000000600052603260045260246000fd5b90600052602060002090600702016000018054611ca390615747565b80601f0160208091040260200160405190810160405280929190818152602001828054611ccf90615747565b8015611d1c5780601f10611cf157610100808354040283529160200191611d1c565b820191906000526020600020905b815481529060010190602001808311611cff57829003601f168201915b50505050508a8381518110611d5a577f4e487b7100000000000000000000000000000000000000000000000000000000600052603260045260246000fd5b6020026020010181905250611dd68281548110611da0577f4e487b7100000000000000000000000000000000000000000000000000000000600052603260045260246000fd5b90600052602060002090600702016001018054611dbc90615747565b80601f0160208091040260200160405190810160405280929190818152602001828054611de890615747565b8015611e355780601f10611e0a57610100808354040283529160200191611e35565b820191906000526020600020905b815481529060010190602001808311611e1857829003601f168201915b5050505050898381518110611e73577f4e487b7100000000000000000000000000000000000000000000000000000000600052603260045260246000fd5b6020026020010181905250611dd68281548110611eb9577f4e487b7100000000000000000000000000000000000000000000000000000000600052603260045260246000fd5b90600052602060002090600702016002018054611ed590615747565b80601f0160208091040260200160405190810160405280929190818152602001828054611f0190615747565b8015611f4e5780601f10611f2357610100808354040283529160200191611f4e565b820191906000526020600020905b815481529060010190602001808311611f3157829003601f168201915b5050505050888381518110611f8c577f4e487b7100000000000000000000000000000000000000000000000000000000600052603260045260246000fd5b60200260200101819052506004600082815260200190815260200160002060009054906101000a900473ffffffffffffffffffffffffffffffffffffffff16878381518110612004577f4e487b7100000000000000000000000000000000000000000000000000000000600052603260045260246000fd5b602002602001019073ffffffffffffffffffffffffffffffffffffffff16908173ffffffffffffffffffffffffffffffffffffffff168152505080868381518110612078577f4e487b7100000000000000000000000000000000000000000000000000000000600052603260045260246000fd5b602002602001018181525050611dd682815481106120bf577f4e487b7100000000000000000000000000000000000000000000000000000000600052603260045260246000fd5b90600052602060002090600702016004015485838151811061210a577f4e487b7100000000000000000000000000000000000000000000000000000000600052603260045260246000fd5b602002602001018181525050611dd68281548110612151577f4e487b7100000000000000000000000000000000000000000000000000000000600052603260045260246000fd5b90600052602060002090600702016006015484838151811061219c577f4e487b7100000000000000000000000000000000000000000000000000000000600052603260045260246000fd5b6020026020010181815250506121b1816115fb565b8383815181106121ea577f4e487b7100000000000000000000000000000000000000000000000000000000600052603260045260246000fd5b602002602001018190525050808061220190615779565b915050611bed565b50878787878786869e509e509e509e509e509e509e50505050505050505090919293949596565b60007f01ffc9a7000000000000000000000000000000000000000000000000000000007bffffffffffffffffffffffffffffffffffffffffffffffffffffffff1916827bffffffffffffffffffffffffffffffffffffffffffffffffffffffff1916149050919050565b600081836122a89190615603565b905092915050565b60008073ffffffffffffffffffffffffffffffffffffffff166004600084815260200190815260200160002060009054906101000a900473ffffffffffffffffffffffffffffffffffffffff1673ffffffffffffffffffffffffffffffffffffffff1614159050919050565b600033905090565b816006600083815260200190815260200160002060006101000a81548173ffffffffffffffffffffffffffffffffffffffff021916908373ffffffffffffffffffffffffffffffffffffffff160217905550808273ffffffffffffffffffffffffffffffffffffffff1661239783610a64565b73ffffffffffffffffffffffffffffffffffffffff167f8c5be1e5ebec7d5bd14f71427d1e84f3dd0314c0f7b2291e5b200ac8c7c3b92560405160405180910390a45050565b6123e6856122b0565b612425576040517f08c379a000000000000000000000000000000000000000000000000000000000815260040161241c906151d4565b60405180910390fd5b600061243086610a64565b90508073ffffffffffffffffffffffffffffffffffffffff1661245161231c565b73ffffffffffffffffffffffffffffffffffffffff161480612480575061247f8161247a61231c565b6116e9565b5b6124bf576040517f08c379a00000000000000000000000000000000000000000000000000000000081526004016124b690615034565b60405180910390fd5b6000855114156124ce57600080fd5b6000835114156124dd57600080fd5b6000825114156124ec57600080fd5b600115156124f86131eb565b15151461253a576040517f08c379a0000000000000000000000000000000000000000000000000000000008152600401612531906150b4565b60405180910390fd5b60006008876104428110612577577f4e487b7100000000000000000000000000000000000000000000000000000000600052603260045260246000fd5b60070201905060028160050154106125c4576040517f08c379a00000000000000000000000000000000000000000000000000000000081526004016125bb90615234565b60405180910390fd5b6000855114156125fb57604051806020016040528060008152508160010190805190602001906125f5929190613a7c565b50612615565b84816001019080519060200190612613929190613a7c565b505b8381600201908051906020019061262d929190613a7c565b504281600601819055508581600001908051906020019061264f929190613a7c565b5061265a8784613261565b5080600501600081548092919061267090615779565b91905055508060088861044281106126b1577f4e487b7100000000000000000000000000000000000000000000000000000000600052603260045260246000fd5b6007020160008201816000019080546126c990615747565b6126d4929190613b02565b5060018201816001019080546126e990615747565b6126f4929190613b02565b50600282018160020190805461270990615747565b612714929190613b02565b506003820154816003015560048201548160040155600582015481600501556006820154816006015590505061274981613292565b7f1bd59174f77f1ab3319e0c9914280033af1661ae9605176e8e50010200de91b381600301548260000183600101846002018760405161278d95949392919061534c565b60405180910390a150505050505050565b60006127a9826122b0565b6127e8576040517f08c379a00000000000000000000000000000000000000000000000000000000081526004016127df90615054565b60405180910390fd5b60006127f383610a64565b90508073ffffffffffffffffffffffffffffffffffffffff168473ffffffffffffffffffffffffffffffffffffffff16148061286257508373ffffffffffffffffffffffffffffffffffffffff1661284a846106f8565b73ffffffffffffffffffffffffffffffffffffffff16145b80612873575061287281856116e9565b5b91505092915050565b8273ffffffffffffffffffffffffffffffffffffffff1661289c82610a64565b73ffffffffffffffffffffffffffffffffffffffff16146128f2576040517f08c379a00000000000000000000000000000000000000000000000000000000081526004016128e9906151b4565b60405180910390fd5b600073ffffffffffffffffffffffffffffffffffffffff168273ffffffffffffffffffffffffffffffffffffffff161415612962576040517f08c379a000000000000000000000000000000000000000000000000000000000815260040161295990614ff4565b60405180910390fd5b6001151561296e6131eb565b1515146129b0576040517f08c379a00000000000000000000000000000000000000000000000000000000081526004016129a7906150b4565b60405180910390fd5b6129bb8383836133ee565b6129c6600082612324565b6001600560008573ffffffffffffffffffffffffffffffffffffffff1673ffffffffffffffffffffffffffffffffffffffff1681526020019081526020016000206000828254612a16919061565d565b925050819055506001600560008473ffffffffffffffffffffffffffffffffffffffff1673ffffffffffffffffffffffffffffffffffffffff1681526020019081526020016000206000828254612a6d91906155ad565b92505081905550816004600083815260200190815260200160002060006101000a81548173ffffffffffffffffffffffffffffffffffffffff021916908373ffffffffffffffffffffffffffffffffffffffff16021790555060006008826104428110612b03577f4e487b7100000000000000000000000000000000000000000000000000000000600052603260045260246000fd5b600702019050612b12816133f3565b818373ffffffffffffffffffffffffffffffffffffffff168573ffffffffffffffffffffffffffffffffffffffff167fddf252ad1be2c89b69c2b068fc378daa952ba7f163c4a11628f55a4df523b3ef60405160405180910390a450505050565b6000806000905060005b8351811015612c3357612c1e611dd9858381518110612bc5577f4e487b7100000000000000000000000000000000000000000000000000000000600052603260045260246000fd5b602002602001015181548110612c04577f4e487b7100000000000000000000000000000000000000000000000000000000600052603260045260246000fd5b90600052602060002001548361340090919063ffffffff16565b91508080612c2b90615779565b915050612b7d565b5080341015915050919050565b81611dd78181548110612c7c577f4e487b7100000000000000000000000000000000000000000000000000000000600052603260045260246000fd5b9060005260206000200154611dd88281548110612cc2577f4e487b7100000000000000000000000000000000000000000000000000000000600052603260045260246000fd5b906000526020600020015410612d0d576040517f08c379a0000000000000000000000000000000000000000000000000000000008152600401612d04906151f4565b60405180910390fd5b6000612d1884613416565b905060006040518060e0016040528089815260200188815260200187815260200183815260200186815260200160008152602001428152509050806008836104428110612d8e577f4e487b7100000000000000000000000000000000000000000000000000000000600052603260045260246000fd5b600702016000820151816000019080519060200190612dae929190613a7c565b506020820151816001019080519060200190612dcb929190613a7c565b506040820151816002019080519060200190612de8929190613a7c565b50606082015181600301556080820151816004015560a0820151816005015560c08201518160060155905050612e1e338361354c565b612e278561356a565b612e318285613261565b50611dd68190806001815401808255809150506001900390600052602060002090600702016000909190919091506000820151816000019080519060200190612e7b929190613a7c565b506020820151816001019080519060200190612e98929190613a7c565b506040820151816002019080519060200190612eb5929190613a7c565b50606082015181600301556080820151816004015560a0820151816005015560c0820151816006015550507f7c58745d47d4a1d72185c7259abfe1d748fc8083c5da0a38d3b27b077dca3bd8828989898989604051612f19969594939291906152cf565b60405180910390a15050505050505050565b8173ffffffffffffffffffffffffffffffffffffffff168373ffffffffffffffffffffffffffffffffffffffff161415612f9a576040517f08c379a0000000000000000000000000000000000000000000000000000000008152600401612f9190615014565b60405180910390fd5b80600760008573ffffffffffffffffffffffffffffffffffffffff1673ffffffffffffffffffffffffffffffffffffffff16815260200190815260200160002060008473ffffffffffffffffffffffffffffffffffffffff1673ffffffffffffffffffffffffffffffffffffffff16815260200190815260200160002060006101000a81548160ff0219169083151502179055508173ffffffffffffffffffffffffffffffffffffffff168373ffffffffffffffffffffffffffffffffffffffff167f17307eab39ab6107e8899845ad3d59bd9653f200f220920489ca2b5937696c318360405161308b9190614eaa565b60405180910390a3505050565b6130a384848461287c565b6130af8484848461360f565b6130ee576040517f08c379a00000000000000000000000000000000000000000000000000000000081526004016130e590614fb4565b60405180910390fd5b50505050565b600073ffffffffffffffffffffffffffffffffffffffff168173ffffffffffffffffffffffffffffffffffffffff16141561312e57600080fd5b8073ffffffffffffffffffffffffffffffffffffffff1660008054906101000a900473ffffffffffffffffffffffffffffffffffffffff1673ffffffffffffffffffffffffffffffffffffffff167f8be0079c531659141344cd1fd0a4f28419497f9722a3daafe3b4186f6b6457e060405160405180910390a3806000806101000a81548173ffffffffffffffffffffffffffffffffffffffff021916908373ffffffffffffffffffffffffffffffffffffffff16021790555050565b60008060015414806131ff57506000600254145b8061320c57506000600354145b1561321a576001905061325e565b60006001541415801561322e575060015442105b1561323c576001905061325e565b600115156132486137a6565b15151415613259576001905061325e565b600090505b90565b606081611dda6000858152602001908152602001600020908051906020019061328b929190613a7c565b5092915050565b60005b611dd6805490508110156133ea576000611dd682815481106132e0577f4e487b7100000000000000000000000000000000000000000000000000000000600052603260045260246000fd5b906000526020600020906007020190508260030154816003015414156133d65782611dd6838154811061333c577f4e487b7100000000000000000000000000000000000000000000000000000000600052603260045260246000fd5b9060005260206000209060070201600082018160000190805461335e90615747565b613369929190613b02565b50600182018160010190805461337e90615747565b613389929190613b02565b50600282018160020190805461339e90615747565b6133a9929190613b02565b50600382015481600301556004820154816004015560058201548160050155600682015481600601559050505b5080806133e290615779565b915050613295565b5050565b505050565b6000816005018190555050565b6000818361340e91906155ad565b905092915050565b60008082141561346e57611dd860008154811061345c577f4e487b7100000000000000000000000000000000000000000000000000000000600052603260045260246000fd5b90600052602060002001549050613547565b6000805b838110156134e7576134d2611dd782815481106134b8577f4e487b7100000000000000000000000000000000000000000000000000000000600052603260045260246000fd5b90600052602060002001548361340090919063ffffffff16565b915080806134df90615779565b915050613472565b50613540611dd88481548110613526577f4e487b7100000000000000000000000000000000000000000000000000000000600052603260045260246000fd5b90600052602060002001548261340090919063ffffffff16565b9050809150505b919050565b613566828260405180602001604052806000815250613840565b5050565b6135c36001611dd883815481106135aa577f4e487b7100000000000000000000000000000000000000000000000000000000600052603260045260246000fd5b906000526020600020015461340090919063ffffffff16565b611dd882815481106135fe577f4e487b7100000000000000000000000000000000000000000000000000000000600052603260045260246000fd5b906000526020600020018190555050565b60006136308473ffffffffffffffffffffffffffffffffffffffff1661389b565b15613799578373ffffffffffffffffffffffffffffffffffffffff1663150b7a0261365961231c565b8786866040518563ffffffff1660e01b815260040161367b9493929190614dbe565b602060405180830381600087803b15801561369557600080fd5b505af19250505080156136c657506040513d601f19601f820116820180604052508101906136c391906140c1565b60015b613749573d80600081146136f6576040519150601f19603f3d011682016040523d82523d6000602084013e6136fb565b606091505b50600081511415613741576040517f08c379a000000000000000000000000000000000000000000000000000000000815260040161373890614fb4565b60405180910390fd5b805181602001fd5b63150b7a0260e01b7bffffffffffffffffffffffffffffffffffffffffffffffffffffffff1916817bffffffffffffffffffffffffffffffffffffffffffffffffffffffff19161491505061379e565b600190505b949350505050565b60008060019050600060019050600060015490505b811561381c576137d66002548261340090919063ffffffff16565b9050600192508042116137ec576000915061381c565b600092506138056003548261340090919063ffffffff16565b9050804211613817576000915061381c565b6137bb565b600015158315151415613835576001935050505061383d565b600093505050505b90565b61384a83836138ae565b613857600084848461360f565b613896576040517f08c379a000000000000000000000000000000000000000000000000000000000815260040161388d90614fb4565b60405180910390fd5b505050565b600080823b905060008111915050919050565b600073ffffffffffffffffffffffffffffffffffffffff168273ffffffffffffffffffffffffffffffffffffffff16141561391e576040517f08c379a000000000000000000000000000000000000000000000000000000000815260040161391590615154565b60405180910390fd5b613927816122b0565b15613967576040517f08c379a000000000000000000000000000000000000000000000000000000000815260040161395e90614fd4565b60405180910390fd5b613973600083836133ee565b6001600560008473ffffffffffffffffffffffffffffffffffffffff1673ffffffffffffffffffffffffffffffffffffffff16815260200190815260200160002060008282546139c391906155ad565b92505081905550816004600083815260200190815260200160002060006101000a81548173ffffffffffffffffffffffffffffffffffffffff021916908373ffffffffffffffffffffffffffffffffffffffff160217905550808273ffffffffffffffffffffffffffffffffffffffff16600073ffffffffffffffffffffffffffffffffffffffff167fddf252ad1be2c89b69c2b068fc378daa952ba7f163c4a11628f55a4df523b3ef60405160405180910390a45050565b828054613a8890615747565b90600052602060002090601f016020900481019282613aaa5760008555613af1565b82601f10613ac357805160ff1916838001178555613af1565b82800160010185558215613af1579182015b82811115613af0578251825591602001919060010190613ad5565b5b509050613afe9190613b8f565b5090565b828054613b0e90615747565b90600052602060002090601f016020900481019282613b305760008555613b7e565b82601f10613b415780548555613b7e565b82800160010185558215613b7e57600052602060002091601f016020900482015b82811115613b7d578254825591600101919060010190613b62565b5b509050613b8b9190613b8f565b5090565b5b80821115613ba8576000816000905550600101613b90565b5090565b6000613bbf613bba846153ec565b6153bb565b9050808382526020820190508260005b85811015613bff5781358501613be58882613dc3565b845260208401935060208301925050600181019050613bcf565b5050509392505050565b6000613c1c613c1784615418565b6153bb565b90508083825260208201905082856020860282011115613c3b57600080fd5b60005b85811015613c6b5781613c518882613ded565b845260208401935060208301925050600181019050613c3e565b5050509392505050565b6000613c88613c8384615444565b6153bb565b905082815260208101848484011115613ca057600080fd5b613cab848285615705565b509392505050565b6000613cc6613cc184615474565b6153bb565b905082815260208101848484011115613cde57600080fd5b613ce9848285615705565b509392505050565b600081359050613d0081615860565b92915050565b600082601f830112613d1757600080fd5b8135613d27848260208601613bac565b91505092915050565b600082601f830112613d4157600080fd5b8135613d51848260208601613c09565b91505092915050565b600081359050613d6981615877565b92915050565b600081359050613d7e8161588e565b92915050565b600081519050613d938161588e565b92915050565b600082601f830112613daa57600080fd5b8135613dba848260208601613c75565b91505092915050565b600082601f830112613dd457600080fd5b8135613de4848260208601613cb3565b91505092915050565b600081359050613dfc816158a5565b92915050565b600060208284031215613e1457600080fd5b6000613e2284828501613cf1565b91505092915050565b60008060408385031215613e3e57600080fd5b6000613e4c85828601613cf1565b9250506020613e5d85828601613cf1565b9150509250929050565b600080600060608486031215613e7c57600080fd5b6000613e8a86828701613cf1565b9350506020613e9b86828701613cf1565b9250506040613eac86828701613ded565b9150509250925092565b60008060008060808587031215613ecc57600080fd5b6000613eda87828801613cf1565b9450506020613eeb87828801613cf1565b9350506040613efc87828801613ded565b925050606085013567ffffffffffffffff811115613f1957600080fd5b613f2587828801613d99565b91505092959194509250565b60008060408385031215613f4457600080fd5b6000613f5285828601613cf1565b9250506020613f6385828601613d5a565b9150509250929050565b60008060408385031215613f8057600080fd5b6000613f8e85828601613cf1565b9250506020613f9f85828601613ded565b9150509250929050565b600080600080600060a08688031215613fc157600080fd5b600086013567ffffffffffffffff811115613fdb57600080fd5b613fe788828901613d06565b955050602086013567ffffffffffffffff81111561400457600080fd5b61401088828901613d06565b945050604086013567ffffffffffffffff81111561402d57600080fd5b61403988828901613d06565b935050606086013567ffffffffffffffff81111561405657600080fd5b61406288828901613d30565b925050608086013567ffffffffffffffff81111561407f57600080fd5b61408b88828901613d06565b9150509295509295909350565b6000602082840312156140aa57600080fd5b60006140b884828501613d6f565b91505092915050565b6000602082840312156140d357600080fd5b60006140e184828501613d84565b91505092915050565b6000602082840312156140fc57600080fd5b600061410a84828501613ded565b91505092915050565b6000806040838503121561412657600080fd5b600061413485828601613ded565b925050602083013567ffffffffffffffff81111561415157600080fd5b61415d85828601613dc3565b9150509250929050565b600080600080600060a0868803121561417f57600080fd5b600061418d88828901613ded565b955050602086013567ffffffffffffffff8111156141aa57600080fd5b6141b688828901613dc3565b945050604086013567ffffffffffffffff8111156141d357600080fd5b6141df88828901613dc3565b935050606086013567ffffffffffffffff8111156141fc57600080fd5b61420888828901613dc3565b925050608086013567ffffffffffffffff81111561422557600080fd5b61423188828901613dc3565b9150509295509295909350565b600061424a8383614282565b60208301905092915050565b60006142628383614419565b905092915050565b60006142768383614d85565b60208301905092915050565b61428b81615691565b82525050565b61429a81615691565b82525050565b60006142ab826154e9565b6142b58185615547565b93506142c0836154a4565b8060005b838110156142f15781516142d8888261423e565b97506142e383615520565b9250506001810190506142c4565b5085935050505092915050565b6000614309826154f4565b6143138185615558565b935083602082028501614325856154b4565b8060005b8581101561436157848403895281516143428582614256565b945061434d8361552d565b925060208a01995050600181019050614329565b50829750879550505050505092915050565b600061437e826154ff565b6143888185615569565b9350614393836154c4565b8060005b838110156143c45781516143ab888261426a565b97506143b68361553a565b925050600181019050614397565b5085935050505092915050565b6143da816156a3565b82525050565b60006143eb8261550a565b6143f5818561557a565b9350614405818560208601615714565b61440e8161584f565b840191505092915050565b600061442482615515565b61442e818561558b565b935061443e818560208601615714565b6144478161584f565b840191505092915050565b600061445d82615515565b614467818561559c565b9350614477818560208601615714565b6144808161584f565b840191505092915050565b6000815461449881615747565b6144a2818661559c565b945060018216600081146144bd57600181146144cf57614502565b60ff1983168652602086019350614502565b6144d8856154d4565b60005b838110156144fa578154818901526001820191506020810190506144db565b808801955050505b50505092915050565b600061451860298361559c565b91507f43616e6e6f74206d696e742e204172726179732061726520646966666572656e60008301527f74206c656e6774687300000000000000000000000000000000000000000000006020830152604082019050919050565b600061457e60328361559c565b91507f4552433732313a207472616e7366657220746f206e6f6e20455243373231526560008301527f63656976657220696d706c656d656e74657200000000000000000000000000006020830152604082019050919050565b60006145e4601c8361559c565b91507f4552433732313a20746f6b656e20616c7265616479206d696e746564000000006000830152602082019050919050565b600061462460248361559c565b91507f4552433732313a207472616e7366657220746f20746865207a65726f2061646460008301527f72657373000000000000000000000000000000000000000000000000000000006020830152604082019050919050565b600061468a60198361559c565b91507f4552433732313a20617070726f766520746f2063616c6c6572000000000000006000830152602082019050919050565b60006146ca60408361559c565b91507f4552433732313a20617070726f76652063616c6c6572206973206e6f74206f7760008301527f6e6572206e6f7220617070726f76656420746f206d616b65206368616e6765736020830152604082019050919050565b6000614730602c8361559c565b91507f4552433732313a206f70657261746f7220717565727920666f72206e6f6e657860008301527f697374656e7420746f6b656e00000000000000000000000000000000000000006020830152604082019050919050565b6000614796600e8361559c565b91507f4e756c6c20546f6b656e205552490000000000000000000000000000000000006000830152602082019050919050565b60006147d660178361559c565b91507f547279696e6720746f206d696e7420746f6f206d7563680000000000000000006000830152602082019050919050565b6000614816601c8361559c565b91507f48696265726e6174696f6e20506572696f6420496e20456666656374000000006000830152602082019050919050565b600061485660388361559c565b91507f4552433732313a20617070726f76652063616c6c6572206973206e6f74206f7760008301527f6e6572206e6f7220617070726f76656420666f7220616c6c00000000000000006020830152604082019050919050565b60006148bc602a8361559c565b91507f4552433732313a2062616c616e636520717565727920666f7220746865207a6560008301527f726f2061646472657373000000000000000000000000000000000000000000006020830152604082019050919050565b600061492260298361559c565b91507f4552433732313a206f776e657220717565727920666f72206e6f6e657869737460008301527f656e7420746f6b656e00000000000000000000000000000000000000000000006020830152604082019050919050565b6000614988600f8361559c565b91507f4e6f20646174612073656e7420696e00000000000000000000000000000000006000830152602082019050919050565b60006149c860208361559c565b91507f4552433732313a206d696e7420746f20746865207a65726f20616464726573736000830152602082019050919050565b6000614a0860238361559c565b91507f46656520656e7465726564206973206e6f742066656520666f7220746865207360008301527f6c6f7400000000000000000000000000000000000000000000000000000000006020830152604082019050919050565b6000614a6e602c8361559c565b91507f4552433732313a20617070726f76656420717565727920666f72206e6f6e657860008301527f697374656e7420746f6b656e00000000000000000000000000000000000000006020830152604082019050919050565b6000614ad460298361559c565b91507f4552433732313a207472616e73666572206f6620746f6b656e2074686174206960008301527f73206e6f74206f776e00000000000000000000000000000000000000000000006020830152604082019050919050565b6000614b3a602f8361559c565b91507f4552433732314d657461646174613a2055524920717565727920666f72206e6f60008301527f6e6578697374656e7420746f6b656e00000000000000000000000000000000006020830152604082019050919050565b6000614ba060288361559c565b91507f416c6c20736c6f747320666f72207468617420746869732073697a652062656560008301527f6e206d696e7465640000000000000000000000000000000000000000000000006020830152604082019050919050565b6000614c0660218361559c565b91507f4552433732313a20617070726f76616c20746f2063757272656e74206f776e6560008301527f72000000000000000000000000000000000000000000000000000000000000006020830152604082019050919050565b6000614c6c601f8361559c565b91507f52656163686564206d6178696d756d206e756d626572206f66206564697473006000830152602082019050919050565b6000614cac60318361559c565b91507f4552433732313a207472616e736665722063616c6c6572206973206e6f74206f60008301527f776e6572206e6f7220617070726f7665640000000000000000000000000000006020830152604082019050919050565b6000614d1260098361559c565b91507f4e756c6c206e616d6500000000000000000000000000000000000000000000006000830152602082019050919050565b6000614d52600e8361559c565b91507f4e756c6c20496d6167652055524c0000000000000000000000000000000000006000830152602082019050919050565b614d8e816156fb565b82525050565b614d9d816156fb565b82525050565b6000602082019050614db86000830184614291565b92915050565b6000608082019050614dd36000830187614291565b614de06020830186614291565b614ded6040830185614d94565b8181036060830152614dff81846143e0565b905095945050505050565b600060e0820190508181036000830152614e24818a6142fe565b90508181036020830152614e3881896142fe565b90508181036040830152614e4c81886142fe565b90508181036060830152614e6081876142a0565b90508181036080830152614e748186614373565b905081810360a0830152614e888185614373565b905081810360c0830152614e9c81846142fe565b905098975050505050505050565b6000602082019050614ebf60008301846143d1565b92915050565b60006020820190508181036000830152614edf8184614452565b905092915050565b600060e0820190508181036000830152614f01818a614452565b90508181036020830152614f158189614452565b90508181036040830152614f298188614452565b9050614f386060830187614291565b614f456080830186614d94565b614f5260a0830185614d94565b81810360c0830152614f648184614452565b905098975050505050505050565b60006020820190508181036000830152614f8c818461448b565b905092915050565b60006020820190508181036000830152614fad8161450b565b9050919050565b60006020820190508181036000830152614fcd81614571565b9050919050565b60006020820190508181036000830152614fed816145d7565b9050919050565b6000602082019050818103600083015261500d81614617565b9050919050565b6000602082019050818103600083015261502d8161467d565b9050919050565b6000602082019050818103600083015261504d816146bd565b9050919050565b6000602082019050818103600083015261506d81614723565b9050919050565b6000602082019050818103600083015261508d81614789565b9050919050565b600060208201905081810360008301526150ad816147c9565b9050919050565b600060208201905081810360008301526150cd81614809565b9050919050565b600060208201905081810360008301526150ed81614849565b9050919050565b6000602082019050818103600083015261510d816148af565b9050919050565b6000602082019050818103600083015261512d81614915565b9050919050565b6000602082019050818103600083015261514d8161497b565b9050919050565b6000602082019050818103600083015261516d816149bb565b9050919050565b6000602082019050818103600083015261518d816149fb565b9050919050565b600060208201905081810360008301526151ad81614a61565b9050919050565b600060208201905081810360008301526151cd81614ac7565b9050919050565b600060208201905081810360008301526151ed81614b2d565b9050919050565b6000602082019050818103600083015261520d81614b93565b9050919050565b6000602082019050818103600083015261522d81614bf9565b9050919050565b6000602082019050818103600083015261524d81614c5f565b9050919050565b6000602082019050818103600083015261526d81614c9f565b9050919050565b6000602082019050818103600083015261528d81614d05565b9050919050565b600060208201905081810360008301526152ad81614d45565b9050919050565b60006020820190506152c96000830184614d94565b92915050565b600060c0820190506152e46000830189614d94565b81810360208301526152f68188614452565b9050818103604083015261530a8187614452565b9050818103606083015261531e8186614452565b905061532d6080830185614d94565b81810360a083015261533f8184614452565b9050979650505050505050565b600060a0820190506153616000830188614d94565b8181036020830152615373818761448b565b90508181036040830152615387818661448b565b9050818103606083015261539b818561448b565b905081810360808301526153af8184614452565b90509695505050505050565b6000604051905081810181811067ffffffffffffffff821117156153e2576153e1615820565b5b8060405250919050565b600067ffffffffffffffff82111561540757615406615820565b5b602082029050602081019050919050565b600067ffffffffffffffff82111561543357615432615820565b5b602082029050602081019050919050565b600067ffffffffffffffff82111561545f5761545e615820565b5b601f19601f8301169050602081019050919050565b600067ffffffffffffffff82111561548f5761548e615820565b5b601f19601f8301169050602081019050919050565b6000819050602082019050919050565b6000819050602082019050919050565b6000819050602082019050919050565b60008190508160005260206000209050919050565b600081519050919050565b600081519050919050565b600081519050919050565b600081519050919050565b600081519050919050565b6000602082019050919050565b6000602082019050919050565b6000602082019050919050565b600082825260208201905092915050565b600082825260208201905092915050565b600082825260208201905092915050565b600082825260208201905092915050565b600082825260208201905092915050565b600082825260208201905092915050565b60006155b8826156fb565b91506155c3836156fb565b9250827fffffffffffffffffffffffffffffffffffffffffffffffffffffffffffffffff038211156155f8576155f76157c2565b5b828201905092915050565b600061560e826156fb565b9150615619836156fb565b9250817fffffffffffffffffffffffffffffffffffffffffffffffffffffffffffffffff0483118215151615615652576156516157c2565b5b828202905092915050565b6000615668826156fb565b9150615673836156fb565b925082821015615686576156856157c2565b5b828203905092915050565b600061569c826156db565b9050919050565b60008115159050919050565b60007fffffffff0000000000000000000000000000000000000000000000000000000082169050919050565b600073ffffffffffffffffffffffffffffffffffffffff82169050919050565b6000819050919050565b82818337600083830152505050565b60005b83811015615732578082015181840152602081019050615717565b83811115615741576000848401525b50505050565b6000600282049050600182168061575f57607f821691505b60208210811415615773576157726157f1565b5b50919050565b6000615784826156fb565b91507fffffffffffffffffffffffffffffffffffffffffffffffffffffffffffffffff8214156157b7576157b66157c2565b5b600182019050919050565b7f4e487b7100000000000000000000000000000000000000000000000000000000600052601160045260246000fd5b7f4e487b7100000000000000000000000000000000000000000000000000000000600052602260045260246000fd5b7f4e487b7100000000000000000000000000000000000000000000000000000000600052604160045260246000fd5b6000601f19601f8301169050919050565b61586981615691565b811461587457600080fd5b50565b615880816156a3565b811461588b57600080fd5b50565b615897816156af565b81146158a257600080fd5b50565b6158ae816156fb565b81146158b957600080fd5b5056fea26469706673582212204b839380e6ba605821a629b8c2de220cf62145133a642dcd2f18933da4db9a3a64736f6c63430008000033",
  "linkReferences": {},
  "deployedLinkReferences": {}
}