{
  "contracts/InfiniteCollections.sol": {
    "InfiniteCollections": {
      "abi": [
        {
          "anonymous": false,
          "inputs": [
            {
              "indexed": true,
              "internalType": "address",
              "name": "_owner",
              "type": "address"
            },
            {
              "indexed": true,
              "internalType": "address",
              "name": "_approved",
              "type": "address"
            },
            {
              "indexed": true,
              "internalType": "uint256",
              "name": "_tokenId",
              "type": "uint256"
            }
          ],
          "name": "Approval",
          "type": "event"
        },
        {
          "anonymous": false,
          "inputs": [
            {
              "indexed": false,
              "internalType": "uint256",
              "name": "id",
              "type": "uint256"
            },
            {
              "indexed": false,
              "internalType": "string",
              "name": "description",
              "type": "string"
            },
            {
              "indexed": false,
              "internalType": "string",
              "name": "imgUrl",
              "type": "string"
            },
            {
              "indexed": false,
              "internalType": "uint256",
              "name": "size",
              "type": "uint256"
            },
            {
              "indexed": false,
              "internalType": "uint256",
              "name": "house",
              "type": "uint256"
            },
            {
              "indexed": false,
              "internalType": "uint256",
              "name": "room",
              "type": "uint256"
            }
          ],
          "name": "NewSlot",
          "type": "event"
        },
        {
          "anonymous": false,
          "inputs": [
            {
              "indexed": true,
              "internalType": "address",
              "name": "previousOwner",
              "type": "address"
            }
          ],
          "name": "OwnershipRenounced",
          "type": "event"
        },
        {
          "anonymous": false,
          "inputs": [
            {
              "indexed": true,
              "internalType": "address",
              "name": "previousOwner",
              "type": "address"
            },
            {
              "indexed": true,
              "internalType": "address",
              "name": "newOwner",
              "type": "address"
            }
          ],
          "name": "OwnershipTransferred",
          "type": "event"
        },
        {
          "anonymous": false,
          "inputs": [
            {
              "indexed": true,
              "internalType": "address",
              "name": "_from",
              "type": "address"
            },
            {
              "indexed": true,
              "internalType": "address",
              "name": "_to",
              "type": "address"
            },
            {
              "indexed": true,
              "internalType": "uint256",
              "name": "_tokenId",
              "type": "uint256"
            }
          ],
          "name": "Transfer",
          "type": "event"
        },
        {
          "anonymous": false,
          "inputs": [
            {
              "indexed": false,
              "internalType": "bool",
              "name": "set",
              "type": "bool"
            }
          ],
          "name": "UpdatedFreezeStamp",
          "type": "event"
        },
        {
          "anonymous": false,
          "inputs": [
            {
              "indexed": false,
              "internalType": "bool",
              "name": "set",
              "type": "bool"
            }
          ],
          "name": "UpdatedHibernationPeriod",
          "type": "event"
        },
        {
          "anonymous": false,
          "inputs": [
            {
              "indexed": false,
              "internalType": "bool",
              "name": "set",
              "type": "bool"
            }
          ],
          "name": "UpdatedSalePeriod",
          "type": "event"
        },
        {
          "anonymous": false,
          "inputs": [
            {
              "indexed": false,
              "internalType": "uint256",
              "name": "id",
              "type": "uint256"
            },
            {
              "indexed": false,
              "internalType": "string",
              "name": "description",
              "type": "string"
            },
            {
              "indexed": false,
              "internalType": "string",
              "name": "imgUrl",
              "type": "string"
            }
          ],
          "name": "UpdatedSlot",
          "type": "event"
        },
        {
          "inputs": [
            {
              "internalType": "uint256",
              "name": "id",
              "type": "uint256"
            }
          ],
          "name": "_getOwner",
          "outputs": [
            {
              "internalType": "address",
              "name": "",
              "type": "address"
            }
          ],
          "stateMutability": "view",
          "type": "function"
        },
        {
          "inputs": [
            {
              "internalType": "address",
              "name": "_approved",
              "type": "address"
            },
            {
              "internalType": "uint256",
              "name": "_tokenId",
              "type": "uint256"
            }
          ],
          "name": "approve",
          "outputs": [],
          "stateMutability": "nonpayable",
          "type": "function"
        },
        {
          "inputs": [
            {
              "internalType": "address",
              "name": "_owner",
              "type": "address"
            }
          ],
          "name": "balanceOf",
          "outputs": [
            {
              "internalType": "uint256",
              "name": "",
              "type": "uint256"
            }
          ],
          "stateMutability": "view",
          "type": "function"
        },
        {
          "inputs": [
            {
              "internalType": "uint256",
              "name": "id",
              "type": "uint256"
            },
            {
              "internalType": "string",
              "name": "_description",
              "type": "string"
            },
            {
              "internalType": "string",
              "name": "_imgUrl",
              "type": "string"
            }
          ],
          "name": "changeSlotInfo",
          "outputs": [],
          "stateMutability": "nonpayable",
          "type": "function"
        },
        {
          "inputs": [
            {
              "internalType": "string[]",
              "name": "_descriptionArr",
              "type": "string[]"
            },
            {
              "internalType": "string[]",
              "name": "_imgUrlArr",
              "type": "string[]"
            },
            {
              "internalType": "uint256[]",
              "name": "_sizeArr",
              "type": "uint256[]"
            }
          ],
          "name": "createSlot",
          "outputs": [],
          "stateMutability": "payable",
          "type": "function"
        },
        {
          "inputs": [],
          "name": "isOwner",
          "outputs": [
            {
              "internalType": "bool",
              "name": "",
              "type": "bool"
            }
          ],
          "stateMutability": "view",
          "type": "function"
        },
        {
          "inputs": [],
          "name": "owner",
          "outputs": [
            {
              "internalType": "address",
              "name": "",
              "type": "address"
            }
          ],
          "stateMutability": "view",
          "type": "function"
        },
        {
          "inputs": [
            {
              "internalType": "uint256",
              "name": "_tokenId",
              "type": "uint256"
            }
          ],
          "name": "ownerOf",
          "outputs": [
            {
              "internalType": "address",
              "name": "",
              "type": "address"
            }
          ],
          "stateMutability": "view",
          "type": "function"
        },
        {
          "inputs": [],
          "name": "renounceOwnership",
          "outputs": [],
          "stateMutability": "nonpayable",
          "type": "function"
        },
        {
          "inputs": [
            {
              "internalType": "uint256",
              "name": "_hibernationTimePeriod",
              "type": "uint256"
            }
          ],
          "name": "setHibernationTimePeriod",
          "outputs": [],
          "stateMutability": "nonpayable",
          "type": "function"
        },
        {
          "inputs": [
            {
              "internalType": "uint256",
              "name": "_freezeTimeStamp",
              "type": "uint256"
            }
          ],
          "name": "setInitialFreezeTimeStamp",
          "outputs": [],
          "stateMutability": "nonpayable",
          "type": "function"
        },
        {
          "inputs": [
            {
              "internalType": "uint256",
              "name": "_saleTimePeriod",
              "type": "uint256"
            }
          ],
          "name": "setSaleTimePeriod",
          "outputs": [],
          "stateMutability": "nonpayable",
          "type": "function"
        },
        {
          "inputs": [
            {
              "internalType": "uint256",
              "name": "",
              "type": "uint256"
            }
          ],
          "name": "slotToOwner",
          "outputs": [
            {
              "internalType": "address",
              "name": "",
              "type": "address"
            }
          ],
          "stateMutability": "view",
          "type": "function"
        },
        {
          "inputs": [
            {
              "internalType": "address",
              "name": "_from",
              "type": "address"
            },
            {
              "internalType": "address",
              "name": "_to",
              "type": "address"
            },
            {
              "internalType": "uint256",
              "name": "_tokenId",
              "type": "uint256"
            }
          ],
          "name": "transferFrom",
          "outputs": [],
          "stateMutability": "nonpayable",
          "type": "function"
        },
        {
          "inputs": [
            {
              "internalType": "address",
              "name": "newOwner",
              "type": "address"
            }
          ],
          "name": "transferOwnership",
          "outputs": [],
          "stateMutability": "nonpayable",
          "type": "function"
        },
        {
          "inputs": [],
          "name": "withdraw",
          "outputs": [
            {
              "internalType": "bool",
              "name": "",
              "type": "bool"
            }
          ],
          "stateMutability": "nonpayable",
          "type": "function"
        }
      ],
      "evm": {
        "bytecode": {
          "linkReferences": {},
          "object": "608060405260405180610100016040528060a061ffff16815260200160c861ffff16815260200161012c61ffff16815260200160c861ffff168152602001606461ffff168152602001606461ffff168152602001601c61ffff168152602001600261ffff168152506001906008620000799291906200037a565b50604051806101000160405280600060ff168152602001600060ff168152602001600060ff168152602001600060ff168152602001600060ff168152602001600060ff168152602001600060ff168152602001600060ff168152506002906008620000e6929190620003d2565b50604051806101000160405280666a94d74f43000067ffffffffffffffff16815260200166b1a2bc2ec5000067ffffffffffffffff16815260200167011c37937e08000067ffffffffffffffff168152602001670186cc6acd4b000067ffffffffffffffff16815260200167025bf6196bd1000067ffffffffffffffff1681526020016702c68af0bb14000067ffffffffffffffff1681526020016703782dace9d9000067ffffffffffffffff168152602001670429d069189e000067ffffffffffffffff168152506003906008620001c192919062000429565b5060405180610160016040528060405180604001604052806001815260200160a08152508152602001604051806040016040528060a181526020016101308152508152602001604051806040016040528061013181526020016101ae815250815260200160405180604001604052806101af81526020016102218152508152602001604051806040016040528061022281526020016102948152508152602001604051806040016040528061029581526020016102f3815250815260200160405180604001604052806102f4815260200161035281525081526020016040518060400160405280610353815260200161039b8152508152602001604051806040016040528061039c81526020016103da815250815260200160405180604001604052806103db8152602001610411815250815260200160405180604001604052806104128152602001610442815250815250600490600b6200032592919062000487565b503480156200033357600080fd5b50336000806101000a81548173ffffffffffffffffffffffffffffffffffffffff021916908373ffffffffffffffffffffffffffffffffffffffff160217905550620005a5565b828054828255906000526020600020908101928215620003bf579160200282015b82811115620003be578251829061ffff169055916020019190600101906200039b565b5b509050620003ce9190620004e9565b5090565b82805482825590600052602060002090810192821562000416579160200282015b8281111562000415578251829060ff16905591602001919060010190620003f3565b5b509050620004259190620004e9565b5090565b82805482825590600052602060002090810192821562000474579160200282015b8281111562000473578251829067ffffffffffffffff169055916020019190600101906200044a565b5b509050620004839190620004e9565b5090565b828054828255906000526020600020908101928215620004d6579160200282015b82811115620004d557825182906002620004c492919062000508565b5091602001919060010190620004a8565b5b509050620004e591906200055a565b5090565b5b8082111562000504576000816000905550600101620004ea565b5090565b82805482825590600052602060002090810192821562000547579160200282015b828111156200054657825182559160200191906001019062000529565b5b509050620005569190620004e9565b5090565b5b808211156200057e576000818162000574919062000582565b506001016200055b565b5090565b5080546000825590600052602060002090810190620005a29190620004e9565b50565b6137d180620005b56000396000f3fe6080604052600436106100f35760003560e01c80636551d3811161008a5780638da5cb5b116100595780638da5cb5b146103175780638f32d59b14610342578063f2fde38b1461036d578063f6fc7e0514610396576100f3565b80636551d3811461027e57806370a082311461029a578063715018a6146102d75780638c73bd6b146102ee576100f3565b80633b90a698116100c65780633b90a698146101b05780633ccfd60b146101d95780636352211e1461020457806364d4eeab14610241576100f3565b8063070c46c5146100f8578063095ea7b3146101215780630c10e4991461014a57806323b872dd14610187575b600080fd5b34801561010457600080fd5b5061011f600480360381019061011a9190612ef6565b6103bf565b005b34801561012d57600080fd5b5061014860048036038101906101439190612e23565b610422565b005b34801561015657600080fd5b50610171600480360381019061016c9190612ef6565b610542565b60405161017e9190613236565b60405180910390f35b34801561019357600080fd5b506101ae60048036038101906101a99190612dd4565b610576565b005b3480156101bc57600080fd5b506101d760048036038101906101d29190612f1f565b61074a565b005b3480156101e557600080fd5b506101ee61075a565b6040516101fb9190613251565b60405180910390f35b34801561021057600080fd5b5061022b60048036038101906102269190612ef6565b6107c1565b6040516102389190613236565b60405180910390f35b34801561024d57600080fd5b5061026860048036038101906102639190612ef6565b6107ff565b6040516102759190613236565b60405180910390f35b61029860048036038101906102939190612e5f565b61083d565b005b3480156102a657600080fd5b506102c160048036038101906102bc9190612dab565b610a9f565b6040516102ce919061334c565b60405180910390f35b3480156102e357600080fd5b506102ec610ae9565b005b3480156102fa57600080fd5b5061031560048036038101906103109190612ef6565b610ba0565b005b34801561032357600080fd5b5061032c610bf4565b6040516103399190613236565b60405180910390f35b34801561034e57600080fd5b50610357610c1d565b6040516103649190613251565b60405180910390f35b34801561037957600080fd5b50610394600480360381019061038f9190612dab565b610c74565b005b3480156103a257600080fd5b506103bd60048036038101906103b89190612ef6565b610c91565b005b6103c7610c1d565b6103d057600080fd5b806301e133806103e09190613546565b611dd5819055507f48d5b81f805ab9c28ee208af32dc0b2370401edd015e57bf3d4868d4aac92a4a60016040516104179190613251565b60405180910390a150565b80611dd6600082815260200190815260200160002060009054906101000a900473ffffffffffffffffffffffffffffffffffffffff1673ffffffffffffffffffffffffffffffffffffffff163373ffffffffffffffffffffffffffffffffffffffff161461048f57600080fd5b82611dd9600084815260200190815260200160002060006101000a81548173ffffffffffffffffffffffffffffffffffffffff021916908373ffffffffffffffffffffffffffffffffffffffff160217905550818373ffffffffffffffffffffffffffffffffffffffff163373ffffffffffffffffffffffffffffffffffffffff167f8c5be1e5ebec7d5bd14f71427d1e84f3dd0314c0f7b2291e5b200ac8c7c3b92560405160405180910390a4505050565b611dd66020528060005260406000206000915054906101000a900473ffffffffffffffffffffffffffffffffffffffff1681565b3373ffffffffffffffffffffffffffffffffffffffff16611dd6600083815260200190815260200160002060009054906101000a900473ffffffffffffffffffffffffffffffffffffffff1673ffffffffffffffffffffffffffffffffffffffff16148061064357503373ffffffffffffffffffffffffffffffffffffffff16611dd9600083815260200190815260200160002060009054906101000a900473ffffffffffffffffffffffffffffffffffffffff1673ffffffffffffffffffffffffffffffffffffffff16145b61064c57600080fd5b60011515610658610cf4565b15151461069a576040517f08c379a0000000000000000000000000000000000000000000000000000000008152600401610691906132ac565b60405180910390fd5b600060058261044281106106d7577f4e487b7100000000000000000000000000000000000000000000000000000000600052603260045260246000fd5b60070201905082611dd6600084815260200190815260200160002060006101000a81548173ffffffffffffffffffffffffffffffffffffffff021916908373ffffffffffffffffffffffffffffffffffffffff16021790555061073981610d6f565b610744848484610d7c565b50505050565b610755838383610e88565b505050565b6000610764610c1d565b61076d57600080fd5b60003390508073ffffffffffffffffffffffffffffffffffffffff166108fc479081150290604051600060405180830381858888f193505050501580156107b8573d6000803e3d6000fd5b50600191505090565b6000611dd6600083815260200190815260200160002060009054906101000a900473ffffffffffffffffffffffffffffffffffffffff169050919050565b6000611dd6600083815260200190815260200160002060009054906101000a900473ffffffffffffffffffffffffffffffffffffffff169050919050565b6001151561084a8261105b565b15151461088c576040517f08c379a0000000000000000000000000000000000000000000000000000000008152600401610883906132ec565b60405180910390fd5b81518351146108d0576040517f08c379a00000000000000000000000000000000000000000000000000000000081526004016108c79061326c565b60405180910390fd5b8051825114610914576040517f08c379a000000000000000000000000000000000000000000000000000000000815260040161090b9061326c565b60405180910390fd5b6000835111610958576040517f08c379a000000000000000000000000000000000000000000000000000000000815260040161094f906132cc565b60405180910390fd5b60148351111561099d576040517f08c379a00000000000000000000000000000000000000000000000000000000081526004016109949061328c565b60405180910390fd5b60005b8351811015610a995760008482815181106109e4577f4e487b7100000000000000000000000000000000000000000000000000000000600052603260045260246000fd5b602002602001015190506000848381518110610a29577f4e487b7100000000000000000000000000000000000000000000000000000000600052603260045260246000fd5b602002602001015190506000848481518110610a6e577f4e487b7100000000000000000000000000000000000000000000000000000000600052603260045260246000fd5b60200260200101519050610a83838383611120565b5050508080610a9190613686565b9150506109a0565b50505050565b6000611dd760008373ffffffffffffffffffffffffffffffffffffffff1673ffffffffffffffffffffffffffffffffffffffff168152602001908152602001600020549050919050565b610af1610c1d565b610afa57600080fd5b60008054906101000a900473ffffffffffffffffffffffffffffffffffffffff1673ffffffffffffffffffffffffffffffffffffffff167ff8df31144d9c2f0f6b59d69b8b98abd5459d07f2742c4df920b25aae33c6482060405160405180910390a260008060006101000a81548173ffffffffffffffffffffffffffffffffffffffff021916908373ffffffffffffffffffffffffffffffffffffffff160217905550565b610ba8610c1d565b610bb157600080fd5b80611dd3819055507f8b3f67438accf50058941fade95f949c7e8a0fe403e05c21f5ffc8d1a8ce5e776001604051610be99190613251565b60405180910390a150565b60008060009054906101000a900473ffffffffffffffffffffffffffffffffffffffff16905090565b60008060009054906101000a900473ffffffffffffffffffffffffffffffffffffffff1673ffffffffffffffffffffffffffffffffffffffff163373ffffffffffffffffffffffffffffffffffffffff1614905090565b610c7c610c1d565b610c8557600080fd5b610c8e816113f6565b50565b610c99610c1d565b610ca257600080fd5b806301e13380610cb29190613546565b611dd4819055507f074c3a3a3955368962500b6a79b06996a24d06af0f7270e5dae387a95a65ea556001604051610ce99190613251565b60405180910390a150565b600080611dd3541480610d0a57506000611dd454145b80610d1857506000611dd554145b15610d265760019050610d6c565b6000611dd35414158015610d3c5750611dd35442105b15610d4a5760019050610d6c565b60011515610d566114ed565b15151415610d675760019050610d6c565b600090505b90565b6001816004018190555050565b611dd760008373ffffffffffffffffffffffffffffffffffffffff1673ffffffffffffffffffffffffffffffffffffffff1681526020019081526020016000206000815480929190610dcd90613686565b9190505550611dd760008473ffffffffffffffffffffffffffffffffffffffff1673ffffffffffffffffffffffffffffffffffffffff1681526020019081526020016000206000815480929190610e239061362a565b9190505550808273ffffffffffffffffffffffffffffffffffffffff168473ffffffffffffffffffffffffffffffffffffffff167fddf252ad1be2c89b69c2b068fc378daa952ba7f163c4a11628f55a4df523b3ef60405160405180910390a4505050565b82611dd6600082815260200190815260200160002060009054906101000a900473ffffffffffffffffffffffffffffffffffffffff1673ffffffffffffffffffffffffffffffffffffffff163373ffffffffffffffffffffffffffffffffffffffff1614610ef557600080fd5b60011515610f01610cf4565b151514610f43576040517f08c379a0000000000000000000000000000000000000000000000000000000008152600401610f3a906132ac565b60405180910390fd5b60006005856104428110610f80577f4e487b7100000000000000000000000000000000000000000000000000000000600052603260045260246000fd5b6007020190506002816004015410610fcd576040517f08c379a0000000000000000000000000000000000000000000000000000000008152600401610fc49061332c565b60405180910390fd5b83816000019080519060200190610fe5929190612b59565b5082816001019080519060200190610ffe929190612b59565b5080600401600081548092919061101490613686565b91905055507f0e25a786dab1d0660f697f60b8f13ebbc495b422aab49ad06a06418d47f3f05485858560405161104c93929190613367565b60405180910390a15050505050565b6000806000905060005b83518110156111135760038482815181106110a9577f4e487b7100000000000000000000000000000000000000000000000000000000600052603260045260246000fd5b6020026020010151815481106110e8577f4e487b7100000000000000000000000000000000000000000000000000000000600052603260045260246000fd5b9060005260206000200154826110fe91906134f0565b9150808061110b90613686565b915050611065565b5080341015915050919050565b806001818154811061115b577f4e487b7100000000000000000000000000000000000000000000000000000000600052603260045260246000fd5b9060005260206000200154600282815481106111a0577f4e487b7100000000000000000000000000000000000000000000000000000000600052603260045260246000fd5b9060005260206000200154106111eb576040517f08c379a00000000000000000000000000000000000000000000000000000000081526004016111e29061330c565b60405180910390fd5b60006111f68361157c565b90506000611203826116a1565b9050600061121083611827565b905060006040518060e0016040528089815260200188815260200185815260200187815260200160018152602001848152602001838152509050806005856104428110611286577f4e487b7100000000000000000000000000000000000000000000000000000000600052603260045260246000fd5b6007020160008201518160000190805190602001906112a6929190612b59565b5060208201518160010190805190602001906112c3929190612b59565b5060408201518160020155606082015181600301556080820151816004015560a0820151816005015560c0820151816006015590505033611dd6600086815260200190815260200160002060006101000a81548173ffffffffffffffffffffffffffffffffffffffff021916908373ffffffffffffffffffffffffffffffffffffffff160217905550611dd760003373ffffffffffffffffffffffffffffffffffffffff1673ffffffffffffffffffffffffffffffffffffffff168152602001908152602001600020600081548092919061139d90613686565b91905055506113ab86612abd565b7fcbcfa63b55697645486e736954709632d8cfb1a7b54a0ca9bc1c915d4c3a8a108489898987876040516113e4969594939291906133ac565b60405180910390a15050505050505050565b600073ffffffffffffffffffffffffffffffffffffffff168173ffffffffffffffffffffffffffffffffffffffff16141561143057600080fd5b8073ffffffffffffffffffffffffffffffffffffffff1660008054906101000a900473ffffffffffffffffffffffffffffffffffffffff1673ffffffffffffffffffffffffffffffffffffffff167f8be0079c531659141344cd1fd0a4f28419497f9722a3daafe3b4186f6b6457e060405160405180910390a3806000806101000a81548173ffffffffffffffffffffffffffffffffffffffff021916908373ffffffffffffffffffffffffffffffffffffffff16021790555050565b600080600190506000600190506000611dd35490505b811561155857611dd4548161151891906134f0565b90506001925080421161152e5760009150611558565b60009250611dd5548161154191906134f0565b90508042116115535760009150611558565b611503565b6000151583151514156115715760019350505050611579565b600093505050505b90565b6000808214156115d35760026000815481106115c1577f4e487b7100000000000000000000000000000000000000000000000000000000600052603260045260246000fd5b9060005260206000200154905061169c565b6000805b838110156116445760018181548110611619577f4e487b7100000000000000000000000000000000000000000000000000000000600052603260045260246000fd5b90600052602060002001548261162f91906134f0565b9150808061163c90613686565b9150506115d7565b506002838154811061167f577f4e487b7100000000000000000000000000000000000000000000000000000000600052603260045260246000fd5b90600052602060002001548161169591906134f0565b9050809150505b919050565b6000806001836116b191906134f0565b90506000600b905060005b8181101561181e57600060048281548110611700577f4e487b7100000000000000000000000000000000000000000000000000000000600052603260045260246000fd5b9060005260206000200180548060200260200160405190810160405280929190818152602001828054801561175457602002820191906000526020600020905b815481526020019060010190808311611740575b5050505050905080600081518110611795577f4e487b7100000000000000000000000000000000000000000000000000000000600052603260045260246000fd5b602002602001015184101580156117ed5750806001815181106117e1577f4e487b7100000000000000000000000000000000000000000000000000000000600052603260045260246000fd5b60200260200101518411155b1561180a576001826117ff91906134f0565b945050505050611822565b50808061181690613686565b9150506116bc565b5050505b919050565b600080604051806103000160405280604051806040016040528060018152602001601c8152508152602001604051806040016040528060a1815260200160b68152508152602001604051806040016040528061011d81526020016101208152508152602001604051806040016040528061012c815260200161013081525081526020016040518060400160405280610131815260200161014f815250815260200160405180604001604052806101af81526020016101c08152508152602001604051806040016040528061021181526020016102148152508152602001604051806040016040528061021e81526020016102218152508152602001604051806040016040528061022281526020016102338152508152602001604051806040016040528061028481526020016102878152508152602001604051806040016040528061029181526020016102948152508152602001604051806040016040528061029581526020016102a2815250815260200160405180604001604052806102e481526020016102e7815250815260200160405180604001604052806102f081526020016102f3815250815260200160405180604001604052806102f481526020016103018152508152602001604051806040016040528061034381526020016103468152508152602001604051806040016040528061034f81526020016103528152508152602001604051806040016040528061035381526020016103628152508152602001604051806040016040528061039581526020016103968152508152602001604051806040016040528061039c81526020016103a7815250815260200160405180604001604052806103a881526020016103ab815250815260200160405180604001604052806103db81526020016103e28152508152602001604051806040016040528061040b815260200161040c81525081526020016040518060400160405280610412815260200161041c81525081525090506000604051806103c001604052806040518060400160405280601d815260200160328152508152602001604051806040016040528060598152602001606a815250815260200160405180604001604052806089815260200160908152508152602001604051806040016040528060b7815260200160c28152508152602001604051806040016040528060c3815260200160ca8152508152602001604051806040016040528060e9815260200160f681525081526020016040518060400160405280610111815260200161011681525081526020016040518060400160405280610150815260200161016e8152508152602001604051806040016040528061019d81526020016101a0815250815260200160405180604001604052806101c181526020016101d0815250815260200160405180604001604052806101e981526020016101f381525081526020016040518060400160405280610209815260200161020c8152508152602001604051806040016040528061023481526020016102438152508152602001604051806040016040528061025c81526020016102668152508152602001604051806040016040528061027c815260200161027f815250815260200160405180604001604052806102a381526020016102ae815250815260200160405180604001604052806102c281526020016102ca815250815260200160405180604001604052806102dc81526020016102df81525081526020016040518060400160405280610302815260200161030d8152508152602001604051806040016040528061032181526020016103298152508152602001604051806040016040528061033b815260200161033e81525081526020016040518060400160405280610363815260200161036c8152508152602001604051806040016040528061037d8152602001610383815250815260200160405180604001604052806103918152602001610392815250815260200160405180604001604052806103ac81526020016103be815250815260200160405180604001604052806103e381526020016103ea815250815260200160405180604001604052806103f681526020016103fb8152508152602001604051806040016040528061040781526020016104088152508152602001604051806040016040528061041d81526020016104298152508152602001604051806040016040528061043b815260200161043c81525081525090506000604051806104000160405280604051806040016040528060338152602001603c81525081526020016040518060400160405280606b81526020016088815250815260200160405180604001604052806091815260200160988152508152602001604051806040016040528060cb815260200160d28152508152602001604051806040016040528060f7815260200161011081525081526020016040518060400160405280610117815260200161011c8152508152602001604051806040016040528061016f815260200161017481525081526020016040518060400160405280610187815260200161019c815250815260200160405180604001604052806101a181526020016101a4815250815260200160405180604001604052806101d181526020016101d6815250815260200160405180604001604052806101f481526020016102088152508152602001604051806040016040528061020d815260200161021081525081526020016040518060400160405280610244815260200161024981525081526020016040518060400160405280610267815260200161027b815250815260200160405180604001604052806102808152602001610283815250815260200160405180604001604052806102af81526020016102b3815250815260200160405180604001604052806102cb81526020016102db815250815260200160405180604001604052806102e081526020016102e38152508152602001604051806040016040528061030e81526020016103128152508152602001604051806040016040528061032a815260200161033a8152508152602001604051806040016040528061033f81526020016103428152508152602001604051806040016040528061036d8152602001610370815250815260200160405180604001604052806103848152602001610390815250815260200160405180604001604052806103938152602001610394815250815260200160405180604001604052806103bf81526020016103c3815250815260200160405180604001604052806103cc81526020016103d6815250815260200160405180604001604052806103eb81526020016103ed815250815260200160405180604001604052806103fc815260200161040681525081526020016040518060400160405280610409815260200161040a8152508152602001604051806040016040528061042a815260200161043081525081526020016040518060400160405280610437815260200161043a8152508152602001604051806040016040528061043d815260200161043e815250815250905060006040518061034001604052806040518060400160405280603d81526020016058815250815260200160405180604001604052806099815260200160a08152508152602001604051806040016040528060d3815260200160e881525081526020016040518060400160405280610121815260200161012b815250815260200160405180604001604052806101758152602001610186815250815260200160405180604001604052806101a581526020016101ae815250815260200160405180604001604052806101d781526020016101e881525081526020016040518060400160405280610215815260200161021d8152508152602001604051806040016040528061024a815260200161025b815250815260200160405180604001604052806102888152602001610290815250815260200160405180604001604052806102b481526020016102c1815250815260200160405180604001604052806102e881526020016102ef81525081526020016040518060400160405280610244815260200161024981525081526020016040518060400160405280610267815260200161027b815250815260200160405180604001604052806102808152602001610283815250815260200160405180604001604052806102af81526020016102b381525081526020016040518060400160405280610313815260200161032081525081526020016040518060400160405280610347815260200161034e81525081526020016040518060400160405280610371815260200161037c81525081526020016040518060400160405280610397815260200161039b815250815260200160405180604001604052806103c481526020016103cb815250815260200160405180604001604052806103d781526020016103da815250815260200160405180604001604052806103ee81526020016103f58152508152602001604051806040016040528061040d81526020016104118152508152602001604051806040016040528061043181526020016104368152508152602001604051806040016040528061043f81526020016104428152508152509050600060018761257091906134f0565b905060005b60188110156126c15760008682601881106125b9577f4e487b7100000000000000000000000000000000000000000000000000000000600052603260045260246000fd5b60200201519050806000600281106125fa577f4e487b7100000000000000000000000000000000000000000000000000000000600052603260045260246000fd5b6020020151831015801561264c575080600160028110612643577f4e487b7100000000000000000000000000000000000000000000000000000000600052603260045260246000fd5b60200201518311155b15612661576001975050505050505050612ab8565b8060006002811061269b577f4e487b7100000000000000000000000000000000000000000000000000000000600052603260045260246000fd5b60200201518310156126ad57506126c1565b5080806126b990613686565b915050612575565b5060005b601e8110156128115760008582601e8110612709577f4e487b7100000000000000000000000000000000000000000000000000000000600052603260045260246000fd5b602002015190508060006002811061274a577f4e487b7100000000000000000000000000000000000000000000000000000000600052603260045260246000fd5b6020020151831015801561279c575080600160028110612793577f4e487b7100000000000000000000000000000000000000000000000000000000600052603260045260246000fd5b60200201518311155b156127b1576002975050505050505050612ab8565b806000600281106127eb577f4e487b7100000000000000000000000000000000000000000000000000000000600052603260045260246000fd5b60200201518310156127fd5750612811565b50808061280990613686565b9150506126c5565b5060005b6020811015612961576000848260208110612859577f4e487b7100000000000000000000000000000000000000000000000000000000600052603260045260246000fd5b602002015190508060006002811061289a577f4e487b7100000000000000000000000000000000000000000000000000000000600052603260045260246000fd5b602002015183101580156128ec5750806001600281106128e3577f4e487b7100000000000000000000000000000000000000000000000000000000600052603260045260246000fd5b60200201518311155b15612901576003975050505050505050612ab8565b8060006002811061293b577f4e487b7100000000000000000000000000000000000000000000000000000000600052603260045260246000fd5b602002015183101561294d5750612961565b50808061295990613686565b915050612815565b5060005b601a811015612ab15760008382601a81106129a9577f4e487b7100000000000000000000000000000000000000000000000000000000600052603260045260246000fd5b60200201519050806000600281106129ea577f4e487b7100000000000000000000000000000000000000000000000000000000600052603260045260246000fd5b60200201518310158015612a3c575080600160028110612a33577f4e487b7100000000000000000000000000000000000000000000000000000000600052603260045260246000fd5b60200201518311155b15612a51576004975050505050505050612ab8565b80600060028110612a8b577f4e487b7100000000000000000000000000000000000000000000000000000000600052603260045260246000fd5b6020020151831015612a9d5750612ab1565b508080612aa990613686565b915050612965565b5050505050505b919050565b600160028281548110612af9577f4e487b7100000000000000000000000000000000000000000000000000000000600052603260045260246000fd5b9060005260206000200154612b0e91906134f0565b60028281548110612b48577f4e487b7100000000000000000000000000000000000000000000000000000000600052603260045260246000fd5b906000526020600020018190555050565b828054612b6590613654565b90600052602060002090601f016020900481019282612b875760008555612bce565b82601f10612ba057805160ff1916838001178555612bce565b82800160010185558215612bce579182015b82811115612bcd578251825591602001919060010190612bb2565b5b509050612bdb9190612bdf565b5090565b5b80821115612bf8576000816000905550600101612be0565b5090565b6000612c0f612c0a8461344c565b61341b565b9050808382526020820190508260005b85811015612c4f5781358501612c358882612d6c565b845260208401935060208301925050600181019050612c1f565b5050509392505050565b6000612c6c612c6784613478565b61341b565b90508083825260208201905082856020860282011115612c8b57600080fd5b60005b85811015612cbb5781612ca18882612d96565b845260208401935060208301925050600181019050612c8e565b5050509392505050565b6000612cd8612cd3846134a4565b61341b565b905082815260208101848484011115612cf057600080fd5b612cfb8482856135e8565b509392505050565b600081359050612d128161376d565b92915050565b600082601f830112612d2957600080fd5b8135612d39848260208601612bfc565b91505092915050565b600082601f830112612d5357600080fd5b8135612d63848260208601612c59565b91505092915050565b600082601f830112612d7d57600080fd5b8135612d8d848260208601612cc5565b91505092915050565b600081359050612da581613784565b92915050565b600060208284031215612dbd57600080fd5b6000612dcb84828501612d03565b91505092915050565b600080600060608486031215612de957600080fd5b6000612df786828701612d03565b9350506020612e0886828701612d03565b9250506040612e1986828701612d96565b9150509250925092565b60008060408385031215612e3657600080fd5b6000612e4485828601612d03565b9250506020612e5585828601612d96565b9150509250929050565b600080600060608486031215612e7457600080fd5b600084013567ffffffffffffffff811115612e8e57600080fd5b612e9a86828701612d18565b935050602084013567ffffffffffffffff811115612eb757600080fd5b612ec386828701612d18565b925050604084013567ffffffffffffffff811115612ee057600080fd5b612eec86828701612d42565b9150509250925092565b600060208284031215612f0857600080fd5b6000612f1684828501612d96565b91505092915050565b600080600060608486031215612f3457600080fd5b6000612f4286828701612d96565b935050602084013567ffffffffffffffff811115612f5f57600080fd5b612f6b86828701612d6c565b925050604084013567ffffffffffffffff811115612f8857600080fd5b612f9486828701612d6c565b9150509250925092565b612fa7816135a0565b82525050565b612fb6816135b2565b82525050565b6000612fc7826134d4565b612fd181856134df565b9350612fe18185602086016135f7565b612fea8161375c565b840191505092915050565b60006130026029836134df565b91507f43616e6e6f74206d696e742e204172726179732061726520646966666572656e60008301527f74206c656e6774687300000000000000000000000000000000000000000000006020830152604082019050919050565b60006130686017836134df565b91507f547279696e6720746f206d696e7420746f6f206d7563680000000000000000006000830152602082019050919050565b60006130a8601c836134df565b91507f48696265726e6174696f6e20506572696f6420496e20456666656374000000006000830152602082019050919050565b60006130e8600f836134df565b91507f4e6f20646174612073656e7420696e00000000000000000000000000000000006000830152602082019050919050565b60006131286023836134df565b91507f46656520656e7465726564206973206e6f742066656520666f7220746865207360008301527f6c6f7400000000000000000000000000000000000000000000000000000000006020830152604082019050919050565b600061318e6028836134df565b91507f416c6c20736c6f747320666f72207468617420746869732073697a652062656560008301527f6e206d696e7465640000000000000000000000000000000000000000000000006020830152604082019050919050565b60006131f4601f836134df565b91507f52656163686564206d6178696d756d206e756d626572206f66206564697473006000830152602082019050919050565b613230816135de565b82525050565b600060208201905061324b6000830184612f9e565b92915050565b60006020820190506132666000830184612fad565b92915050565b6000602082019050818103600083015261328581612ff5565b9050919050565b600060208201905081810360008301526132a58161305b565b9050919050565b600060208201905081810360008301526132c58161309b565b9050919050565b600060208201905081810360008301526132e5816130db565b9050919050565b600060208201905081810360008301526133058161311b565b9050919050565b6000602082019050818103600083015261332581613181565b9050919050565b60006020820190508181036000830152613345816131e7565b9050919050565b60006020820190506133616000830184613227565b92915050565b600060608201905061337c6000830186613227565b818103602083015261338e8185612fbc565b905081810360408301526133a28184612fbc565b9050949350505050565b600060c0820190506133c16000830189613227565b81810360208301526133d38188612fbc565b905081810360408301526133e78187612fbc565b90506133f66060830186613227565b6134036080830185613227565b61341060a0830184613227565b979650505050505050565b6000604051905081810181811067ffffffffffffffff821117156134425761344161372d565b5b8060405250919050565b600067ffffffffffffffff8211156134675761346661372d565b5b602082029050602081019050919050565b600067ffffffffffffffff8211156134935761349261372d565b5b602082029050602081019050919050565b600067ffffffffffffffff8211156134bf576134be61372d565b5b601f19601f8301169050602081019050919050565b600081519050919050565b600082825260208201905092915050565b60006134fb826135de565b9150613506836135de565b9250827fffffffffffffffffffffffffffffffffffffffffffffffffffffffffffffffff0382111561353b5761353a6136cf565b5b828201905092915050565b6000613551826135de565b915061355c836135de565b9250817fffffffffffffffffffffffffffffffffffffffffffffffffffffffffffffffff0483118215151615613595576135946136cf565b5b828202905092915050565b60006135ab826135be565b9050919050565b60008115159050919050565b600073ffffffffffffffffffffffffffffffffffffffff82169050919050565b6000819050919050565b82818337600083830152505050565b60005b838110156136155780820151818401526020810190506135fa565b83811115613624576000848401525b50505050565b6000613635826135de565b91506000821415613649576136486136cf565b5b600182039050919050565b6000600282049050600182168061366c57607f821691505b602082108114156136805761367f6136fe565b5b50919050565b6000613691826135de565b91507fffffffffffffffffffffffffffffffffffffffffffffffffffffffffffffffff8214156136c4576136c36136cf565b5b600182019050919050565b7f4e487b7100000000000000000000000000000000000000000000000000000000600052601160045260246000fd5b7f4e487b7100000000000000000000000000000000000000000000000000000000600052602260045260246000fd5b7f4e487b7100000000000000000000000000000000000000000000000000000000600052604160045260246000fd5b6000601f19601f8301169050919050565b613776816135a0565b811461378157600080fd5b50565b61378d816135de565b811461379857600080fd5b5056fea264697066735822122071d8fb7e1073b4b9642e027c7caa12f5b775a8836e7015e75eb64152af725ddf64736f6c63430008000033",
          "opcodes": "PUSH1 0x80 PUSH1 0x40 MSTORE PUSH1 0x40 MLOAD DUP1 PUSH2 0x100 ADD PUSH1 0x40 MSTORE DUP1 PUSH1 0xA0 PUSH2 0xFFFF AND DUP2 MSTORE PUSH1 0x20 ADD PUSH1 0xC8 PUSH2 0xFFFF AND DUP2 MSTORE PUSH1 0x20 ADD PUSH2 0x12C PUSH2 0xFFFF AND DUP2 MSTORE PUSH1 0x20 ADD PUSH1 0xC8 PUSH2 0xFFFF AND DUP2 MSTORE PUSH1 0x20 ADD PUSH1 0x64 PUSH2 0xFFFF AND DUP2 MSTORE PUSH1 0x20 ADD PUSH1 0x64 PUSH2 0xFFFF AND DUP2 MSTORE PUSH1 0x20 ADD PUSH1 0x1C PUSH2 0xFFFF AND DUP2 MSTORE PUSH1 0x20 ADD PUSH1 0x2 PUSH2 0xFFFF AND DUP2 MSTORE POP PUSH1 0x1 SWAP1 PUSH1 0x8 PUSH3 0x79 SWAP3 SWAP2 SWAP1 PUSH3 0x37A JUMP JUMPDEST POP PUSH1 0x40 MLOAD DUP1 PUSH2 0x100 ADD PUSH1 0x40 MSTORE DUP1 PUSH1 0x0 PUSH1 0xFF AND DUP2 MSTORE PUSH1 0x20 ADD PUSH1 0x0 PUSH1 0xFF AND DUP2 MSTORE PUSH1 0x20 ADD PUSH1 0x0 PUSH1 0xFF AND DUP2 MSTORE PUSH1 0x20 ADD PUSH1 0x0 PUSH1 0xFF AND DUP2 MSTORE PUSH1 0x20 ADD PUSH1 0x0 PUSH1 0xFF AND DUP2 MSTORE PUSH1 0x20 ADD PUSH1 0x0 PUSH1 0xFF AND DUP2 MSTORE PUSH1 0x20 ADD PUSH1 0x0 PUSH1 0xFF AND DUP2 MSTORE PUSH1 0x20 ADD PUSH1 0x0 PUSH1 0xFF AND DUP2 MSTORE POP PUSH1 0x2 SWAP1 PUSH1 0x8 PUSH3 0xE6 SWAP3 SWAP2 SWAP1 PUSH3 0x3D2 JUMP JUMPDEST POP PUSH1 0x40 MLOAD DUP1 PUSH2 0x100 ADD PUSH1 0x40 MSTORE DUP1 PUSH7 0x6A94D74F430000 PUSH8 0xFFFFFFFFFFFFFFFF AND DUP2 MSTORE PUSH1 0x20 ADD PUSH7 0xB1A2BC2EC50000 PUSH8 0xFFFFFFFFFFFFFFFF AND DUP2 MSTORE PUSH1 0x20 ADD PUSH8 0x11C37937E080000 PUSH8 0xFFFFFFFFFFFFFFFF AND DUP2 MSTORE PUSH1 0x20 ADD PUSH8 0x186CC6ACD4B0000 PUSH8 0xFFFFFFFFFFFFFFFF AND DUP2 MSTORE PUSH1 0x20 ADD PUSH8 0x25BF6196BD10000 PUSH8 0xFFFFFFFFFFFFFFFF AND DUP2 MSTORE PUSH1 0x20 ADD PUSH8 0x2C68AF0BB140000 PUSH8 0xFFFFFFFFFFFFFFFF AND DUP2 MSTORE PUSH1 0x20 ADD PUSH8 0x3782DACE9D90000 PUSH8 0xFFFFFFFFFFFFFFFF AND DUP2 MSTORE PUSH1 0x20 ADD PUSH8 0x429D069189E0000 PUSH8 0xFFFFFFFFFFFFFFFF AND DUP2 MSTORE POP PUSH1 0x3 SWAP1 PUSH1 0x8 PUSH3 0x1C1 SWAP3 SWAP2 SWAP1 PUSH3 0x429 JUMP JUMPDEST POP PUSH1 0x40 MLOAD DUP1 PUSH2 0x160 ADD PUSH1 0x40 MSTORE DUP1 PUSH1 0x40 MLOAD DUP1 PUSH1 0x40 ADD PUSH1 0x40 MSTORE DUP1 PUSH1 0x1 DUP2 MSTORE PUSH1 0x20 ADD PUSH1 0xA0 DUP2 MSTORE POP DUP2 MSTORE PUSH1 0x20 ADD PUSH1 0x40 MLOAD DUP1 PUSH1 0x40 ADD PUSH1 0x40 MSTORE DUP1 PUSH1 0xA1 DUP2 MSTORE PUSH1 0x20 ADD PUSH2 0x130 DUP2 MSTORE POP DUP2 MSTORE PUSH1 0x20 ADD PUSH1 0x40 MLOAD DUP1 PUSH1 0x40 ADD PUSH1 0x40 MSTORE DUP1 PUSH2 0x131 DUP2 MSTORE PUSH1 0x20 ADD PUSH2 0x1AE DUP2 MSTORE POP DUP2 MSTORE PUSH1 0x20 ADD PUSH1 0x40 MLOAD DUP1 PUSH1 0x40 ADD PUSH1 0x40 MSTORE DUP1 PUSH2 0x1AF DUP2 MSTORE PUSH1 0x20 ADD PUSH2 0x221 DUP2 MSTORE POP DUP2 MSTORE PUSH1 0x20 ADD PUSH1 0x40 MLOAD DUP1 PUSH1 0x40 ADD PUSH1 0x40 MSTORE DUP1 PUSH2 0x222 DUP2 MSTORE PUSH1 0x20 ADD PUSH2 0x294 DUP2 MSTORE POP DUP2 MSTORE PUSH1 0x20 ADD PUSH1 0x40 MLOAD DUP1 PUSH1 0x40 ADD PUSH1 0x40 MSTORE DUP1 PUSH2 0x295 DUP2 MSTORE PUSH1 0x20 ADD PUSH2 0x2F3 DUP2 MSTORE POP DUP2 MSTORE PUSH1 0x20 ADD PUSH1 0x40 MLOAD DUP1 PUSH1 0x40 ADD PUSH1 0x40 MSTORE DUP1 PUSH2 0x2F4 DUP2 MSTORE PUSH1 0x20 ADD PUSH2 0x352 DUP2 MSTORE POP DUP2 MSTORE PUSH1 0x20 ADD PUSH1 0x40 MLOAD DUP1 PUSH1 0x40 ADD PUSH1 0x40 MSTORE DUP1 PUSH2 0x353 DUP2 MSTORE PUSH1 0x20 ADD PUSH2 0x39B DUP2 MSTORE POP DUP2 MSTORE PUSH1 0x20 ADD PUSH1 0x40 MLOAD DUP1 PUSH1 0x40 ADD PUSH1 0x40 MSTORE DUP1 PUSH2 0x39C DUP2 MSTORE PUSH1 0x20 ADD PUSH2 0x3DA DUP2 MSTORE POP DUP2 MSTORE PUSH1 0x20 ADD PUSH1 0x40 MLOAD DUP1 PUSH1 0x40 ADD PUSH1 0x40 MSTORE DUP1 PUSH2 0x3DB DUP2 MSTORE PUSH1 0x20 ADD PUSH2 0x411 DUP2 MSTORE POP DUP2 MSTORE PUSH1 0x20 ADD PUSH1 0x40 MLOAD DUP1 PUSH1 0x40 ADD PUSH1 0x40 MSTORE DUP1 PUSH2 0x412 DUP2 MSTORE PUSH1 0x20 ADD PUSH2 0x442 DUP2 MSTORE POP DUP2 MSTORE POP PUSH1 0x4 SWAP1 PUSH1 0xB PUSH3 0x325 SWAP3 SWAP2 SWAP1 PUSH3 0x487 JUMP JUMPDEST POP CALLVALUE DUP1 ISZERO PUSH3 0x333 JUMPI PUSH1 0x0 DUP1 REVERT JUMPDEST POP CALLER PUSH1 0x0 DUP1 PUSH2 0x100 EXP DUP2 SLOAD DUP2 PUSH20 0xFFFFFFFFFFFFFFFFFFFFFFFFFFFFFFFFFFFFFFFF MUL NOT AND SWAP1 DUP4 PUSH20 0xFFFFFFFFFFFFFFFFFFFFFFFFFFFFFFFFFFFFFFFF AND MUL OR SWAP1 SSTORE POP PUSH3 0x5A5 JUMP JUMPDEST DUP3 DUP1 SLOAD DUP3 DUP3 SSTORE SWAP1 PUSH1 0x0 MSTORE PUSH1 0x20 PUSH1 0x0 KECCAK256 SWAP1 DUP2 ADD SWAP3 DUP3 ISZERO PUSH3 0x3BF JUMPI SWAP2 PUSH1 0x20 MUL DUP3 ADD JUMPDEST DUP3 DUP2 GT ISZERO PUSH3 0x3BE JUMPI DUP3 MLOAD DUP3 SWAP1 PUSH2 0xFFFF AND SWAP1 SSTORE SWAP2 PUSH1 0x20 ADD SWAP2 SWAP1 PUSH1 0x1 ADD SWAP1 PUSH3 0x39B JUMP JUMPDEST JUMPDEST POP SWAP1 POP PUSH3 0x3CE SWAP2 SWAP1 PUSH3 0x4E9 JUMP JUMPDEST POP SWAP1 JUMP JUMPDEST DUP3 DUP1 SLOAD DUP3 DUP3 SSTORE SWAP1 PUSH1 0x0 MSTORE PUSH1 0x20 PUSH1 0x0 KECCAK256 SWAP1 DUP2 ADD SWAP3 DUP3 ISZERO PUSH3 0x416 JUMPI SWAP2 PUSH1 0x20 MUL DUP3 ADD JUMPDEST DUP3 DUP2 GT ISZERO PUSH3 0x415 JUMPI DUP3 MLOAD DUP3 SWAP1 PUSH1 0xFF AND SWAP1 SSTORE SWAP2 PUSH1 0x20 ADD SWAP2 SWAP1 PUSH1 0x1 ADD SWAP1 PUSH3 0x3F3 JUMP JUMPDEST JUMPDEST POP SWAP1 POP PUSH3 0x425 SWAP2 SWAP1 PUSH3 0x4E9 JUMP JUMPDEST POP SWAP1 JUMP JUMPDEST DUP3 DUP1 SLOAD DUP3 DUP3 SSTORE SWAP1 PUSH1 0x0 MSTORE PUSH1 0x20 PUSH1 0x0 KECCAK256 SWAP1 DUP2 ADD SWAP3 DUP3 ISZERO PUSH3 0x474 JUMPI SWAP2 PUSH1 0x20 MUL DUP3 ADD JUMPDEST DUP3 DUP2 GT ISZERO PUSH3 0x473 JUMPI DUP3 MLOAD DUP3 SWAP1 PUSH8 0xFFFFFFFFFFFFFFFF AND SWAP1 SSTORE SWAP2 PUSH1 0x20 ADD SWAP2 SWAP1 PUSH1 0x1 ADD SWAP1 PUSH3 0x44A JUMP JUMPDEST JUMPDEST POP SWAP1 POP PUSH3 0x483 SWAP2 SWAP1 PUSH3 0x4E9 JUMP JUMPDEST POP SWAP1 JUMP JUMPDEST DUP3 DUP1 SLOAD DUP3 DUP3 SSTORE SWAP1 PUSH1 0x0 MSTORE PUSH1 0x20 PUSH1 0x0 KECCAK256 SWAP1 DUP2 ADD SWAP3 DUP3 ISZERO PUSH3 0x4D6 JUMPI SWAP2 PUSH1 0x20 MUL DUP3 ADD JUMPDEST DUP3 DUP2 GT ISZERO PUSH3 0x4D5 JUMPI DUP3 MLOAD DUP3 SWAP1 PUSH1 0x2 PUSH3 0x4C4 SWAP3 SWAP2 SWAP1 PUSH3 0x508 JUMP JUMPDEST POP SWAP2 PUSH1 0x20 ADD SWAP2 SWAP1 PUSH1 0x1 ADD SWAP1 PUSH3 0x4A8 JUMP JUMPDEST JUMPDEST POP SWAP1 POP PUSH3 0x4E5 SWAP2 SWAP1 PUSH3 0x55A JUMP JUMPDEST POP SWAP1 JUMP JUMPDEST JUMPDEST DUP1 DUP3 GT ISZERO PUSH3 0x504 JUMPI PUSH1 0x0 DUP2 PUSH1 0x0 SWAP1 SSTORE POP PUSH1 0x1 ADD PUSH3 0x4EA JUMP JUMPDEST POP SWAP1 JUMP JUMPDEST DUP3 DUP1 SLOAD DUP3 DUP3 SSTORE SWAP1 PUSH1 0x0 MSTORE PUSH1 0x20 PUSH1 0x0 KECCAK256 SWAP1 DUP2 ADD SWAP3 DUP3 ISZERO PUSH3 0x547 JUMPI SWAP2 PUSH1 0x20 MUL DUP3 ADD JUMPDEST DUP3 DUP2 GT ISZERO PUSH3 0x546 JUMPI DUP3 MLOAD DUP3 SSTORE SWAP2 PUSH1 0x20 ADD SWAP2 SWAP1 PUSH1 0x1 ADD SWAP1 PUSH3 0x529 JUMP JUMPDEST JUMPDEST POP SWAP1 POP PUSH3 0x556 SWAP2 SWAP1 PUSH3 0x4E9 JUMP JUMPDEST POP SWAP1 JUMP JUMPDEST JUMPDEST DUP1 DUP3 GT ISZERO PUSH3 0x57E JUMPI PUSH1 0x0 DUP2 DUP2 PUSH3 0x574 SWAP2 SWAP1 PUSH3 0x582 JUMP JUMPDEST POP PUSH1 0x1 ADD PUSH3 0x55B JUMP JUMPDEST POP SWAP1 JUMP JUMPDEST POP DUP1 SLOAD PUSH1 0x0 DUP3 SSTORE SWAP1 PUSH1 0x0 MSTORE PUSH1 0x20 PUSH1 0x0 KECCAK256 SWAP1 DUP2 ADD SWAP1 PUSH3 0x5A2 SWAP2 SWAP1 PUSH3 0x4E9 JUMP JUMPDEST POP JUMP JUMPDEST PUSH2 0x37D1 DUP1 PUSH3 0x5B5 PUSH1 0x0 CODECOPY PUSH1 0x0 RETURN INVALID PUSH1 0x80 PUSH1 0x40 MSTORE PUSH1 0x4 CALLDATASIZE LT PUSH2 0xF3 JUMPI PUSH1 0x0 CALLDATALOAD PUSH1 0xE0 SHR DUP1 PUSH4 0x6551D381 GT PUSH2 0x8A JUMPI DUP1 PUSH4 0x8DA5CB5B GT PUSH2 0x59 JUMPI DUP1 PUSH4 0x8DA5CB5B EQ PUSH2 0x317 JUMPI DUP1 PUSH4 0x8F32D59B EQ PUSH2 0x342 JUMPI DUP1 PUSH4 0xF2FDE38B EQ PUSH2 0x36D JUMPI DUP1 PUSH4 0xF6FC7E05 EQ PUSH2 0x396 JUMPI PUSH2 0xF3 JUMP JUMPDEST DUP1 PUSH4 0x6551D381 EQ PUSH2 0x27E JUMPI DUP1 PUSH4 0x70A08231 EQ PUSH2 0x29A JUMPI DUP1 PUSH4 0x715018A6 EQ PUSH2 0x2D7 JUMPI DUP1 PUSH4 0x8C73BD6B EQ PUSH2 0x2EE JUMPI PUSH2 0xF3 JUMP JUMPDEST DUP1 PUSH4 0x3B90A698 GT PUSH2 0xC6 JUMPI DUP1 PUSH4 0x3B90A698 EQ PUSH2 0x1B0 JUMPI DUP1 PUSH4 0x3CCFD60B EQ PUSH2 0x1D9 JUMPI DUP1 PUSH4 0x6352211E EQ PUSH2 0x204 JUMPI DUP1 PUSH4 0x64D4EEAB EQ PUSH2 0x241 JUMPI PUSH2 0xF3 JUMP JUMPDEST DUP1 PUSH4 0x70C46C5 EQ PUSH2 0xF8 JUMPI DUP1 PUSH4 0x95EA7B3 EQ PUSH2 0x121 JUMPI DUP1 PUSH4 0xC10E499 EQ PUSH2 0x14A JUMPI DUP1 PUSH4 0x23B872DD EQ PUSH2 0x187 JUMPI JUMPDEST PUSH1 0x0 DUP1 REVERT JUMPDEST CALLVALUE DUP1 ISZERO PUSH2 0x104 JUMPI PUSH1 0x0 DUP1 REVERT JUMPDEST POP PUSH2 0x11F PUSH1 0x4 DUP1 CALLDATASIZE SUB DUP2 ADD SWAP1 PUSH2 0x11A SWAP2 SWAP1 PUSH2 0x2EF6 JUMP JUMPDEST PUSH2 0x3BF JUMP JUMPDEST STOP JUMPDEST CALLVALUE DUP1 ISZERO PUSH2 0x12D JUMPI PUSH1 0x0 DUP1 REVERT JUMPDEST POP PUSH2 0x148 PUSH1 0x4 DUP1 CALLDATASIZE SUB DUP2 ADD SWAP1 PUSH2 0x143 SWAP2 SWAP1 PUSH2 0x2E23 JUMP JUMPDEST PUSH2 0x422 JUMP JUMPDEST STOP JUMPDEST CALLVALUE DUP1 ISZERO PUSH2 0x156 JUMPI PUSH1 0x0 DUP1 REVERT JUMPDEST POP PUSH2 0x171 PUSH1 0x4 DUP1 CALLDATASIZE SUB DUP2 ADD SWAP1 PUSH2 0x16C SWAP2 SWAP1 PUSH2 0x2EF6 JUMP JUMPDEST PUSH2 0x542 JUMP JUMPDEST PUSH1 0x40 MLOAD PUSH2 0x17E SWAP2 SWAP1 PUSH2 0x3236 JUMP JUMPDEST PUSH1 0x40 MLOAD DUP1 SWAP2 SUB SWAP1 RETURN JUMPDEST CALLVALUE DUP1 ISZERO PUSH2 0x193 JUMPI PUSH1 0x0 DUP1 REVERT JUMPDEST POP PUSH2 0x1AE PUSH1 0x4 DUP1 CALLDATASIZE SUB DUP2 ADD SWAP1 PUSH2 0x1A9 SWAP2 SWAP1 PUSH2 0x2DD4 JUMP JUMPDEST PUSH2 0x576 JUMP JUMPDEST STOP JUMPDEST CALLVALUE DUP1 ISZERO PUSH2 0x1BC JUMPI PUSH1 0x0 DUP1 REVERT JUMPDEST POP PUSH2 0x1D7 PUSH1 0x4 DUP1 CALLDATASIZE SUB DUP2 ADD SWAP1 PUSH2 0x1D2 SWAP2 SWAP1 PUSH2 0x2F1F JUMP JUMPDEST PUSH2 0x74A JUMP JUMPDEST STOP JUMPDEST CALLVALUE DUP1 ISZERO PUSH2 0x1E5 JUMPI PUSH1 0x0 DUP1 REVERT JUMPDEST POP PUSH2 0x1EE PUSH2 0x75A JUMP JUMPDEST PUSH1 0x40 MLOAD PUSH2 0x1FB SWAP2 SWAP1 PUSH2 0x3251 JUMP JUMPDEST PUSH1 0x40 MLOAD DUP1 SWAP2 SUB SWAP1 RETURN JUMPDEST CALLVALUE DUP1 ISZERO PUSH2 0x210 JUMPI PUSH1 0x0 DUP1 REVERT JUMPDEST POP PUSH2 0x22B PUSH1 0x4 DUP1 CALLDATASIZE SUB DUP2 ADD SWAP1 PUSH2 0x226 SWAP2 SWAP1 PUSH2 0x2EF6 JUMP JUMPDEST PUSH2 0x7C1 JUMP JUMPDEST PUSH1 0x40 MLOAD PUSH2 0x238 SWAP2 SWAP1 PUSH2 0x3236 JUMP JUMPDEST PUSH1 0x40 MLOAD DUP1 SWAP2 SUB SWAP1 RETURN JUMPDEST CALLVALUE DUP1 ISZERO PUSH2 0x24D JUMPI PUSH1 0x0 DUP1 REVERT JUMPDEST POP PUSH2 0x268 PUSH1 0x4 DUP1 CALLDATASIZE SUB DUP2 ADD SWAP1 PUSH2 0x263 SWAP2 SWAP1 PUSH2 0x2EF6 JUMP JUMPDEST PUSH2 0x7FF JUMP JUMPDEST PUSH1 0x40 MLOAD PUSH2 0x275 SWAP2 SWAP1 PUSH2 0x3236 JUMP JUMPDEST PUSH1 0x40 MLOAD DUP1 SWAP2 SUB SWAP1 RETURN JUMPDEST PUSH2 0x298 PUSH1 0x4 DUP1 CALLDATASIZE SUB DUP2 ADD SWAP1 PUSH2 0x293 SWAP2 SWAP1 PUSH2 0x2E5F JUMP JUMPDEST PUSH2 0x83D JUMP JUMPDEST STOP JUMPDEST CALLVALUE DUP1 ISZERO PUSH2 0x2A6 JUMPI PUSH1 0x0 DUP1 REVERT JUMPDEST POP PUSH2 0x2C1 PUSH1 0x4 DUP1 CALLDATASIZE SUB DUP2 ADD SWAP1 PUSH2 0x2BC SWAP2 SWAP1 PUSH2 0x2DAB JUMP JUMPDEST PUSH2 0xA9F JUMP JUMPDEST PUSH1 0x40 MLOAD PUSH2 0x2CE SWAP2 SWAP1 PUSH2 0x334C JUMP JUMPDEST PUSH1 0x40 MLOAD DUP1 SWAP2 SUB SWAP1 RETURN JUMPDEST CALLVALUE DUP1 ISZERO PUSH2 0x2E3 JUMPI PUSH1 0x0 DUP1 REVERT JUMPDEST POP PUSH2 0x2EC PUSH2 0xAE9 JUMP JUMPDEST STOP JUMPDEST CALLVALUE DUP1 ISZERO PUSH2 0x2FA JUMPI PUSH1 0x0 DUP1 REVERT JUMPDEST POP PUSH2 0x315 PUSH1 0x4 DUP1 CALLDATASIZE SUB DUP2 ADD SWAP1 PUSH2 0x310 SWAP2 SWAP1 PUSH2 0x2EF6 JUMP JUMPDEST PUSH2 0xBA0 JUMP JUMPDEST STOP JUMPDEST CALLVALUE DUP1 ISZERO PUSH2 0x323 JUMPI PUSH1 0x0 DUP1 REVERT JUMPDEST POP PUSH2 0x32C PUSH2 0xBF4 JUMP JUMPDEST PUSH1 0x40 MLOAD PUSH2 0x339 SWAP2 SWAP1 PUSH2 0x3236 JUMP JUMPDEST PUSH1 0x40 MLOAD DUP1 SWAP2 SUB SWAP1 RETURN JUMPDEST CALLVALUE DUP1 ISZERO PUSH2 0x34E JUMPI PUSH1 0x0 DUP1 REVERT JUMPDEST POP PUSH2 0x357 PUSH2 0xC1D JUMP JUMPDEST PUSH1 0x40 MLOAD PUSH2 0x364 SWAP2 SWAP1 PUSH2 0x3251 JUMP JUMPDEST PUSH1 0x40 MLOAD DUP1 SWAP2 SUB SWAP1 RETURN JUMPDEST CALLVALUE DUP1 ISZERO PUSH2 0x379 JUMPI PUSH1 0x0 DUP1 REVERT JUMPDEST POP PUSH2 0x394 PUSH1 0x4 DUP1 CALLDATASIZE SUB DUP2 ADD SWAP1 PUSH2 0x38F SWAP2 SWAP1 PUSH2 0x2DAB JUMP JUMPDEST PUSH2 0xC74 JUMP JUMPDEST STOP JUMPDEST CALLVALUE DUP1 ISZERO PUSH2 0x3A2 JUMPI PUSH1 0x0 DUP1 REVERT JUMPDEST POP PUSH2 0x3BD PUSH1 0x4 DUP1 CALLDATASIZE SUB DUP2 ADD SWAP1 PUSH2 0x3B8 SWAP2 SWAP1 PUSH2 0x2EF6 JUMP JUMPDEST PUSH2 0xC91 JUMP JUMPDEST STOP JUMPDEST PUSH2 0x3C7 PUSH2 0xC1D JUMP JUMPDEST PUSH2 0x3D0 JUMPI PUSH1 0x0 DUP1 REVERT JUMPDEST DUP1 PUSH4 0x1E13380 PUSH2 0x3E0 SWAP2 SWAP1 PUSH2 0x3546 JUMP JUMPDEST PUSH2 0x1DD5 DUP2 SWAP1 SSTORE POP PUSH32 0x48D5B81F805AB9C28EE208AF32DC0B2370401EDD015E57BF3D4868D4AAC92A4A PUSH1 0x1 PUSH1 0x40 MLOAD PUSH2 0x417 SWAP2 SWAP1 PUSH2 0x3251 JUMP JUMPDEST PUSH1 0x40 MLOAD DUP1 SWAP2 SUB SWAP1 LOG1 POP JUMP JUMPDEST DUP1 PUSH2 0x1DD6 PUSH1 0x0 DUP3 DUP2 MSTORE PUSH1 0x20 ADD SWAP1 DUP2 MSTORE PUSH1 0x20 ADD PUSH1 0x0 KECCAK256 PUSH1 0x0 SWAP1 SLOAD SWAP1 PUSH2 0x100 EXP SWAP1 DIV PUSH20 0xFFFFFFFFFFFFFFFFFFFFFFFFFFFFFFFFFFFFFFFF AND PUSH20 0xFFFFFFFFFFFFFFFFFFFFFFFFFFFFFFFFFFFFFFFF AND CALLER PUSH20 0xFFFFFFFFFFFFFFFFFFFFFFFFFFFFFFFFFFFFFFFF AND EQ PUSH2 0x48F JUMPI PUSH1 0x0 DUP1 REVERT JUMPDEST DUP3 PUSH2 0x1DD9 PUSH1 0x0 DUP5 DUP2 MSTORE PUSH1 0x20 ADD SWAP1 DUP2 MSTORE PUSH1 0x20 ADD PUSH1 0x0 KECCAK256 PUSH1 0x0 PUSH2 0x100 EXP DUP2 SLOAD DUP2 PUSH20 0xFFFFFFFFFFFFFFFFFFFFFFFFFFFFFFFFFFFFFFFF MUL NOT AND SWAP1 DUP4 PUSH20 0xFFFFFFFFFFFFFFFFFFFFFFFFFFFFFFFFFFFFFFFF AND MUL OR SWAP1 SSTORE POP DUP2 DUP4 PUSH20 0xFFFFFFFFFFFFFFFFFFFFFFFFFFFFFFFFFFFFFFFF AND CALLER PUSH20 0xFFFFFFFFFFFFFFFFFFFFFFFFFFFFFFFFFFFFFFFF AND PUSH32 0x8C5BE1E5EBEC7D5BD14F71427D1E84F3DD0314C0F7B2291E5B200AC8C7C3B925 PUSH1 0x40 MLOAD PUSH1 0x40 MLOAD DUP1 SWAP2 SUB SWAP1 LOG4 POP POP POP JUMP JUMPDEST PUSH2 0x1DD6 PUSH1 0x20 MSTORE DUP1 PUSH1 0x0 MSTORE PUSH1 0x40 PUSH1 0x0 KECCAK256 PUSH1 0x0 SWAP2 POP SLOAD SWAP1 PUSH2 0x100 EXP SWAP1 DIV PUSH20 0xFFFFFFFFFFFFFFFFFFFFFFFFFFFFFFFFFFFFFFFF AND DUP2 JUMP JUMPDEST CALLER PUSH20 0xFFFFFFFFFFFFFFFFFFFFFFFFFFFFFFFFFFFFFFFF AND PUSH2 0x1DD6 PUSH1 0x0 DUP4 DUP2 MSTORE PUSH1 0x20 ADD SWAP1 DUP2 MSTORE PUSH1 0x20 ADD PUSH1 0x0 KECCAK256 PUSH1 0x0 SWAP1 SLOAD SWAP1 PUSH2 0x100 EXP SWAP1 DIV PUSH20 0xFFFFFFFFFFFFFFFFFFFFFFFFFFFFFFFFFFFFFFFF AND PUSH20 0xFFFFFFFFFFFFFFFFFFFFFFFFFFFFFFFFFFFFFFFF AND EQ DUP1 PUSH2 0x643 JUMPI POP CALLER PUSH20 0xFFFFFFFFFFFFFFFFFFFFFFFFFFFFFFFFFFFFFFFF AND PUSH2 0x1DD9 PUSH1 0x0 DUP4 DUP2 MSTORE PUSH1 0x20 ADD SWAP1 DUP2 MSTORE PUSH1 0x20 ADD PUSH1 0x0 KECCAK256 PUSH1 0x0 SWAP1 SLOAD SWAP1 PUSH2 0x100 EXP SWAP1 DIV PUSH20 0xFFFFFFFFFFFFFFFFFFFFFFFFFFFFFFFFFFFFFFFF AND PUSH20 0xFFFFFFFFFFFFFFFFFFFFFFFFFFFFFFFFFFFFFFFF AND EQ JUMPDEST PUSH2 0x64C JUMPI PUSH1 0x0 DUP1 REVERT JUMPDEST PUSH1 0x1 ISZERO ISZERO PUSH2 0x658 PUSH2 0xCF4 JUMP JUMPDEST ISZERO ISZERO EQ PUSH2 0x69A JUMPI PUSH1 0x40 MLOAD PUSH32 0x8C379A000000000000000000000000000000000000000000000000000000000 DUP2 MSTORE PUSH1 0x4 ADD PUSH2 0x691 SWAP1 PUSH2 0x32AC JUMP JUMPDEST PUSH1 0x40 MLOAD DUP1 SWAP2 SUB SWAP1 REVERT JUMPDEST PUSH1 0x0 PUSH1 0x5 DUP3 PUSH2 0x442 DUP2 LT PUSH2 0x6D7 JUMPI PUSH32 0x4E487B7100000000000000000000000000000000000000000000000000000000 PUSH1 0x0 MSTORE PUSH1 0x32 PUSH1 0x4 MSTORE PUSH1 0x24 PUSH1 0x0 REVERT JUMPDEST PUSH1 0x7 MUL ADD SWAP1 POP DUP3 PUSH2 0x1DD6 PUSH1 0x0 DUP5 DUP2 MSTORE PUSH1 0x20 ADD SWAP1 DUP2 MSTORE PUSH1 0x20 ADD PUSH1 0x0 KECCAK256 PUSH1 0x0 PUSH2 0x100 EXP DUP2 SLOAD DUP2 PUSH20 0xFFFFFFFFFFFFFFFFFFFFFFFFFFFFFFFFFFFFFFFF MUL NOT AND SWAP1 DUP4 PUSH20 0xFFFFFFFFFFFFFFFFFFFFFFFFFFFFFFFFFFFFFFFF AND MUL OR SWAP1 SSTORE POP PUSH2 0x739 DUP2 PUSH2 0xD6F JUMP JUMPDEST PUSH2 0x744 DUP5 DUP5 DUP5 PUSH2 0xD7C JUMP JUMPDEST POP POP POP POP JUMP JUMPDEST PUSH2 0x755 DUP4 DUP4 DUP4 PUSH2 0xE88 JUMP JUMPDEST POP POP POP JUMP JUMPDEST PUSH1 0x0 PUSH2 0x764 PUSH2 0xC1D JUMP JUMPDEST PUSH2 0x76D JUMPI PUSH1 0x0 DUP1 REVERT JUMPDEST PUSH1 0x0 CALLER SWAP1 POP DUP1 PUSH20 0xFFFFFFFFFFFFFFFFFFFFFFFFFFFFFFFFFFFFFFFF AND PUSH2 0x8FC SELFBALANCE SWAP1 DUP2 ISZERO MUL SWAP1 PUSH1 0x40 MLOAD PUSH1 0x0 PUSH1 0x40 MLOAD DUP1 DUP4 SUB DUP2 DUP6 DUP9 DUP9 CALL SWAP4 POP POP POP POP ISZERO DUP1 ISZERO PUSH2 0x7B8 JUMPI RETURNDATASIZE PUSH1 0x0 DUP1 RETURNDATACOPY RETURNDATASIZE PUSH1 0x0 REVERT JUMPDEST POP PUSH1 0x1 SWAP2 POP POP SWAP1 JUMP JUMPDEST PUSH1 0x0 PUSH2 0x1DD6 PUSH1 0x0 DUP4 DUP2 MSTORE PUSH1 0x20 ADD SWAP1 DUP2 MSTORE PUSH1 0x20 ADD PUSH1 0x0 KECCAK256 PUSH1 0x0 SWAP1 SLOAD SWAP1 PUSH2 0x100 EXP SWAP1 DIV PUSH20 0xFFFFFFFFFFFFFFFFFFFFFFFFFFFFFFFFFFFFFFFF AND SWAP1 POP SWAP2 SWAP1 POP JUMP JUMPDEST PUSH1 0x0 PUSH2 0x1DD6 PUSH1 0x0 DUP4 DUP2 MSTORE PUSH1 0x20 ADD SWAP1 DUP2 MSTORE PUSH1 0x20 ADD PUSH1 0x0 KECCAK256 PUSH1 0x0 SWAP1 SLOAD SWAP1 PUSH2 0x100 EXP SWAP1 DIV PUSH20 0xFFFFFFFFFFFFFFFFFFFFFFFFFFFFFFFFFFFFFFFF AND SWAP1 POP SWAP2 SWAP1 POP JUMP JUMPDEST PUSH1 0x1 ISZERO ISZERO PUSH2 0x84A DUP3 PUSH2 0x105B JUMP JUMPDEST ISZERO ISZERO EQ PUSH2 0x88C JUMPI PUSH1 0x40 MLOAD PUSH32 0x8C379A000000000000000000000000000000000000000000000000000000000 DUP2 MSTORE PUSH1 0x4 ADD PUSH2 0x883 SWAP1 PUSH2 0x32EC JUMP JUMPDEST PUSH1 0x40 MLOAD DUP1 SWAP2 SUB SWAP1 REVERT JUMPDEST DUP2 MLOAD DUP4 MLOAD EQ PUSH2 0x8D0 JUMPI PUSH1 0x40 MLOAD PUSH32 0x8C379A000000000000000000000000000000000000000000000000000000000 DUP2 MSTORE PUSH1 0x4 ADD PUSH2 0x8C7 SWAP1 PUSH2 0x326C JUMP JUMPDEST PUSH1 0x40 MLOAD DUP1 SWAP2 SUB SWAP1 REVERT JUMPDEST DUP1 MLOAD DUP3 MLOAD EQ PUSH2 0x914 JUMPI PUSH1 0x40 MLOAD PUSH32 0x8C379A000000000000000000000000000000000000000000000000000000000 DUP2 MSTORE PUSH1 0x4 ADD PUSH2 0x90B SWAP1 PUSH2 0x326C JUMP JUMPDEST PUSH1 0x40 MLOAD DUP1 SWAP2 SUB SWAP1 REVERT JUMPDEST PUSH1 0x0 DUP4 MLOAD GT PUSH2 0x958 JUMPI PUSH1 0x40 MLOAD PUSH32 0x8C379A000000000000000000000000000000000000000000000000000000000 DUP2 MSTORE PUSH1 0x4 ADD PUSH2 0x94F SWAP1 PUSH2 0x32CC JUMP JUMPDEST PUSH1 0x40 MLOAD DUP1 SWAP2 SUB SWAP1 REVERT JUMPDEST PUSH1 0x14 DUP4 MLOAD GT ISZERO PUSH2 0x99D JUMPI PUSH1 0x40 MLOAD PUSH32 0x8C379A000000000000000000000000000000000000000000000000000000000 DUP2 MSTORE PUSH1 0x4 ADD PUSH2 0x994 SWAP1 PUSH2 0x328C JUMP JUMPDEST PUSH1 0x40 MLOAD DUP1 SWAP2 SUB SWAP1 REVERT JUMPDEST PUSH1 0x0 JUMPDEST DUP4 MLOAD DUP2 LT ISZERO PUSH2 0xA99 JUMPI PUSH1 0x0 DUP5 DUP3 DUP2 MLOAD DUP2 LT PUSH2 0x9E4 JUMPI PUSH32 0x4E487B7100000000000000000000000000000000000000000000000000000000 PUSH1 0x0 MSTORE PUSH1 0x32 PUSH1 0x4 MSTORE PUSH1 0x24 PUSH1 0x0 REVERT JUMPDEST PUSH1 0x20 MUL PUSH1 0x20 ADD ADD MLOAD SWAP1 POP PUSH1 0x0 DUP5 DUP4 DUP2 MLOAD DUP2 LT PUSH2 0xA29 JUMPI PUSH32 0x4E487B7100000000000000000000000000000000000000000000000000000000 PUSH1 0x0 MSTORE PUSH1 0x32 PUSH1 0x4 MSTORE PUSH1 0x24 PUSH1 0x0 REVERT JUMPDEST PUSH1 0x20 MUL PUSH1 0x20 ADD ADD MLOAD SWAP1 POP PUSH1 0x0 DUP5 DUP5 DUP2 MLOAD DUP2 LT PUSH2 0xA6E JUMPI PUSH32 0x4E487B7100000000000000000000000000000000000000000000000000000000 PUSH1 0x0 MSTORE PUSH1 0x32 PUSH1 0x4 MSTORE PUSH1 0x24 PUSH1 0x0 REVERT JUMPDEST PUSH1 0x20 MUL PUSH1 0x20 ADD ADD MLOAD SWAP1 POP PUSH2 0xA83 DUP4 DUP4 DUP4 PUSH2 0x1120 JUMP JUMPDEST POP POP POP DUP1 DUP1 PUSH2 0xA91 SWAP1 PUSH2 0x3686 JUMP JUMPDEST SWAP2 POP POP PUSH2 0x9A0 JUMP JUMPDEST POP POP POP POP JUMP JUMPDEST PUSH1 0x0 PUSH2 0x1DD7 PUSH1 0x0 DUP4 PUSH20 0xFFFFFFFFFFFFFFFFFFFFFFFFFFFFFFFFFFFFFFFF AND PUSH20 0xFFFFFFFFFFFFFFFFFFFFFFFFFFFFFFFFFFFFFFFF AND DUP2 MSTORE PUSH1 0x20 ADD SWAP1 DUP2 MSTORE PUSH1 0x20 ADD PUSH1 0x0 KECCAK256 SLOAD SWAP1 POP SWAP2 SWAP1 POP JUMP JUMPDEST PUSH2 0xAF1 PUSH2 0xC1D JUMP JUMPDEST PUSH2 0xAFA JUMPI PUSH1 0x0 DUP1 REVERT JUMPDEST PUSH1 0x0 DUP1 SLOAD SWAP1 PUSH2 0x100 EXP SWAP1 DIV PUSH20 0xFFFFFFFFFFFFFFFFFFFFFFFFFFFFFFFFFFFFFFFF AND PUSH20 0xFFFFFFFFFFFFFFFFFFFFFFFFFFFFFFFFFFFFFFFF AND PUSH32 0xF8DF31144D9C2F0F6B59D69B8B98ABD5459D07F2742C4DF920B25AAE33C64820 PUSH1 0x40 MLOAD PUSH1 0x40 MLOAD DUP1 SWAP2 SUB SWAP1 LOG2 PUSH1 0x0 DUP1 PUSH1 0x0 PUSH2 0x100 EXP DUP2 SLOAD DUP2 PUSH20 0xFFFFFFFFFFFFFFFFFFFFFFFFFFFFFFFFFFFFFFFF MUL NOT AND SWAP1 DUP4 PUSH20 0xFFFFFFFFFFFFFFFFFFFFFFFFFFFFFFFFFFFFFFFF AND MUL OR SWAP1 SSTORE POP JUMP JUMPDEST PUSH2 0xBA8 PUSH2 0xC1D JUMP JUMPDEST PUSH2 0xBB1 JUMPI PUSH1 0x0 DUP1 REVERT JUMPDEST DUP1 PUSH2 0x1DD3 DUP2 SWAP1 SSTORE POP PUSH32 0x8B3F67438ACCF50058941FADE95F949C7E8A0FE403E05C21F5FFC8D1A8CE5E77 PUSH1 0x1 PUSH1 0x40 MLOAD PUSH2 0xBE9 SWAP2 SWAP1 PUSH2 0x3251 JUMP JUMPDEST PUSH1 0x40 MLOAD DUP1 SWAP2 SUB SWAP1 LOG1 POP JUMP JUMPDEST PUSH1 0x0 DUP1 PUSH1 0x0 SWAP1 SLOAD SWAP1 PUSH2 0x100 EXP SWAP1 DIV PUSH20 0xFFFFFFFFFFFFFFFFFFFFFFFFFFFFFFFFFFFFFFFF AND SWAP1 POP SWAP1 JUMP JUMPDEST PUSH1 0x0 DUP1 PUSH1 0x0 SWAP1 SLOAD SWAP1 PUSH2 0x100 EXP SWAP1 DIV PUSH20 0xFFFFFFFFFFFFFFFFFFFFFFFFFFFFFFFFFFFFFFFF AND PUSH20 0xFFFFFFFFFFFFFFFFFFFFFFFFFFFFFFFFFFFFFFFF AND CALLER PUSH20 0xFFFFFFFFFFFFFFFFFFFFFFFFFFFFFFFFFFFFFFFF AND EQ SWAP1 POP SWAP1 JUMP JUMPDEST PUSH2 0xC7C PUSH2 0xC1D JUMP JUMPDEST PUSH2 0xC85 JUMPI PUSH1 0x0 DUP1 REVERT JUMPDEST PUSH2 0xC8E DUP2 PUSH2 0x13F6 JUMP JUMPDEST POP JUMP JUMPDEST PUSH2 0xC99 PUSH2 0xC1D JUMP JUMPDEST PUSH2 0xCA2 JUMPI PUSH1 0x0 DUP1 REVERT JUMPDEST DUP1 PUSH4 0x1E13380 PUSH2 0xCB2 SWAP2 SWAP1 PUSH2 0x3546 JUMP JUMPDEST PUSH2 0x1DD4 DUP2 SWAP1 SSTORE POP PUSH32 0x74C3A3A3955368962500B6A79B06996A24D06AF0F7270E5DAE387A95A65EA55 PUSH1 0x1 PUSH1 0x40 MLOAD PUSH2 0xCE9 SWAP2 SWAP1 PUSH2 0x3251 JUMP JUMPDEST PUSH1 0x40 MLOAD DUP1 SWAP2 SUB SWAP1 LOG1 POP JUMP JUMPDEST PUSH1 0x0 DUP1 PUSH2 0x1DD3 SLOAD EQ DUP1 PUSH2 0xD0A JUMPI POP PUSH1 0x0 PUSH2 0x1DD4 SLOAD EQ JUMPDEST DUP1 PUSH2 0xD18 JUMPI POP PUSH1 0x0 PUSH2 0x1DD5 SLOAD EQ JUMPDEST ISZERO PUSH2 0xD26 JUMPI PUSH1 0x1 SWAP1 POP PUSH2 0xD6C JUMP JUMPDEST PUSH1 0x0 PUSH2 0x1DD3 SLOAD EQ ISZERO DUP1 ISZERO PUSH2 0xD3C JUMPI POP PUSH2 0x1DD3 SLOAD TIMESTAMP LT JUMPDEST ISZERO PUSH2 0xD4A JUMPI PUSH1 0x1 SWAP1 POP PUSH2 0xD6C JUMP JUMPDEST PUSH1 0x1 ISZERO ISZERO PUSH2 0xD56 PUSH2 0x14ED JUMP JUMPDEST ISZERO ISZERO EQ ISZERO PUSH2 0xD67 JUMPI PUSH1 0x1 SWAP1 POP PUSH2 0xD6C JUMP JUMPDEST PUSH1 0x0 SWAP1 POP JUMPDEST SWAP1 JUMP JUMPDEST PUSH1 0x1 DUP2 PUSH1 0x4 ADD DUP2 SWAP1 SSTORE POP POP JUMP JUMPDEST PUSH2 0x1DD7 PUSH1 0x0 DUP4 PUSH20 0xFFFFFFFFFFFFFFFFFFFFFFFFFFFFFFFFFFFFFFFF AND PUSH20 0xFFFFFFFFFFFFFFFFFFFFFFFFFFFFFFFFFFFFFFFF AND DUP2 MSTORE PUSH1 0x20 ADD SWAP1 DUP2 MSTORE PUSH1 0x20 ADD PUSH1 0x0 KECCAK256 PUSH1 0x0 DUP2 SLOAD DUP1 SWAP3 SWAP2 SWAP1 PUSH2 0xDCD SWAP1 PUSH2 0x3686 JUMP JUMPDEST SWAP2 SWAP1 POP SSTORE POP PUSH2 0x1DD7 PUSH1 0x0 DUP5 PUSH20 0xFFFFFFFFFFFFFFFFFFFFFFFFFFFFFFFFFFFFFFFF AND PUSH20 0xFFFFFFFFFFFFFFFFFFFFFFFFFFFFFFFFFFFFFFFF AND DUP2 MSTORE PUSH1 0x20 ADD SWAP1 DUP2 MSTORE PUSH1 0x20 ADD PUSH1 0x0 KECCAK256 PUSH1 0x0 DUP2 SLOAD DUP1 SWAP3 SWAP2 SWAP1 PUSH2 0xE23 SWAP1 PUSH2 0x362A JUMP JUMPDEST SWAP2 SWAP1 POP SSTORE POP DUP1 DUP3 PUSH20 0xFFFFFFFFFFFFFFFFFFFFFFFFFFFFFFFFFFFFFFFF AND DUP5 PUSH20 0xFFFFFFFFFFFFFFFFFFFFFFFFFFFFFFFFFFFFFFFF AND PUSH32 0xDDF252AD1BE2C89B69C2B068FC378DAA952BA7F163C4A11628F55A4DF523B3EF PUSH1 0x40 MLOAD PUSH1 0x40 MLOAD DUP1 SWAP2 SUB SWAP1 LOG4 POP POP POP JUMP JUMPDEST DUP3 PUSH2 0x1DD6 PUSH1 0x0 DUP3 DUP2 MSTORE PUSH1 0x20 ADD SWAP1 DUP2 MSTORE PUSH1 0x20 ADD PUSH1 0x0 KECCAK256 PUSH1 0x0 SWAP1 SLOAD SWAP1 PUSH2 0x100 EXP SWAP1 DIV PUSH20 0xFFFFFFFFFFFFFFFFFFFFFFFFFFFFFFFFFFFFFFFF AND PUSH20 0xFFFFFFFFFFFFFFFFFFFFFFFFFFFFFFFFFFFFFFFF AND CALLER PUSH20 0xFFFFFFFFFFFFFFFFFFFFFFFFFFFFFFFFFFFFFFFF AND EQ PUSH2 0xEF5 JUMPI PUSH1 0x0 DUP1 REVERT JUMPDEST PUSH1 0x1 ISZERO ISZERO PUSH2 0xF01 PUSH2 0xCF4 JUMP JUMPDEST ISZERO ISZERO EQ PUSH2 0xF43 JUMPI PUSH1 0x40 MLOAD PUSH32 0x8C379A000000000000000000000000000000000000000000000000000000000 DUP2 MSTORE PUSH1 0x4 ADD PUSH2 0xF3A SWAP1 PUSH2 0x32AC JUMP JUMPDEST PUSH1 0x40 MLOAD DUP1 SWAP2 SUB SWAP1 REVERT JUMPDEST PUSH1 0x0 PUSH1 0x5 DUP6 PUSH2 0x442 DUP2 LT PUSH2 0xF80 JUMPI PUSH32 0x4E487B7100000000000000000000000000000000000000000000000000000000 PUSH1 0x0 MSTORE PUSH1 0x32 PUSH1 0x4 MSTORE PUSH1 0x24 PUSH1 0x0 REVERT JUMPDEST PUSH1 0x7 MUL ADD SWAP1 POP PUSH1 0x2 DUP2 PUSH1 0x4 ADD SLOAD LT PUSH2 0xFCD JUMPI PUSH1 0x40 MLOAD PUSH32 0x8C379A000000000000000000000000000000000000000000000000000000000 DUP2 MSTORE PUSH1 0x4 ADD PUSH2 0xFC4 SWAP1 PUSH2 0x332C JUMP JUMPDEST PUSH1 0x40 MLOAD DUP1 SWAP2 SUB SWAP1 REVERT JUMPDEST DUP4 DUP2 PUSH1 0x0 ADD SWAP1 DUP1 MLOAD SWAP1 PUSH1 0x20 ADD SWAP1 PUSH2 0xFE5 SWAP3 SWAP2 SWAP1 PUSH2 0x2B59 JUMP JUMPDEST POP DUP3 DUP2 PUSH1 0x1 ADD SWAP1 DUP1 MLOAD SWAP1 PUSH1 0x20 ADD SWAP1 PUSH2 0xFFE SWAP3 SWAP2 SWAP1 PUSH2 0x2B59 JUMP JUMPDEST POP DUP1 PUSH1 0x4 ADD PUSH1 0x0 DUP2 SLOAD DUP1 SWAP3 SWAP2 SWAP1 PUSH2 0x1014 SWAP1 PUSH2 0x3686 JUMP JUMPDEST SWAP2 SWAP1 POP SSTORE POP PUSH32 0xE25A786DAB1D0660F697F60B8F13EBBC495B422AAB49AD06A06418D47F3F054 DUP6 DUP6 DUP6 PUSH1 0x40 MLOAD PUSH2 0x104C SWAP4 SWAP3 SWAP2 SWAP1 PUSH2 0x3367 JUMP JUMPDEST PUSH1 0x40 MLOAD DUP1 SWAP2 SUB SWAP1 LOG1 POP POP POP POP POP JUMP JUMPDEST PUSH1 0x0 DUP1 PUSH1 0x0 SWAP1 POP PUSH1 0x0 JUMPDEST DUP4 MLOAD DUP2 LT ISZERO PUSH2 0x1113 JUMPI PUSH1 0x3 DUP5 DUP3 DUP2 MLOAD DUP2 LT PUSH2 0x10A9 JUMPI PUSH32 0x4E487B7100000000000000000000000000000000000000000000000000000000 PUSH1 0x0 MSTORE PUSH1 0x32 PUSH1 0x4 MSTORE PUSH1 0x24 PUSH1 0x0 REVERT JUMPDEST PUSH1 0x20 MUL PUSH1 0x20 ADD ADD MLOAD DUP2 SLOAD DUP2 LT PUSH2 0x10E8 JUMPI PUSH32 0x4E487B7100000000000000000000000000000000000000000000000000000000 PUSH1 0x0 MSTORE PUSH1 0x32 PUSH1 0x4 MSTORE PUSH1 0x24 PUSH1 0x0 REVERT JUMPDEST SWAP1 PUSH1 0x0 MSTORE PUSH1 0x20 PUSH1 0x0 KECCAK256 ADD SLOAD DUP3 PUSH2 0x10FE SWAP2 SWAP1 PUSH2 0x34F0 JUMP JUMPDEST SWAP2 POP DUP1 DUP1 PUSH2 0x110B SWAP1 PUSH2 0x3686 JUMP JUMPDEST SWAP2 POP POP PUSH2 0x1065 JUMP JUMPDEST POP DUP1 CALLVALUE LT ISZERO SWAP2 POP POP SWAP2 SWAP1 POP JUMP JUMPDEST DUP1 PUSH1 0x1 DUP2 DUP2 SLOAD DUP2 LT PUSH2 0x115B JUMPI PUSH32 0x4E487B7100000000000000000000000000000000000000000000000000000000 PUSH1 0x0 MSTORE PUSH1 0x32 PUSH1 0x4 MSTORE PUSH1 0x24 PUSH1 0x0 REVERT JUMPDEST SWAP1 PUSH1 0x0 MSTORE PUSH1 0x20 PUSH1 0x0 KECCAK256 ADD SLOAD PUSH1 0x2 DUP3 DUP2 SLOAD DUP2 LT PUSH2 0x11A0 JUMPI PUSH32 0x4E487B7100000000000000000000000000000000000000000000000000000000 PUSH1 0x0 MSTORE PUSH1 0x32 PUSH1 0x4 MSTORE PUSH1 0x24 PUSH1 0x0 REVERT JUMPDEST SWAP1 PUSH1 0x0 MSTORE PUSH1 0x20 PUSH1 0x0 KECCAK256 ADD SLOAD LT PUSH2 0x11EB JUMPI PUSH1 0x40 MLOAD PUSH32 0x8C379A000000000000000000000000000000000000000000000000000000000 DUP2 MSTORE PUSH1 0x4 ADD PUSH2 0x11E2 SWAP1 PUSH2 0x330C JUMP JUMPDEST PUSH1 0x40 MLOAD DUP1 SWAP2 SUB SWAP1 REVERT JUMPDEST PUSH1 0x0 PUSH2 0x11F6 DUP4 PUSH2 0x157C JUMP JUMPDEST SWAP1 POP PUSH1 0x0 PUSH2 0x1203 DUP3 PUSH2 0x16A1 JUMP JUMPDEST SWAP1 POP PUSH1 0x0 PUSH2 0x1210 DUP4 PUSH2 0x1827 JUMP JUMPDEST SWAP1 POP PUSH1 0x0 PUSH1 0x40 MLOAD DUP1 PUSH1 0xE0 ADD PUSH1 0x40 MSTORE DUP1 DUP10 DUP2 MSTORE PUSH1 0x20 ADD DUP9 DUP2 MSTORE PUSH1 0x20 ADD DUP6 DUP2 MSTORE PUSH1 0x20 ADD DUP8 DUP2 MSTORE PUSH1 0x20 ADD PUSH1 0x1 DUP2 MSTORE PUSH1 0x20 ADD DUP5 DUP2 MSTORE PUSH1 0x20 ADD DUP4 DUP2 MSTORE POP SWAP1 POP DUP1 PUSH1 0x5 DUP6 PUSH2 0x442 DUP2 LT PUSH2 0x1286 JUMPI PUSH32 0x4E487B7100000000000000000000000000000000000000000000000000000000 PUSH1 0x0 MSTORE PUSH1 0x32 PUSH1 0x4 MSTORE PUSH1 0x24 PUSH1 0x0 REVERT JUMPDEST PUSH1 0x7 MUL ADD PUSH1 0x0 DUP3 ADD MLOAD DUP2 PUSH1 0x0 ADD SWAP1 DUP1 MLOAD SWAP1 PUSH1 0x20 ADD SWAP1 PUSH2 0x12A6 SWAP3 SWAP2 SWAP1 PUSH2 0x2B59 JUMP JUMPDEST POP PUSH1 0x20 DUP3 ADD MLOAD DUP2 PUSH1 0x1 ADD SWAP1 DUP1 MLOAD SWAP1 PUSH1 0x20 ADD SWAP1 PUSH2 0x12C3 SWAP3 SWAP2 SWAP1 PUSH2 0x2B59 JUMP JUMPDEST POP PUSH1 0x40 DUP3 ADD MLOAD DUP2 PUSH1 0x2 ADD SSTORE PUSH1 0x60 DUP3 ADD MLOAD DUP2 PUSH1 0x3 ADD SSTORE PUSH1 0x80 DUP3 ADD MLOAD DUP2 PUSH1 0x4 ADD SSTORE PUSH1 0xA0 DUP3 ADD MLOAD DUP2 PUSH1 0x5 ADD SSTORE PUSH1 0xC0 DUP3 ADD MLOAD DUP2 PUSH1 0x6 ADD SSTORE SWAP1 POP POP CALLER PUSH2 0x1DD6 PUSH1 0x0 DUP7 DUP2 MSTORE PUSH1 0x20 ADD SWAP1 DUP2 MSTORE PUSH1 0x20 ADD PUSH1 0x0 KECCAK256 PUSH1 0x0 PUSH2 0x100 EXP DUP2 SLOAD DUP2 PUSH20 0xFFFFFFFFFFFFFFFFFFFFFFFFFFFFFFFFFFFFFFFF MUL NOT AND SWAP1 DUP4 PUSH20 0xFFFFFFFFFFFFFFFFFFFFFFFFFFFFFFFFFFFFFFFF AND MUL OR SWAP1 SSTORE POP PUSH2 0x1DD7 PUSH1 0x0 CALLER PUSH20 0xFFFFFFFFFFFFFFFFFFFFFFFFFFFFFFFFFFFFFFFF AND PUSH20 0xFFFFFFFFFFFFFFFFFFFFFFFFFFFFFFFFFFFFFFFF AND DUP2 MSTORE PUSH1 0x20 ADD SWAP1 DUP2 MSTORE PUSH1 0x20 ADD PUSH1 0x0 KECCAK256 PUSH1 0x0 DUP2 SLOAD DUP1 SWAP3 SWAP2 SWAP1 PUSH2 0x139D SWAP1 PUSH2 0x3686 JUMP JUMPDEST SWAP2 SWAP1 POP SSTORE POP PUSH2 0x13AB DUP7 PUSH2 0x2ABD JUMP JUMPDEST PUSH32 0xCBCFA63B55697645486E736954709632D8CFB1A7B54A0CA9BC1C915D4C3A8A10 DUP5 DUP10 DUP10 DUP10 DUP8 DUP8 PUSH1 0x40 MLOAD PUSH2 0x13E4 SWAP7 SWAP6 SWAP5 SWAP4 SWAP3 SWAP2 SWAP1 PUSH2 0x33AC JUMP JUMPDEST PUSH1 0x40 MLOAD DUP1 SWAP2 SUB SWAP1 LOG1 POP POP POP POP POP POP POP POP JUMP JUMPDEST PUSH1 0x0 PUSH20 0xFFFFFFFFFFFFFFFFFFFFFFFFFFFFFFFFFFFFFFFF AND DUP2 PUSH20 0xFFFFFFFFFFFFFFFFFFFFFFFFFFFFFFFFFFFFFFFF AND EQ ISZERO PUSH2 0x1430 JUMPI PUSH1 0x0 DUP1 REVERT JUMPDEST DUP1 PUSH20 0xFFFFFFFFFFFFFFFFFFFFFFFFFFFFFFFFFFFFFFFF AND PUSH1 0x0 DUP1 SLOAD SWAP1 PUSH2 0x100 EXP SWAP1 DIV PUSH20 0xFFFFFFFFFFFFFFFFFFFFFFFFFFFFFFFFFFFFFFFF AND PUSH20 0xFFFFFFFFFFFFFFFFFFFFFFFFFFFFFFFFFFFFFFFF AND PUSH32 0x8BE0079C531659141344CD1FD0A4F28419497F9722A3DAAFE3B4186F6B6457E0 PUSH1 0x40 MLOAD PUSH1 0x40 MLOAD DUP1 SWAP2 SUB SWAP1 LOG3 DUP1 PUSH1 0x0 DUP1 PUSH2 0x100 EXP DUP2 SLOAD DUP2 PUSH20 0xFFFFFFFFFFFFFFFFFFFFFFFFFFFFFFFFFFFFFFFF MUL NOT AND SWAP1 DUP4 PUSH20 0xFFFFFFFFFFFFFFFFFFFFFFFFFFFFFFFFFFFFFFFF AND MUL OR SWAP1 SSTORE POP POP JUMP JUMPDEST PUSH1 0x0 DUP1 PUSH1 0x1 SWAP1 POP PUSH1 0x0 PUSH1 0x1 SWAP1 POP PUSH1 0x0 PUSH2 0x1DD3 SLOAD SWAP1 POP JUMPDEST DUP2 ISZERO PUSH2 0x1558 JUMPI PUSH2 0x1DD4 SLOAD DUP2 PUSH2 0x1518 SWAP2 SWAP1 PUSH2 0x34F0 JUMP JUMPDEST SWAP1 POP PUSH1 0x1 SWAP3 POP DUP1 TIMESTAMP GT PUSH2 0x152E JUMPI PUSH1 0x0 SWAP2 POP PUSH2 0x1558 JUMP JUMPDEST PUSH1 0x0 SWAP3 POP PUSH2 0x1DD5 SLOAD DUP2 PUSH2 0x1541 SWAP2 SWAP1 PUSH2 0x34F0 JUMP JUMPDEST SWAP1 POP DUP1 TIMESTAMP GT PUSH2 0x1553 JUMPI PUSH1 0x0 SWAP2 POP PUSH2 0x1558 JUMP JUMPDEST PUSH2 0x1503 JUMP JUMPDEST PUSH1 0x0 ISZERO ISZERO DUP4 ISZERO ISZERO EQ ISZERO PUSH2 0x1571 JUMPI PUSH1 0x1 SWAP4 POP POP POP POP PUSH2 0x1579 JUMP JUMPDEST PUSH1 0x0 SWAP4 POP POP POP POP JUMPDEST SWAP1 JUMP JUMPDEST PUSH1 0x0 DUP1 DUP3 EQ ISZERO PUSH2 0x15D3 JUMPI PUSH1 0x2 PUSH1 0x0 DUP2 SLOAD DUP2 LT PUSH2 0x15C1 JUMPI PUSH32 0x4E487B7100000000000000000000000000000000000000000000000000000000 PUSH1 0x0 MSTORE PUSH1 0x32 PUSH1 0x4 MSTORE PUSH1 0x24 PUSH1 0x0 REVERT JUMPDEST SWAP1 PUSH1 0x0 MSTORE PUSH1 0x20 PUSH1 0x0 KECCAK256 ADD SLOAD SWAP1 POP PUSH2 0x169C JUMP JUMPDEST PUSH1 0x0 DUP1 JUMPDEST DUP4 DUP2 LT ISZERO PUSH2 0x1644 JUMPI PUSH1 0x1 DUP2 DUP2 SLOAD DUP2 LT PUSH2 0x1619 JUMPI PUSH32 0x4E487B7100000000000000000000000000000000000000000000000000000000 PUSH1 0x0 MSTORE PUSH1 0x32 PUSH1 0x4 MSTORE PUSH1 0x24 PUSH1 0x0 REVERT JUMPDEST SWAP1 PUSH1 0x0 MSTORE PUSH1 0x20 PUSH1 0x0 KECCAK256 ADD SLOAD DUP3 PUSH2 0x162F SWAP2 SWAP1 PUSH2 0x34F0 JUMP JUMPDEST SWAP2 POP DUP1 DUP1 PUSH2 0x163C SWAP1 PUSH2 0x3686 JUMP JUMPDEST SWAP2 POP POP PUSH2 0x15D7 JUMP JUMPDEST POP PUSH1 0x2 DUP4 DUP2 SLOAD DUP2 LT PUSH2 0x167F JUMPI PUSH32 0x4E487B7100000000000000000000000000000000000000000000000000000000 PUSH1 0x0 MSTORE PUSH1 0x32 PUSH1 0x4 MSTORE PUSH1 0x24 PUSH1 0x0 REVERT JUMPDEST SWAP1 PUSH1 0x0 MSTORE PUSH1 0x20 PUSH1 0x0 KECCAK256 ADD SLOAD DUP2 PUSH2 0x1695 SWAP2 SWAP1 PUSH2 0x34F0 JUMP JUMPDEST SWAP1 POP DUP1 SWAP2 POP POP JUMPDEST SWAP2 SWAP1 POP JUMP JUMPDEST PUSH1 0x0 DUP1 PUSH1 0x1 DUP4 PUSH2 0x16B1 SWAP2 SWAP1 PUSH2 0x34F0 JUMP JUMPDEST SWAP1 POP PUSH1 0x0 PUSH1 0xB SWAP1 POP PUSH1 0x0 JUMPDEST DUP2 DUP2 LT ISZERO PUSH2 0x181E JUMPI PUSH1 0x0 PUSH1 0x4 DUP3 DUP2 SLOAD DUP2 LT PUSH2 0x1700 JUMPI PUSH32 0x4E487B7100000000000000000000000000000000000000000000000000000000 PUSH1 0x0 MSTORE PUSH1 0x32 PUSH1 0x4 MSTORE PUSH1 0x24 PUSH1 0x0 REVERT JUMPDEST SWAP1 PUSH1 0x0 MSTORE PUSH1 0x20 PUSH1 0x0 KECCAK256 ADD DUP1 SLOAD DUP1 PUSH1 0x20 MUL PUSH1 0x20 ADD PUSH1 0x40 MLOAD SWAP1 DUP2 ADD PUSH1 0x40 MSTORE DUP1 SWAP3 SWAP2 SWAP1 DUP2 DUP2 MSTORE PUSH1 0x20 ADD DUP3 DUP1 SLOAD DUP1 ISZERO PUSH2 0x1754 JUMPI PUSH1 0x20 MUL DUP3 ADD SWAP2 SWAP1 PUSH1 0x0 MSTORE PUSH1 0x20 PUSH1 0x0 KECCAK256 SWAP1 JUMPDEST DUP2 SLOAD DUP2 MSTORE PUSH1 0x20 ADD SWAP1 PUSH1 0x1 ADD SWAP1 DUP1 DUP4 GT PUSH2 0x1740 JUMPI JUMPDEST POP POP POP POP POP SWAP1 POP DUP1 PUSH1 0x0 DUP2 MLOAD DUP2 LT PUSH2 0x1795 JUMPI PUSH32 0x4E487B7100000000000000000000000000000000000000000000000000000000 PUSH1 0x0 MSTORE PUSH1 0x32 PUSH1 0x4 MSTORE PUSH1 0x24 PUSH1 0x0 REVERT JUMPDEST PUSH1 0x20 MUL PUSH1 0x20 ADD ADD MLOAD DUP5 LT ISZERO DUP1 ISZERO PUSH2 0x17ED JUMPI POP DUP1 PUSH1 0x1 DUP2 MLOAD DUP2 LT PUSH2 0x17E1 JUMPI PUSH32 0x4E487B7100000000000000000000000000000000000000000000000000000000 PUSH1 0x0 MSTORE PUSH1 0x32 PUSH1 0x4 MSTORE PUSH1 0x24 PUSH1 0x0 REVERT JUMPDEST PUSH1 0x20 MUL PUSH1 0x20 ADD ADD MLOAD DUP5 GT ISZERO JUMPDEST ISZERO PUSH2 0x180A JUMPI PUSH1 0x1 DUP3 PUSH2 0x17FF SWAP2 SWAP1 PUSH2 0x34F0 JUMP JUMPDEST SWAP5 POP POP POP POP POP PUSH2 0x1822 JUMP JUMPDEST POP DUP1 DUP1 PUSH2 0x1816 SWAP1 PUSH2 0x3686 JUMP JUMPDEST SWAP2 POP POP PUSH2 0x16BC JUMP JUMPDEST POP POP POP JUMPDEST SWAP2 SWAP1 POP JUMP JUMPDEST PUSH1 0x0 DUP1 PUSH1 0x40 MLOAD DUP1 PUSH2 0x300 ADD PUSH1 0x40 MSTORE DUP1 PUSH1 0x40 MLOAD DUP1 PUSH1 0x40 ADD PUSH1 0x40 MSTORE DUP1 PUSH1 0x1 DUP2 MSTORE PUSH1 0x20 ADD PUSH1 0x1C DUP2 MSTORE POP DUP2 MSTORE PUSH1 0x20 ADD PUSH1 0x40 MLOAD DUP1 PUSH1 0x40 ADD PUSH1 0x40 MSTORE DUP1 PUSH1 0xA1 DUP2 MSTORE PUSH1 0x20 ADD PUSH1 0xB6 DUP2 MSTORE POP DUP2 MSTORE PUSH1 0x20 ADD PUSH1 0x40 MLOAD DUP1 PUSH1 0x40 ADD PUSH1 0x40 MSTORE DUP1 PUSH2 0x11D DUP2 MSTORE PUSH1 0x20 ADD PUSH2 0x120 DUP2 MSTORE POP DUP2 MSTORE PUSH1 0x20 ADD PUSH1 0x40 MLOAD DUP1 PUSH1 0x40 ADD PUSH1 0x40 MSTORE DUP1 PUSH2 0x12C DUP2 MSTORE PUSH1 0x20 ADD PUSH2 0x130 DUP2 MSTORE POP DUP2 MSTORE PUSH1 0x20 ADD PUSH1 0x40 MLOAD DUP1 PUSH1 0x40 ADD PUSH1 0x40 MSTORE DUP1 PUSH2 0x131 DUP2 MSTORE PUSH1 0x20 ADD PUSH2 0x14F DUP2 MSTORE POP DUP2 MSTORE PUSH1 0x20 ADD PUSH1 0x40 MLOAD DUP1 PUSH1 0x40 ADD PUSH1 0x40 MSTORE DUP1 PUSH2 0x1AF DUP2 MSTORE PUSH1 0x20 ADD PUSH2 0x1C0 DUP2 MSTORE POP DUP2 MSTORE PUSH1 0x20 ADD PUSH1 0x40 MLOAD DUP1 PUSH1 0x40 ADD PUSH1 0x40 MSTORE DUP1 PUSH2 0x211 DUP2 MSTORE PUSH1 0x20 ADD PUSH2 0x214 DUP2 MSTORE POP DUP2 MSTORE PUSH1 0x20 ADD PUSH1 0x40 MLOAD DUP1 PUSH1 0x40 ADD PUSH1 0x40 MSTORE DUP1 PUSH2 0x21E DUP2 MSTORE PUSH1 0x20 ADD PUSH2 0x221 DUP2 MSTORE POP DUP2 MSTORE PUSH1 0x20 ADD PUSH1 0x40 MLOAD DUP1 PUSH1 0x40 ADD PUSH1 0x40 MSTORE DUP1 PUSH2 0x222 DUP2 MSTORE PUSH1 0x20 ADD PUSH2 0x233 DUP2 MSTORE POP DUP2 MSTORE PUSH1 0x20 ADD PUSH1 0x40 MLOAD DUP1 PUSH1 0x40 ADD PUSH1 0x40 MSTORE DUP1 PUSH2 0x284 DUP2 MSTORE PUSH1 0x20 ADD PUSH2 0x287 DUP2 MSTORE POP DUP2 MSTORE PUSH1 0x20 ADD PUSH1 0x40 MLOAD DUP1 PUSH1 0x40 ADD PUSH1 0x40 MSTORE DUP1 PUSH2 0x291 DUP2 MSTORE PUSH1 0x20 ADD PUSH2 0x294 DUP2 MSTORE POP DUP2 MSTORE PUSH1 0x20 ADD PUSH1 0x40 MLOAD DUP1 PUSH1 0x40 ADD PUSH1 0x40 MSTORE DUP1 PUSH2 0x295 DUP2 MSTORE PUSH1 0x20 ADD PUSH2 0x2A2 DUP2 MSTORE POP DUP2 MSTORE PUSH1 0x20 ADD PUSH1 0x40 MLOAD DUP1 PUSH1 0x40 ADD PUSH1 0x40 MSTORE DUP1 PUSH2 0x2E4 DUP2 MSTORE PUSH1 0x20 ADD PUSH2 0x2E7 DUP2 MSTORE POP DUP2 MSTORE PUSH1 0x20 ADD PUSH1 0x40 MLOAD DUP1 PUSH1 0x40 ADD PUSH1 0x40 MSTORE DUP1 PUSH2 0x2F0 DUP2 MSTORE PUSH1 0x20 ADD PUSH2 0x2F3 DUP2 MSTORE POP DUP2 MSTORE PUSH1 0x20 ADD PUSH1 0x40 MLOAD DUP1 PUSH1 0x40 ADD PUSH1 0x40 MSTORE DUP1 PUSH2 0x2F4 DUP2 MSTORE PUSH1 0x20 ADD PUSH2 0x301 DUP2 MSTORE POP DUP2 MSTORE PUSH1 0x20 ADD PUSH1 0x40 MLOAD DUP1 PUSH1 0x40 ADD PUSH1 0x40 MSTORE DUP1 PUSH2 0x343 DUP2 MSTORE PUSH1 0x20 ADD PUSH2 0x346 DUP2 MSTORE POP DUP2 MSTORE PUSH1 0x20 ADD PUSH1 0x40 MLOAD DUP1 PUSH1 0x40 ADD PUSH1 0x40 MSTORE DUP1 PUSH2 0x34F DUP2 MSTORE PUSH1 0x20 ADD PUSH2 0x352 DUP2 MSTORE POP DUP2 MSTORE PUSH1 0x20 ADD PUSH1 0x40 MLOAD DUP1 PUSH1 0x40 ADD PUSH1 0x40 MSTORE DUP1 PUSH2 0x353 DUP2 MSTORE PUSH1 0x20 ADD PUSH2 0x362 DUP2 MSTORE POP DUP2 MSTORE PUSH1 0x20 ADD PUSH1 0x40 MLOAD DUP1 PUSH1 0x40 ADD PUSH1 0x40 MSTORE DUP1 PUSH2 0x395 DUP2 MSTORE PUSH1 0x20 ADD PUSH2 0x396 DUP2 MSTORE POP DUP2 MSTORE PUSH1 0x20 ADD PUSH1 0x40 MLOAD DUP1 PUSH1 0x40 ADD PUSH1 0x40 MSTORE DUP1 PUSH2 0x39C DUP2 MSTORE PUSH1 0x20 ADD PUSH2 0x3A7 DUP2 MSTORE POP DUP2 MSTORE PUSH1 0x20 ADD PUSH1 0x40 MLOAD DUP1 PUSH1 0x40 ADD PUSH1 0x40 MSTORE DUP1 PUSH2 0x3A8 DUP2 MSTORE PUSH1 0x20 ADD PUSH2 0x3AB DUP2 MSTORE POP DUP2 MSTORE PUSH1 0x20 ADD PUSH1 0x40 MLOAD DUP1 PUSH1 0x40 ADD PUSH1 0x40 MSTORE DUP1 PUSH2 0x3DB DUP2 MSTORE PUSH1 0x20 ADD PUSH2 0x3E2 DUP2 MSTORE POP DUP2 MSTORE PUSH1 0x20 ADD PUSH1 0x40 MLOAD DUP1 PUSH1 0x40 ADD PUSH1 0x40 MSTORE DUP1 PUSH2 0x40B DUP2 MSTORE PUSH1 0x20 ADD PUSH2 0x40C DUP2 MSTORE POP DUP2 MSTORE PUSH1 0x20 ADD PUSH1 0x40 MLOAD DUP1 PUSH1 0x40 ADD PUSH1 0x40 MSTORE DUP1 PUSH2 0x412 DUP2 MSTORE PUSH1 0x20 ADD PUSH2 0x41C DUP2 MSTORE POP DUP2 MSTORE POP SWAP1 POP PUSH1 0x0 PUSH1 0x40 MLOAD DUP1 PUSH2 0x3C0 ADD PUSH1 0x40 MSTORE DUP1 PUSH1 0x40 MLOAD DUP1 PUSH1 0x40 ADD PUSH1 0x40 MSTORE DUP1 PUSH1 0x1D DUP2 MSTORE PUSH1 0x20 ADD PUSH1 0x32 DUP2 MSTORE POP DUP2 MSTORE PUSH1 0x20 ADD PUSH1 0x40 MLOAD DUP1 PUSH1 0x40 ADD PUSH1 0x40 MSTORE DUP1 PUSH1 0x59 DUP2 MSTORE PUSH1 0x20 ADD PUSH1 0x6A DUP2 MSTORE POP DUP2 MSTORE PUSH1 0x20 ADD PUSH1 0x40 MLOAD DUP1 PUSH1 0x40 ADD PUSH1 0x40 MSTORE DUP1 PUSH1 0x89 DUP2 MSTORE PUSH1 0x20 ADD PUSH1 0x90 DUP2 MSTORE POP DUP2 MSTORE PUSH1 0x20 ADD PUSH1 0x40 MLOAD DUP1 PUSH1 0x40 ADD PUSH1 0x40 MSTORE DUP1 PUSH1 0xB7 DUP2 MSTORE PUSH1 0x20 ADD PUSH1 0xC2 DUP2 MSTORE POP DUP2 MSTORE PUSH1 0x20 ADD PUSH1 0x40 MLOAD DUP1 PUSH1 0x40 ADD PUSH1 0x40 MSTORE DUP1 PUSH1 0xC3 DUP2 MSTORE PUSH1 0x20 ADD PUSH1 0xCA DUP2 MSTORE POP DUP2 MSTORE PUSH1 0x20 ADD PUSH1 0x40 MLOAD DUP1 PUSH1 0x40 ADD PUSH1 0x40 MSTORE DUP1 PUSH1 0xE9 DUP2 MSTORE PUSH1 0x20 ADD PUSH1 0xF6 DUP2 MSTORE POP DUP2 MSTORE PUSH1 0x20 ADD PUSH1 0x40 MLOAD DUP1 PUSH1 0x40 ADD PUSH1 0x40 MSTORE DUP1 PUSH2 0x111 DUP2 MSTORE PUSH1 0x20 ADD PUSH2 0x116 DUP2 MSTORE POP DUP2 MSTORE PUSH1 0x20 ADD PUSH1 0x40 MLOAD DUP1 PUSH1 0x40 ADD PUSH1 0x40 MSTORE DUP1 PUSH2 0x150 DUP2 MSTORE PUSH1 0x20 ADD PUSH2 0x16E DUP2 MSTORE POP DUP2 MSTORE PUSH1 0x20 ADD PUSH1 0x40 MLOAD DUP1 PUSH1 0x40 ADD PUSH1 0x40 MSTORE DUP1 PUSH2 0x19D DUP2 MSTORE PUSH1 0x20 ADD PUSH2 0x1A0 DUP2 MSTORE POP DUP2 MSTORE PUSH1 0x20 ADD PUSH1 0x40 MLOAD DUP1 PUSH1 0x40 ADD PUSH1 0x40 MSTORE DUP1 PUSH2 0x1C1 DUP2 MSTORE PUSH1 0x20 ADD PUSH2 0x1D0 DUP2 MSTORE POP DUP2 MSTORE PUSH1 0x20 ADD PUSH1 0x40 MLOAD DUP1 PUSH1 0x40 ADD PUSH1 0x40 MSTORE DUP1 PUSH2 0x1E9 DUP2 MSTORE PUSH1 0x20 ADD PUSH2 0x1F3 DUP2 MSTORE POP DUP2 MSTORE PUSH1 0x20 ADD PUSH1 0x40 MLOAD DUP1 PUSH1 0x40 ADD PUSH1 0x40 MSTORE DUP1 PUSH2 0x209 DUP2 MSTORE PUSH1 0x20 ADD PUSH2 0x20C DUP2 MSTORE POP DUP2 MSTORE PUSH1 0x20 ADD PUSH1 0x40 MLOAD DUP1 PUSH1 0x40 ADD PUSH1 0x40 MSTORE DUP1 PUSH2 0x234 DUP2 MSTORE PUSH1 0x20 ADD PUSH2 0x243 DUP2 MSTORE POP DUP2 MSTORE PUSH1 0x20 ADD PUSH1 0x40 MLOAD DUP1 PUSH1 0x40 ADD PUSH1 0x40 MSTORE DUP1 PUSH2 0x25C DUP2 MSTORE PUSH1 0x20 ADD PUSH2 0x266 DUP2 MSTORE POP DUP2 MSTORE PUSH1 0x20 ADD PUSH1 0x40 MLOAD DUP1 PUSH1 0x40 ADD PUSH1 0x40 MSTORE DUP1 PUSH2 0x27C DUP2 MSTORE PUSH1 0x20 ADD PUSH2 0x27F DUP2 MSTORE POP DUP2 MSTORE PUSH1 0x20 ADD PUSH1 0x40 MLOAD DUP1 PUSH1 0x40 ADD PUSH1 0x40 MSTORE DUP1 PUSH2 0x2A3 DUP2 MSTORE PUSH1 0x20 ADD PUSH2 0x2AE DUP2 MSTORE POP DUP2 MSTORE PUSH1 0x20 ADD PUSH1 0x40 MLOAD DUP1 PUSH1 0x40 ADD PUSH1 0x40 MSTORE DUP1 PUSH2 0x2C2 DUP2 MSTORE PUSH1 0x20 ADD PUSH2 0x2CA DUP2 MSTORE POP DUP2 MSTORE PUSH1 0x20 ADD PUSH1 0x40 MLOAD DUP1 PUSH1 0x40 ADD PUSH1 0x40 MSTORE DUP1 PUSH2 0x2DC DUP2 MSTORE PUSH1 0x20 ADD PUSH2 0x2DF DUP2 MSTORE POP DUP2 MSTORE PUSH1 0x20 ADD PUSH1 0x40 MLOAD DUP1 PUSH1 0x40 ADD PUSH1 0x40 MSTORE DUP1 PUSH2 0x302 DUP2 MSTORE PUSH1 0x20 ADD PUSH2 0x30D DUP2 MSTORE POP DUP2 MSTORE PUSH1 0x20 ADD PUSH1 0x40 MLOAD DUP1 PUSH1 0x40 ADD PUSH1 0x40 MSTORE DUP1 PUSH2 0x321 DUP2 MSTORE PUSH1 0x20 ADD PUSH2 0x329 DUP2 MSTORE POP DUP2 MSTORE PUSH1 0x20 ADD PUSH1 0x40 MLOAD DUP1 PUSH1 0x40 ADD PUSH1 0x40 MSTORE DUP1 PUSH2 0x33B DUP2 MSTORE PUSH1 0x20 ADD PUSH2 0x33E DUP2 MSTORE POP DUP2 MSTORE PUSH1 0x20 ADD PUSH1 0x40 MLOAD DUP1 PUSH1 0x40 ADD PUSH1 0x40 MSTORE DUP1 PUSH2 0x363 DUP2 MSTORE PUSH1 0x20 ADD PUSH2 0x36C DUP2 MSTORE POP DUP2 MSTORE PUSH1 0x20 ADD PUSH1 0x40 MLOAD DUP1 PUSH1 0x40 ADD PUSH1 0x40 MSTORE DUP1 PUSH2 0x37D DUP2 MSTORE PUSH1 0x20 ADD PUSH2 0x383 DUP2 MSTORE POP DUP2 MSTORE PUSH1 0x20 ADD PUSH1 0x40 MLOAD DUP1 PUSH1 0x40 ADD PUSH1 0x40 MSTORE DUP1 PUSH2 0x391 DUP2 MSTORE PUSH1 0x20 ADD PUSH2 0x392 DUP2 MSTORE POP DUP2 MSTORE PUSH1 0x20 ADD PUSH1 0x40 MLOAD DUP1 PUSH1 0x40 ADD PUSH1 0x40 MSTORE DUP1 PUSH2 0x3AC DUP2 MSTORE PUSH1 0x20 ADD PUSH2 0x3BE DUP2 MSTORE POP DUP2 MSTORE PUSH1 0x20 ADD PUSH1 0x40 MLOAD DUP1 PUSH1 0x40 ADD PUSH1 0x40 MSTORE DUP1 PUSH2 0x3E3 DUP2 MSTORE PUSH1 0x20 ADD PUSH2 0x3EA DUP2 MSTORE POP DUP2 MSTORE PUSH1 0x20 ADD PUSH1 0x40 MLOAD DUP1 PUSH1 0x40 ADD PUSH1 0x40 MSTORE DUP1 PUSH2 0x3F6 DUP2 MSTORE PUSH1 0x20 ADD PUSH2 0x3FB DUP2 MSTORE POP DUP2 MSTORE PUSH1 0x20 ADD PUSH1 0x40 MLOAD DUP1 PUSH1 0x40 ADD PUSH1 0x40 MSTORE DUP1 PUSH2 0x407 DUP2 MSTORE PUSH1 0x20 ADD PUSH2 0x408 DUP2 MSTORE POP DUP2 MSTORE PUSH1 0x20 ADD PUSH1 0x40 MLOAD DUP1 PUSH1 0x40 ADD PUSH1 0x40 MSTORE DUP1 PUSH2 0x41D DUP2 MSTORE PUSH1 0x20 ADD PUSH2 0x429 DUP2 MSTORE POP DUP2 MSTORE PUSH1 0x20 ADD PUSH1 0x40 MLOAD DUP1 PUSH1 0x40 ADD PUSH1 0x40 MSTORE DUP1 PUSH2 0x43B DUP2 MSTORE PUSH1 0x20 ADD PUSH2 0x43C DUP2 MSTORE POP DUP2 MSTORE POP SWAP1 POP PUSH1 0x0 PUSH1 0x40 MLOAD DUP1 PUSH2 0x400 ADD PUSH1 0x40 MSTORE DUP1 PUSH1 0x40 MLOAD DUP1 PUSH1 0x40 ADD PUSH1 0x40 MSTORE DUP1 PUSH1 0x33 DUP2 MSTORE PUSH1 0x20 ADD PUSH1 0x3C DUP2 MSTORE POP DUP2 MSTORE PUSH1 0x20 ADD PUSH1 0x40 MLOAD DUP1 PUSH1 0x40 ADD PUSH1 0x40 MSTORE DUP1 PUSH1 0x6B DUP2 MSTORE PUSH1 0x20 ADD PUSH1 0x88 DUP2 MSTORE POP DUP2 MSTORE PUSH1 0x20 ADD PUSH1 0x40 MLOAD DUP1 PUSH1 0x40 ADD PUSH1 0x40 MSTORE DUP1 PUSH1 0x91 DUP2 MSTORE PUSH1 0x20 ADD PUSH1 0x98 DUP2 MSTORE POP DUP2 MSTORE PUSH1 0x20 ADD PUSH1 0x40 MLOAD DUP1 PUSH1 0x40 ADD PUSH1 0x40 MSTORE DUP1 PUSH1 0xCB DUP2 MSTORE PUSH1 0x20 ADD PUSH1 0xD2 DUP2 MSTORE POP DUP2 MSTORE PUSH1 0x20 ADD PUSH1 0x40 MLOAD DUP1 PUSH1 0x40 ADD PUSH1 0x40 MSTORE DUP1 PUSH1 0xF7 DUP2 MSTORE PUSH1 0x20 ADD PUSH2 0x110 DUP2 MSTORE POP DUP2 MSTORE PUSH1 0x20 ADD PUSH1 0x40 MLOAD DUP1 PUSH1 0x40 ADD PUSH1 0x40 MSTORE DUP1 PUSH2 0x117 DUP2 MSTORE PUSH1 0x20 ADD PUSH2 0x11C DUP2 MSTORE POP DUP2 MSTORE PUSH1 0x20 ADD PUSH1 0x40 MLOAD DUP1 PUSH1 0x40 ADD PUSH1 0x40 MSTORE DUP1 PUSH2 0x16F DUP2 MSTORE PUSH1 0x20 ADD PUSH2 0x174 DUP2 MSTORE POP DUP2 MSTORE PUSH1 0x20 ADD PUSH1 0x40 MLOAD DUP1 PUSH1 0x40 ADD PUSH1 0x40 MSTORE DUP1 PUSH2 0x187 DUP2 MSTORE PUSH1 0x20 ADD PUSH2 0x19C DUP2 MSTORE POP DUP2 MSTORE PUSH1 0x20 ADD PUSH1 0x40 MLOAD DUP1 PUSH1 0x40 ADD PUSH1 0x40 MSTORE DUP1 PUSH2 0x1A1 DUP2 MSTORE PUSH1 0x20 ADD PUSH2 0x1A4 DUP2 MSTORE POP DUP2 MSTORE PUSH1 0x20 ADD PUSH1 0x40 MLOAD DUP1 PUSH1 0x40 ADD PUSH1 0x40 MSTORE DUP1 PUSH2 0x1D1 DUP2 MSTORE PUSH1 0x20 ADD PUSH2 0x1D6 DUP2 MSTORE POP DUP2 MSTORE PUSH1 0x20 ADD PUSH1 0x40 MLOAD DUP1 PUSH1 0x40 ADD PUSH1 0x40 MSTORE DUP1 PUSH2 0x1F4 DUP2 MSTORE PUSH1 0x20 ADD PUSH2 0x208 DUP2 MSTORE POP DUP2 MSTORE PUSH1 0x20 ADD PUSH1 0x40 MLOAD DUP1 PUSH1 0x40 ADD PUSH1 0x40 MSTORE DUP1 PUSH2 0x20D DUP2 MSTORE PUSH1 0x20 ADD PUSH2 0x210 DUP2 MSTORE POP DUP2 MSTORE PUSH1 0x20 ADD PUSH1 0x40 MLOAD DUP1 PUSH1 0x40 ADD PUSH1 0x40 MSTORE DUP1 PUSH2 0x244 DUP2 MSTORE PUSH1 0x20 ADD PUSH2 0x249 DUP2 MSTORE POP DUP2 MSTORE PUSH1 0x20 ADD PUSH1 0x40 MLOAD DUP1 PUSH1 0x40 ADD PUSH1 0x40 MSTORE DUP1 PUSH2 0x267 DUP2 MSTORE PUSH1 0x20 ADD PUSH2 0x27B DUP2 MSTORE POP DUP2 MSTORE PUSH1 0x20 ADD PUSH1 0x40 MLOAD DUP1 PUSH1 0x40 ADD PUSH1 0x40 MSTORE DUP1 PUSH2 0x280 DUP2 MSTORE PUSH1 0x20 ADD PUSH2 0x283 DUP2 MSTORE POP DUP2 MSTORE PUSH1 0x20 ADD PUSH1 0x40 MLOAD DUP1 PUSH1 0x40 ADD PUSH1 0x40 MSTORE DUP1 PUSH2 0x2AF DUP2 MSTORE PUSH1 0x20 ADD PUSH2 0x2B3 DUP2 MSTORE POP DUP2 MSTORE PUSH1 0x20 ADD PUSH1 0x40 MLOAD DUP1 PUSH1 0x40 ADD PUSH1 0x40 MSTORE DUP1 PUSH2 0x2CB DUP2 MSTORE PUSH1 0x20 ADD PUSH2 0x2DB DUP2 MSTORE POP DUP2 MSTORE PUSH1 0x20 ADD PUSH1 0x40 MLOAD DUP1 PUSH1 0x40 ADD PUSH1 0x40 MSTORE DUP1 PUSH2 0x2E0 DUP2 MSTORE PUSH1 0x20 ADD PUSH2 0x2E3 DUP2 MSTORE POP DUP2 MSTORE PUSH1 0x20 ADD PUSH1 0x40 MLOAD DUP1 PUSH1 0x40 ADD PUSH1 0x40 MSTORE DUP1 PUSH2 0x30E DUP2 MSTORE PUSH1 0x20 ADD PUSH2 0x312 DUP2 MSTORE POP DUP2 MSTORE PUSH1 0x20 ADD PUSH1 0x40 MLOAD DUP1 PUSH1 0x40 ADD PUSH1 0x40 MSTORE DUP1 PUSH2 0x32A DUP2 MSTORE PUSH1 0x20 ADD PUSH2 0x33A DUP2 MSTORE POP DUP2 MSTORE PUSH1 0x20 ADD PUSH1 0x40 MLOAD DUP1 PUSH1 0x40 ADD PUSH1 0x40 MSTORE DUP1 PUSH2 0x33F DUP2 MSTORE PUSH1 0x20 ADD PUSH2 0x342 DUP2 MSTORE POP DUP2 MSTORE PUSH1 0x20 ADD PUSH1 0x40 MLOAD DUP1 PUSH1 0x40 ADD PUSH1 0x40 MSTORE DUP1 PUSH2 0x36D DUP2 MSTORE PUSH1 0x20 ADD PUSH2 0x370 DUP2 MSTORE POP DUP2 MSTORE PUSH1 0x20 ADD PUSH1 0x40 MLOAD DUP1 PUSH1 0x40 ADD PUSH1 0x40 MSTORE DUP1 PUSH2 0x384 DUP2 MSTORE PUSH1 0x20 ADD PUSH2 0x390 DUP2 MSTORE POP DUP2 MSTORE PUSH1 0x20 ADD PUSH1 0x40 MLOAD DUP1 PUSH1 0x40 ADD PUSH1 0x40 MSTORE DUP1 PUSH2 0x393 DUP2 MSTORE PUSH1 0x20 ADD PUSH2 0x394 DUP2 MSTORE POP DUP2 MSTORE PUSH1 0x20 ADD PUSH1 0x40 MLOAD DUP1 PUSH1 0x40 ADD PUSH1 0x40 MSTORE DUP1 PUSH2 0x3BF DUP2 MSTORE PUSH1 0x20 ADD PUSH2 0x3C3 DUP2 MSTORE POP DUP2 MSTORE PUSH1 0x20 ADD PUSH1 0x40 MLOAD DUP1 PUSH1 0x40 ADD PUSH1 0x40 MSTORE DUP1 PUSH2 0x3CC DUP2 MSTORE PUSH1 0x20 ADD PUSH2 0x3D6 DUP2 MSTORE POP DUP2 MSTORE PUSH1 0x20 ADD PUSH1 0x40 MLOAD DUP1 PUSH1 0x40 ADD PUSH1 0x40 MSTORE DUP1 PUSH2 0x3EB DUP2 MSTORE PUSH1 0x20 ADD PUSH2 0x3ED DUP2 MSTORE POP DUP2 MSTORE PUSH1 0x20 ADD PUSH1 0x40 MLOAD DUP1 PUSH1 0x40 ADD PUSH1 0x40 MSTORE DUP1 PUSH2 0x3FC DUP2 MSTORE PUSH1 0x20 ADD PUSH2 0x406 DUP2 MSTORE POP DUP2 MSTORE PUSH1 0x20 ADD PUSH1 0x40 MLOAD DUP1 PUSH1 0x40 ADD PUSH1 0x40 MSTORE DUP1 PUSH2 0x409 DUP2 MSTORE PUSH1 0x20 ADD PUSH2 0x40A DUP2 MSTORE POP DUP2 MSTORE PUSH1 0x20 ADD PUSH1 0x40 MLOAD DUP1 PUSH1 0x40 ADD PUSH1 0x40 MSTORE DUP1 PUSH2 0x42A DUP2 MSTORE PUSH1 0x20 ADD PUSH2 0x430 DUP2 MSTORE POP DUP2 MSTORE PUSH1 0x20 ADD PUSH1 0x40 MLOAD DUP1 PUSH1 0x40 ADD PUSH1 0x40 MSTORE DUP1 PUSH2 0x437 DUP2 MSTORE PUSH1 0x20 ADD PUSH2 0x43A DUP2 MSTORE POP DUP2 MSTORE PUSH1 0x20 ADD PUSH1 0x40 MLOAD DUP1 PUSH1 0x40 ADD PUSH1 0x40 MSTORE DUP1 PUSH2 0x43D DUP2 MSTORE PUSH1 0x20 ADD PUSH2 0x43E DUP2 MSTORE POP DUP2 MSTORE POP SWAP1 POP PUSH1 0x0 PUSH1 0x40 MLOAD DUP1 PUSH2 0x340 ADD PUSH1 0x40 MSTORE DUP1 PUSH1 0x40 MLOAD DUP1 PUSH1 0x40 ADD PUSH1 0x40 MSTORE DUP1 PUSH1 0x3D DUP2 MSTORE PUSH1 0x20 ADD PUSH1 0x58 DUP2 MSTORE POP DUP2 MSTORE PUSH1 0x20 ADD PUSH1 0x40 MLOAD DUP1 PUSH1 0x40 ADD PUSH1 0x40 MSTORE DUP1 PUSH1 0x99 DUP2 MSTORE PUSH1 0x20 ADD PUSH1 0xA0 DUP2 MSTORE POP DUP2 MSTORE PUSH1 0x20 ADD PUSH1 0x40 MLOAD DUP1 PUSH1 0x40 ADD PUSH1 0x40 MSTORE DUP1 PUSH1 0xD3 DUP2 MSTORE PUSH1 0x20 ADD PUSH1 0xE8 DUP2 MSTORE POP DUP2 MSTORE PUSH1 0x20 ADD PUSH1 0x40 MLOAD DUP1 PUSH1 0x40 ADD PUSH1 0x40 MSTORE DUP1 PUSH2 0x121 DUP2 MSTORE PUSH1 0x20 ADD PUSH2 0x12B DUP2 MSTORE POP DUP2 MSTORE PUSH1 0x20 ADD PUSH1 0x40 MLOAD DUP1 PUSH1 0x40 ADD PUSH1 0x40 MSTORE DUP1 PUSH2 0x175 DUP2 MSTORE PUSH1 0x20 ADD PUSH2 0x186 DUP2 MSTORE POP DUP2 MSTORE PUSH1 0x20 ADD PUSH1 0x40 MLOAD DUP1 PUSH1 0x40 ADD PUSH1 0x40 MSTORE DUP1 PUSH2 0x1A5 DUP2 MSTORE PUSH1 0x20 ADD PUSH2 0x1AE DUP2 MSTORE POP DUP2 MSTORE PUSH1 0x20 ADD PUSH1 0x40 MLOAD DUP1 PUSH1 0x40 ADD PUSH1 0x40 MSTORE DUP1 PUSH2 0x1D7 DUP2 MSTORE PUSH1 0x20 ADD PUSH2 0x1E8 DUP2 MSTORE POP DUP2 MSTORE PUSH1 0x20 ADD PUSH1 0x40 MLOAD DUP1 PUSH1 0x40 ADD PUSH1 0x40 MSTORE DUP1 PUSH2 0x215 DUP2 MSTORE PUSH1 0x20 ADD PUSH2 0x21D DUP2 MSTORE POP DUP2 MSTORE PUSH1 0x20 ADD PUSH1 0x40 MLOAD DUP1 PUSH1 0x40 ADD PUSH1 0x40 MSTORE DUP1 PUSH2 0x24A DUP2 MSTORE PUSH1 0x20 ADD PUSH2 0x25B DUP2 MSTORE POP DUP2 MSTORE PUSH1 0x20 ADD PUSH1 0x40 MLOAD DUP1 PUSH1 0x40 ADD PUSH1 0x40 MSTORE DUP1 PUSH2 0x288 DUP2 MSTORE PUSH1 0x20 ADD PUSH2 0x290 DUP2 MSTORE POP DUP2 MSTORE PUSH1 0x20 ADD PUSH1 0x40 MLOAD DUP1 PUSH1 0x40 ADD PUSH1 0x40 MSTORE DUP1 PUSH2 0x2B4 DUP2 MSTORE PUSH1 0x20 ADD PUSH2 0x2C1 DUP2 MSTORE POP DUP2 MSTORE PUSH1 0x20 ADD PUSH1 0x40 MLOAD DUP1 PUSH1 0x40 ADD PUSH1 0x40 MSTORE DUP1 PUSH2 0x2E8 DUP2 MSTORE PUSH1 0x20 ADD PUSH2 0x2EF DUP2 MSTORE POP DUP2 MSTORE PUSH1 0x20 ADD PUSH1 0x40 MLOAD DUP1 PUSH1 0x40 ADD PUSH1 0x40 MSTORE DUP1 PUSH2 0x244 DUP2 MSTORE PUSH1 0x20 ADD PUSH2 0x249 DUP2 MSTORE POP DUP2 MSTORE PUSH1 0x20 ADD PUSH1 0x40 MLOAD DUP1 PUSH1 0x40 ADD PUSH1 0x40 MSTORE DUP1 PUSH2 0x267 DUP2 MSTORE PUSH1 0x20 ADD PUSH2 0x27B DUP2 MSTORE POP DUP2 MSTORE PUSH1 0x20 ADD PUSH1 0x40 MLOAD DUP1 PUSH1 0x40 ADD PUSH1 0x40 MSTORE DUP1 PUSH2 0x280 DUP2 MSTORE PUSH1 0x20 ADD PUSH2 0x283 DUP2 MSTORE POP DUP2 MSTORE PUSH1 0x20 ADD PUSH1 0x40 MLOAD DUP1 PUSH1 0x40 ADD PUSH1 0x40 MSTORE DUP1 PUSH2 0x2AF DUP2 MSTORE PUSH1 0x20 ADD PUSH2 0x2B3 DUP2 MSTORE POP DUP2 MSTORE PUSH1 0x20 ADD PUSH1 0x40 MLOAD DUP1 PUSH1 0x40 ADD PUSH1 0x40 MSTORE DUP1 PUSH2 0x313 DUP2 MSTORE PUSH1 0x20 ADD PUSH2 0x320 DUP2 MSTORE POP DUP2 MSTORE PUSH1 0x20 ADD PUSH1 0x40 MLOAD DUP1 PUSH1 0x40 ADD PUSH1 0x40 MSTORE DUP1 PUSH2 0x347 DUP2 MSTORE PUSH1 0x20 ADD PUSH2 0x34E DUP2 MSTORE POP DUP2 MSTORE PUSH1 0x20 ADD PUSH1 0x40 MLOAD DUP1 PUSH1 0x40 ADD PUSH1 0x40 MSTORE DUP1 PUSH2 0x371 DUP2 MSTORE PUSH1 0x20 ADD PUSH2 0x37C DUP2 MSTORE POP DUP2 MSTORE PUSH1 0x20 ADD PUSH1 0x40 MLOAD DUP1 PUSH1 0x40 ADD PUSH1 0x40 MSTORE DUP1 PUSH2 0x397 DUP2 MSTORE PUSH1 0x20 ADD PUSH2 0x39B DUP2 MSTORE POP DUP2 MSTORE PUSH1 0x20 ADD PUSH1 0x40 MLOAD DUP1 PUSH1 0x40 ADD PUSH1 0x40 MSTORE DUP1 PUSH2 0x3C4 DUP2 MSTORE PUSH1 0x20 ADD PUSH2 0x3CB DUP2 MSTORE POP DUP2 MSTORE PUSH1 0x20 ADD PUSH1 0x40 MLOAD DUP1 PUSH1 0x40 ADD PUSH1 0x40 MSTORE DUP1 PUSH2 0x3D7 DUP2 MSTORE PUSH1 0x20 ADD PUSH2 0x3DA DUP2 MSTORE POP DUP2 MSTORE PUSH1 0x20 ADD PUSH1 0x40 MLOAD DUP1 PUSH1 0x40 ADD PUSH1 0x40 MSTORE DUP1 PUSH2 0x3EE DUP2 MSTORE PUSH1 0x20 ADD PUSH2 0x3F5 DUP2 MSTORE POP DUP2 MSTORE PUSH1 0x20 ADD PUSH1 0x40 MLOAD DUP1 PUSH1 0x40 ADD PUSH1 0x40 MSTORE DUP1 PUSH2 0x40D DUP2 MSTORE PUSH1 0x20 ADD PUSH2 0x411 DUP2 MSTORE POP DUP2 MSTORE PUSH1 0x20 ADD PUSH1 0x40 MLOAD DUP1 PUSH1 0x40 ADD PUSH1 0x40 MSTORE DUP1 PUSH2 0x431 DUP2 MSTORE PUSH1 0x20 ADD PUSH2 0x436 DUP2 MSTORE POP DUP2 MSTORE PUSH1 0x20 ADD PUSH1 0x40 MLOAD DUP1 PUSH1 0x40 ADD PUSH1 0x40 MSTORE DUP1 PUSH2 0x43F DUP2 MSTORE PUSH1 0x20 ADD PUSH2 0x442 DUP2 MSTORE POP DUP2 MSTORE POP SWAP1 POP PUSH1 0x0 PUSH1 0x1 DUP8 PUSH2 0x2570 SWAP2 SWAP1 PUSH2 0x34F0 JUMP JUMPDEST SWAP1 POP PUSH1 0x0 JUMPDEST PUSH1 0x18 DUP2 LT ISZERO PUSH2 0x26C1 JUMPI PUSH1 0x0 DUP7 DUP3 PUSH1 0x18 DUP2 LT PUSH2 0x25B9 JUMPI PUSH32 0x4E487B7100000000000000000000000000000000000000000000000000000000 PUSH1 0x0 MSTORE PUSH1 0x32 PUSH1 0x4 MSTORE PUSH1 0x24 PUSH1 0x0 REVERT JUMPDEST PUSH1 0x20 MUL ADD MLOAD SWAP1 POP DUP1 PUSH1 0x0 PUSH1 0x2 DUP2 LT PUSH2 0x25FA JUMPI PUSH32 0x4E487B7100000000000000000000000000000000000000000000000000000000 PUSH1 0x0 MSTORE PUSH1 0x32 PUSH1 0x4 MSTORE PUSH1 0x24 PUSH1 0x0 REVERT JUMPDEST PUSH1 0x20 MUL ADD MLOAD DUP4 LT ISZERO DUP1 ISZERO PUSH2 0x264C JUMPI POP DUP1 PUSH1 0x1 PUSH1 0x2 DUP2 LT PUSH2 0x2643 JUMPI PUSH32 0x4E487B7100000000000000000000000000000000000000000000000000000000 PUSH1 0x0 MSTORE PUSH1 0x32 PUSH1 0x4 MSTORE PUSH1 0x24 PUSH1 0x0 REVERT JUMPDEST PUSH1 0x20 MUL ADD MLOAD DUP4 GT ISZERO JUMPDEST ISZERO PUSH2 0x2661 JUMPI PUSH1 0x1 SWAP8 POP POP POP POP POP POP POP POP PUSH2 0x2AB8 JUMP JUMPDEST DUP1 PUSH1 0x0 PUSH1 0x2 DUP2 LT PUSH2 0x269B JUMPI PUSH32 0x4E487B7100000000000000000000000000000000000000000000000000000000 PUSH1 0x0 MSTORE PUSH1 0x32 PUSH1 0x4 MSTORE PUSH1 0x24 PUSH1 0x0 REVERT JUMPDEST PUSH1 0x20 MUL ADD MLOAD DUP4 LT ISZERO PUSH2 0x26AD JUMPI POP PUSH2 0x26C1 JUMP JUMPDEST POP DUP1 DUP1 PUSH2 0x26B9 SWAP1 PUSH2 0x3686 JUMP JUMPDEST SWAP2 POP POP PUSH2 0x2575 JUMP JUMPDEST POP PUSH1 0x0 JUMPDEST PUSH1 0x1E DUP2 LT ISZERO PUSH2 0x2811 JUMPI PUSH1 0x0 DUP6 DUP3 PUSH1 0x1E DUP2 LT PUSH2 0x2709 JUMPI PUSH32 0x4E487B7100000000000000000000000000000000000000000000000000000000 PUSH1 0x0 MSTORE PUSH1 0x32 PUSH1 0x4 MSTORE PUSH1 0x24 PUSH1 0x0 REVERT JUMPDEST PUSH1 0x20 MUL ADD MLOAD SWAP1 POP DUP1 PUSH1 0x0 PUSH1 0x2 DUP2 LT PUSH2 0x274A JUMPI PUSH32 0x4E487B7100000000000000000000000000000000000000000000000000000000 PUSH1 0x0 MSTORE PUSH1 0x32 PUSH1 0x4 MSTORE PUSH1 0x24 PUSH1 0x0 REVERT JUMPDEST PUSH1 0x20 MUL ADD MLOAD DUP4 LT ISZERO DUP1 ISZERO PUSH2 0x279C JUMPI POP DUP1 PUSH1 0x1 PUSH1 0x2 DUP2 LT PUSH2 0x2793 JUMPI PUSH32 0x4E487B7100000000000000000000000000000000000000000000000000000000 PUSH1 0x0 MSTORE PUSH1 0x32 PUSH1 0x4 MSTORE PUSH1 0x24 PUSH1 0x0 REVERT JUMPDEST PUSH1 0x20 MUL ADD MLOAD DUP4 GT ISZERO JUMPDEST ISZERO PUSH2 0x27B1 JUMPI PUSH1 0x2 SWAP8 POP POP POP POP POP POP POP POP PUSH2 0x2AB8 JUMP JUMPDEST DUP1 PUSH1 0x0 PUSH1 0x2 DUP2 LT PUSH2 0x27EB JUMPI PUSH32 0x4E487B7100000000000000000000000000000000000000000000000000000000 PUSH1 0x0 MSTORE PUSH1 0x32 PUSH1 0x4 MSTORE PUSH1 0x24 PUSH1 0x0 REVERT JUMPDEST PUSH1 0x20 MUL ADD MLOAD DUP4 LT ISZERO PUSH2 0x27FD JUMPI POP PUSH2 0x2811 JUMP JUMPDEST POP DUP1 DUP1 PUSH2 0x2809 SWAP1 PUSH2 0x3686 JUMP JUMPDEST SWAP2 POP POP PUSH2 0x26C5 JUMP JUMPDEST POP PUSH1 0x0 JUMPDEST PUSH1 0x20 DUP2 LT ISZERO PUSH2 0x2961 JUMPI PUSH1 0x0 DUP5 DUP3 PUSH1 0x20 DUP2 LT PUSH2 0x2859 JUMPI PUSH32 0x4E487B7100000000000000000000000000000000000000000000000000000000 PUSH1 0x0 MSTORE PUSH1 0x32 PUSH1 0x4 MSTORE PUSH1 0x24 PUSH1 0x0 REVERT JUMPDEST PUSH1 0x20 MUL ADD MLOAD SWAP1 POP DUP1 PUSH1 0x0 PUSH1 0x2 DUP2 LT PUSH2 0x289A JUMPI PUSH32 0x4E487B7100000000000000000000000000000000000000000000000000000000 PUSH1 0x0 MSTORE PUSH1 0x32 PUSH1 0x4 MSTORE PUSH1 0x24 PUSH1 0x0 REVERT JUMPDEST PUSH1 0x20 MUL ADD MLOAD DUP4 LT ISZERO DUP1 ISZERO PUSH2 0x28EC JUMPI POP DUP1 PUSH1 0x1 PUSH1 0x2 DUP2 LT PUSH2 0x28E3 JUMPI PUSH32 0x4E487B7100000000000000000000000000000000000000000000000000000000 PUSH1 0x0 MSTORE PUSH1 0x32 PUSH1 0x4 MSTORE PUSH1 0x24 PUSH1 0x0 REVERT JUMPDEST PUSH1 0x20 MUL ADD MLOAD DUP4 GT ISZERO JUMPDEST ISZERO PUSH2 0x2901 JUMPI PUSH1 0x3 SWAP8 POP POP POP POP POP POP POP POP PUSH2 0x2AB8 JUMP JUMPDEST DUP1 PUSH1 0x0 PUSH1 0x2 DUP2 LT PUSH2 0x293B JUMPI PUSH32 0x4E487B7100000000000000000000000000000000000000000000000000000000 PUSH1 0x0 MSTORE PUSH1 0x32 PUSH1 0x4 MSTORE PUSH1 0x24 PUSH1 0x0 REVERT JUMPDEST PUSH1 0x20 MUL ADD MLOAD DUP4 LT ISZERO PUSH2 0x294D JUMPI POP PUSH2 0x2961 JUMP JUMPDEST POP DUP1 DUP1 PUSH2 0x2959 SWAP1 PUSH2 0x3686 JUMP JUMPDEST SWAP2 POP POP PUSH2 0x2815 JUMP JUMPDEST POP PUSH1 0x0 JUMPDEST PUSH1 0x1A DUP2 LT ISZERO PUSH2 0x2AB1 JUMPI PUSH1 0x0 DUP4 DUP3 PUSH1 0x1A DUP2 LT PUSH2 0x29A9 JUMPI PUSH32 0x4E487B7100000000000000000000000000000000000000000000000000000000 PUSH1 0x0 MSTORE PUSH1 0x32 PUSH1 0x4 MSTORE PUSH1 0x24 PUSH1 0x0 REVERT JUMPDEST PUSH1 0x20 MUL ADD MLOAD SWAP1 POP DUP1 PUSH1 0x0 PUSH1 0x2 DUP2 LT PUSH2 0x29EA JUMPI PUSH32 0x4E487B7100000000000000000000000000000000000000000000000000000000 PUSH1 0x0 MSTORE PUSH1 0x32 PUSH1 0x4 MSTORE PUSH1 0x24 PUSH1 0x0 REVERT JUMPDEST PUSH1 0x20 MUL ADD MLOAD DUP4 LT ISZERO DUP1 ISZERO PUSH2 0x2A3C JUMPI POP DUP1 PUSH1 0x1 PUSH1 0x2 DUP2 LT PUSH2 0x2A33 JUMPI PUSH32 0x4E487B7100000000000000000000000000000000000000000000000000000000 PUSH1 0x0 MSTORE PUSH1 0x32 PUSH1 0x4 MSTORE PUSH1 0x24 PUSH1 0x0 REVERT JUMPDEST PUSH1 0x20 MUL ADD MLOAD DUP4 GT ISZERO JUMPDEST ISZERO PUSH2 0x2A51 JUMPI PUSH1 0x4 SWAP8 POP POP POP POP POP POP POP POP PUSH2 0x2AB8 JUMP JUMPDEST DUP1 PUSH1 0x0 PUSH1 0x2 DUP2 LT PUSH2 0x2A8B JUMPI PUSH32 0x4E487B7100000000000000000000000000000000000000000000000000000000 PUSH1 0x0 MSTORE PUSH1 0x32 PUSH1 0x4 MSTORE PUSH1 0x24 PUSH1 0x0 REVERT JUMPDEST PUSH1 0x20 MUL ADD MLOAD DUP4 LT ISZERO PUSH2 0x2A9D JUMPI POP PUSH2 0x2AB1 JUMP JUMPDEST POP DUP1 DUP1 PUSH2 0x2AA9 SWAP1 PUSH2 0x3686 JUMP JUMPDEST SWAP2 POP POP PUSH2 0x2965 JUMP JUMPDEST POP POP POP POP POP POP JUMPDEST SWAP2 SWAP1 POP JUMP JUMPDEST PUSH1 0x1 PUSH1 0x2 DUP3 DUP2 SLOAD DUP2 LT PUSH2 0x2AF9 JUMPI PUSH32 0x4E487B7100000000000000000000000000000000000000000000000000000000 PUSH1 0x0 MSTORE PUSH1 0x32 PUSH1 0x4 MSTORE PUSH1 0x24 PUSH1 0x0 REVERT JUMPDEST SWAP1 PUSH1 0x0 MSTORE PUSH1 0x20 PUSH1 0x0 KECCAK256 ADD SLOAD PUSH2 0x2B0E SWAP2 SWAP1 PUSH2 0x34F0 JUMP JUMPDEST PUSH1 0x2 DUP3 DUP2 SLOAD DUP2 LT PUSH2 0x2B48 JUMPI PUSH32 0x4E487B7100000000000000000000000000000000000000000000000000000000 PUSH1 0x0 MSTORE PUSH1 0x32 PUSH1 0x4 MSTORE PUSH1 0x24 PUSH1 0x0 REVERT JUMPDEST SWAP1 PUSH1 0x0 MSTORE PUSH1 0x20 PUSH1 0x0 KECCAK256 ADD DUP2 SWAP1 SSTORE POP POP JUMP JUMPDEST DUP3 DUP1 SLOAD PUSH2 0x2B65 SWAP1 PUSH2 0x3654 JUMP JUMPDEST SWAP1 PUSH1 0x0 MSTORE PUSH1 0x20 PUSH1 0x0 KECCAK256 SWAP1 PUSH1 0x1F ADD PUSH1 0x20 SWAP1 DIV DUP2 ADD SWAP3 DUP3 PUSH2 0x2B87 JUMPI PUSH1 0x0 DUP6 SSTORE PUSH2 0x2BCE JUMP JUMPDEST DUP3 PUSH1 0x1F LT PUSH2 0x2BA0 JUMPI DUP1 MLOAD PUSH1 0xFF NOT AND DUP4 DUP1 ADD OR DUP6 SSTORE PUSH2 0x2BCE JUMP JUMPDEST DUP3 DUP1 ADD PUSH1 0x1 ADD DUP6 SSTORE DUP3 ISZERO PUSH2 0x2BCE JUMPI SWAP2 DUP3 ADD JUMPDEST DUP3 DUP2 GT ISZERO PUSH2 0x2BCD JUMPI DUP3 MLOAD DUP3 SSTORE SWAP2 PUSH1 0x20 ADD SWAP2 SWAP1 PUSH1 0x1 ADD SWAP1 PUSH2 0x2BB2 JUMP JUMPDEST JUMPDEST POP SWAP1 POP PUSH2 0x2BDB SWAP2 SWAP1 PUSH2 0x2BDF JUMP JUMPDEST POP SWAP1 JUMP JUMPDEST JUMPDEST DUP1 DUP3 GT ISZERO PUSH2 0x2BF8 JUMPI PUSH1 0x0 DUP2 PUSH1 0x0 SWAP1 SSTORE POP PUSH1 0x1 ADD PUSH2 0x2BE0 JUMP JUMPDEST POP SWAP1 JUMP JUMPDEST PUSH1 0x0 PUSH2 0x2C0F PUSH2 0x2C0A DUP5 PUSH2 0x344C JUMP JUMPDEST PUSH2 0x341B JUMP JUMPDEST SWAP1 POP DUP1 DUP4 DUP3 MSTORE PUSH1 0x20 DUP3 ADD SWAP1 POP DUP3 PUSH1 0x0 JUMPDEST DUP6 DUP2 LT ISZERO PUSH2 0x2C4F JUMPI DUP2 CALLDATALOAD DUP6 ADD PUSH2 0x2C35 DUP9 DUP3 PUSH2 0x2D6C JUMP JUMPDEST DUP5 MSTORE PUSH1 0x20 DUP5 ADD SWAP4 POP PUSH1 0x20 DUP4 ADD SWAP3 POP POP PUSH1 0x1 DUP2 ADD SWAP1 POP PUSH2 0x2C1F JUMP JUMPDEST POP POP POP SWAP4 SWAP3 POP POP POP JUMP JUMPDEST PUSH1 0x0 PUSH2 0x2C6C PUSH2 0x2C67 DUP5 PUSH2 0x3478 JUMP JUMPDEST PUSH2 0x341B JUMP JUMPDEST SWAP1 POP DUP1 DUP4 DUP3 MSTORE PUSH1 0x20 DUP3 ADD SWAP1 POP DUP3 DUP6 PUSH1 0x20 DUP7 MUL DUP3 ADD GT ISZERO PUSH2 0x2C8B JUMPI PUSH1 0x0 DUP1 REVERT JUMPDEST PUSH1 0x0 JUMPDEST DUP6 DUP2 LT ISZERO PUSH2 0x2CBB JUMPI DUP2 PUSH2 0x2CA1 DUP9 DUP3 PUSH2 0x2D96 JUMP JUMPDEST DUP5 MSTORE PUSH1 0x20 DUP5 ADD SWAP4 POP PUSH1 0x20 DUP4 ADD SWAP3 POP POP PUSH1 0x1 DUP2 ADD SWAP1 POP PUSH2 0x2C8E JUMP JUMPDEST POP POP POP SWAP4 SWAP3 POP POP POP JUMP JUMPDEST PUSH1 0x0 PUSH2 0x2CD8 PUSH2 0x2CD3 DUP5 PUSH2 0x34A4 JUMP JUMPDEST PUSH2 0x341B JUMP JUMPDEST SWAP1 POP DUP3 DUP2 MSTORE PUSH1 0x20 DUP2 ADD DUP5 DUP5 DUP5 ADD GT ISZERO PUSH2 0x2CF0 JUMPI PUSH1 0x0 DUP1 REVERT JUMPDEST PUSH2 0x2CFB DUP5 DUP3 DUP6 PUSH2 0x35E8 JUMP JUMPDEST POP SWAP4 SWAP3 POP POP POP JUMP JUMPDEST PUSH1 0x0 DUP2 CALLDATALOAD SWAP1 POP PUSH2 0x2D12 DUP2 PUSH2 0x376D JUMP JUMPDEST SWAP3 SWAP2 POP POP JUMP JUMPDEST PUSH1 0x0 DUP3 PUSH1 0x1F DUP4 ADD SLT PUSH2 0x2D29 JUMPI PUSH1 0x0 DUP1 REVERT JUMPDEST DUP2 CALLDATALOAD PUSH2 0x2D39 DUP5 DUP3 PUSH1 0x20 DUP7 ADD PUSH2 0x2BFC JUMP JUMPDEST SWAP2 POP POP SWAP3 SWAP2 POP POP JUMP JUMPDEST PUSH1 0x0 DUP3 PUSH1 0x1F DUP4 ADD SLT PUSH2 0x2D53 JUMPI PUSH1 0x0 DUP1 REVERT JUMPDEST DUP2 CALLDATALOAD PUSH2 0x2D63 DUP5 DUP3 PUSH1 0x20 DUP7 ADD PUSH2 0x2C59 JUMP JUMPDEST SWAP2 POP POP SWAP3 SWAP2 POP POP JUMP JUMPDEST PUSH1 0x0 DUP3 PUSH1 0x1F DUP4 ADD SLT PUSH2 0x2D7D JUMPI PUSH1 0x0 DUP1 REVERT JUMPDEST DUP2 CALLDATALOAD PUSH2 0x2D8D DUP5 DUP3 PUSH1 0x20 DUP7 ADD PUSH2 0x2CC5 JUMP JUMPDEST SWAP2 POP POP SWAP3 SWAP2 POP POP JUMP JUMPDEST PUSH1 0x0 DUP2 CALLDATALOAD SWAP1 POP PUSH2 0x2DA5 DUP2 PUSH2 0x3784 JUMP JUMPDEST SWAP3 SWAP2 POP POP JUMP JUMPDEST PUSH1 0x0 PUSH1 0x20 DUP3 DUP5 SUB SLT ISZERO PUSH2 0x2DBD JUMPI PUSH1 0x0 DUP1 REVERT JUMPDEST PUSH1 0x0 PUSH2 0x2DCB DUP5 DUP3 DUP6 ADD PUSH2 0x2D03 JUMP JUMPDEST SWAP2 POP POP SWAP3 SWAP2 POP POP JUMP JUMPDEST PUSH1 0x0 DUP1 PUSH1 0x0 PUSH1 0x60 DUP5 DUP7 SUB SLT ISZERO PUSH2 0x2DE9 JUMPI PUSH1 0x0 DUP1 REVERT JUMPDEST PUSH1 0x0 PUSH2 0x2DF7 DUP7 DUP3 DUP8 ADD PUSH2 0x2D03 JUMP JUMPDEST SWAP4 POP POP PUSH1 0x20 PUSH2 0x2E08 DUP7 DUP3 DUP8 ADD PUSH2 0x2D03 JUMP JUMPDEST SWAP3 POP POP PUSH1 0x40 PUSH2 0x2E19 DUP7 DUP3 DUP8 ADD PUSH2 0x2D96 JUMP JUMPDEST SWAP2 POP POP SWAP3 POP SWAP3 POP SWAP3 JUMP JUMPDEST PUSH1 0x0 DUP1 PUSH1 0x40 DUP4 DUP6 SUB SLT ISZERO PUSH2 0x2E36 JUMPI PUSH1 0x0 DUP1 REVERT JUMPDEST PUSH1 0x0 PUSH2 0x2E44 DUP6 DUP3 DUP7 ADD PUSH2 0x2D03 JUMP JUMPDEST SWAP3 POP POP PUSH1 0x20 PUSH2 0x2E55 DUP6 DUP3 DUP7 ADD PUSH2 0x2D96 JUMP JUMPDEST SWAP2 POP POP SWAP3 POP SWAP3 SWAP1 POP JUMP JUMPDEST PUSH1 0x0 DUP1 PUSH1 0x0 PUSH1 0x60 DUP5 DUP7 SUB SLT ISZERO PUSH2 0x2E74 JUMPI PUSH1 0x0 DUP1 REVERT JUMPDEST PUSH1 0x0 DUP5 ADD CALLDATALOAD PUSH8 0xFFFFFFFFFFFFFFFF DUP2 GT ISZERO PUSH2 0x2E8E JUMPI PUSH1 0x0 DUP1 REVERT JUMPDEST PUSH2 0x2E9A DUP7 DUP3 DUP8 ADD PUSH2 0x2D18 JUMP JUMPDEST SWAP4 POP POP PUSH1 0x20 DUP5 ADD CALLDATALOAD PUSH8 0xFFFFFFFFFFFFFFFF DUP2 GT ISZERO PUSH2 0x2EB7 JUMPI PUSH1 0x0 DUP1 REVERT JUMPDEST PUSH2 0x2EC3 DUP7 DUP3 DUP8 ADD PUSH2 0x2D18 JUMP JUMPDEST SWAP3 POP POP PUSH1 0x40 DUP5 ADD CALLDATALOAD PUSH8 0xFFFFFFFFFFFFFFFF DUP2 GT ISZERO PUSH2 0x2EE0 JUMPI PUSH1 0x0 DUP1 REVERT JUMPDEST PUSH2 0x2EEC DUP7 DUP3 DUP8 ADD PUSH2 0x2D42 JUMP JUMPDEST SWAP2 POP POP SWAP3 POP SWAP3 POP SWAP3 JUMP JUMPDEST PUSH1 0x0 PUSH1 0x20 DUP3 DUP5 SUB SLT ISZERO PUSH2 0x2F08 JUMPI PUSH1 0x0 DUP1 REVERT JUMPDEST PUSH1 0x0 PUSH2 0x2F16 DUP5 DUP3 DUP6 ADD PUSH2 0x2D96 JUMP JUMPDEST SWAP2 POP POP SWAP3 SWAP2 POP POP JUMP JUMPDEST PUSH1 0x0 DUP1 PUSH1 0x0 PUSH1 0x60 DUP5 DUP7 SUB SLT ISZERO PUSH2 0x2F34 JUMPI PUSH1 0x0 DUP1 REVERT JUMPDEST PUSH1 0x0 PUSH2 0x2F42 DUP7 DUP3 DUP8 ADD PUSH2 0x2D96 JUMP JUMPDEST SWAP4 POP POP PUSH1 0x20 DUP5 ADD CALLDATALOAD PUSH8 0xFFFFFFFFFFFFFFFF DUP2 GT ISZERO PUSH2 0x2F5F JUMPI PUSH1 0x0 DUP1 REVERT JUMPDEST PUSH2 0x2F6B DUP7 DUP3 DUP8 ADD PUSH2 0x2D6C JUMP JUMPDEST SWAP3 POP POP PUSH1 0x40 DUP5 ADD CALLDATALOAD PUSH8 0xFFFFFFFFFFFFFFFF DUP2 GT ISZERO PUSH2 0x2F88 JUMPI PUSH1 0x0 DUP1 REVERT JUMPDEST PUSH2 0x2F94 DUP7 DUP3 DUP8 ADD PUSH2 0x2D6C JUMP JUMPDEST SWAP2 POP POP SWAP3 POP SWAP3 POP SWAP3 JUMP JUMPDEST PUSH2 0x2FA7 DUP2 PUSH2 0x35A0 JUMP JUMPDEST DUP3 MSTORE POP POP JUMP JUMPDEST PUSH2 0x2FB6 DUP2 PUSH2 0x35B2 JUMP JUMPDEST DUP3 MSTORE POP POP JUMP JUMPDEST PUSH1 0x0 PUSH2 0x2FC7 DUP3 PUSH2 0x34D4 JUMP JUMPDEST PUSH2 0x2FD1 DUP2 DUP6 PUSH2 0x34DF JUMP JUMPDEST SWAP4 POP PUSH2 0x2FE1 DUP2 DUP6 PUSH1 0x20 DUP7 ADD PUSH2 0x35F7 JUMP JUMPDEST PUSH2 0x2FEA DUP2 PUSH2 0x375C JUMP JUMPDEST DUP5 ADD SWAP2 POP POP SWAP3 SWAP2 POP POP JUMP JUMPDEST PUSH1 0x0 PUSH2 0x3002 PUSH1 0x29 DUP4 PUSH2 0x34DF JUMP JUMPDEST SWAP2 POP PUSH32 0x43616E6E6F74206D696E742E204172726179732061726520646966666572656E PUSH1 0x0 DUP4 ADD MSTORE PUSH32 0x74206C656E677468730000000000000000000000000000000000000000000000 PUSH1 0x20 DUP4 ADD MSTORE PUSH1 0x40 DUP3 ADD SWAP1 POP SWAP2 SWAP1 POP JUMP JUMPDEST PUSH1 0x0 PUSH2 0x3068 PUSH1 0x17 DUP4 PUSH2 0x34DF JUMP JUMPDEST SWAP2 POP PUSH32 0x547279696E6720746F206D696E7420746F6F206D756368000000000000000000 PUSH1 0x0 DUP4 ADD MSTORE PUSH1 0x20 DUP3 ADD SWAP1 POP SWAP2 SWAP1 POP JUMP JUMPDEST PUSH1 0x0 PUSH2 0x30A8 PUSH1 0x1C DUP4 PUSH2 0x34DF JUMP JUMPDEST SWAP2 POP PUSH32 0x48696265726E6174696F6E20506572696F6420496E2045666665637400000000 PUSH1 0x0 DUP4 ADD MSTORE PUSH1 0x20 DUP3 ADD SWAP1 POP SWAP2 SWAP1 POP JUMP JUMPDEST PUSH1 0x0 PUSH2 0x30E8 PUSH1 0xF DUP4 PUSH2 0x34DF JUMP JUMPDEST SWAP2 POP PUSH32 0x4E6F20646174612073656E7420696E0000000000000000000000000000000000 PUSH1 0x0 DUP4 ADD MSTORE PUSH1 0x20 DUP3 ADD SWAP1 POP SWAP2 SWAP1 POP JUMP JUMPDEST PUSH1 0x0 PUSH2 0x3128 PUSH1 0x23 DUP4 PUSH2 0x34DF JUMP JUMPDEST SWAP2 POP PUSH32 0x46656520656E7465726564206973206E6F742066656520666F72207468652073 PUSH1 0x0 DUP4 ADD MSTORE PUSH32 0x6C6F740000000000000000000000000000000000000000000000000000000000 PUSH1 0x20 DUP4 ADD MSTORE PUSH1 0x40 DUP3 ADD SWAP1 POP SWAP2 SWAP1 POP JUMP JUMPDEST PUSH1 0x0 PUSH2 0x318E PUSH1 0x28 DUP4 PUSH2 0x34DF JUMP JUMPDEST SWAP2 POP PUSH32 0x416C6C20736C6F747320666F72207468617420746869732073697A6520626565 PUSH1 0x0 DUP4 ADD MSTORE PUSH32 0x6E206D696E746564000000000000000000000000000000000000000000000000 PUSH1 0x20 DUP4 ADD MSTORE PUSH1 0x40 DUP3 ADD SWAP1 POP SWAP2 SWAP1 POP JUMP JUMPDEST PUSH1 0x0 PUSH2 0x31F4 PUSH1 0x1F DUP4 PUSH2 0x34DF JUMP JUMPDEST SWAP2 POP PUSH32 0x52656163686564206D6178696D756D206E756D626572206F6620656469747300 PUSH1 0x0 DUP4 ADD MSTORE PUSH1 0x20 DUP3 ADD SWAP1 POP SWAP2 SWAP1 POP JUMP JUMPDEST PUSH2 0x3230 DUP2 PUSH2 0x35DE JUMP JUMPDEST DUP3 MSTORE POP POP JUMP JUMPDEST PUSH1 0x0 PUSH1 0x20 DUP3 ADD SWAP1 POP PUSH2 0x324B PUSH1 0x0 DUP4 ADD DUP5 PUSH2 0x2F9E JUMP JUMPDEST SWAP3 SWAP2 POP POP JUMP JUMPDEST PUSH1 0x0 PUSH1 0x20 DUP3 ADD SWAP1 POP PUSH2 0x3266 PUSH1 0x0 DUP4 ADD DUP5 PUSH2 0x2FAD JUMP JUMPDEST SWAP3 SWAP2 POP POP JUMP JUMPDEST PUSH1 0x0 PUSH1 0x20 DUP3 ADD SWAP1 POP DUP2 DUP2 SUB PUSH1 0x0 DUP4 ADD MSTORE PUSH2 0x3285 DUP2 PUSH2 0x2FF5 JUMP JUMPDEST SWAP1 POP SWAP2 SWAP1 POP JUMP JUMPDEST PUSH1 0x0 PUSH1 0x20 DUP3 ADD SWAP1 POP DUP2 DUP2 SUB PUSH1 0x0 DUP4 ADD MSTORE PUSH2 0x32A5 DUP2 PUSH2 0x305B JUMP JUMPDEST SWAP1 POP SWAP2 SWAP1 POP JUMP JUMPDEST PUSH1 0x0 PUSH1 0x20 DUP3 ADD SWAP1 POP DUP2 DUP2 SUB PUSH1 0x0 DUP4 ADD MSTORE PUSH2 0x32C5 DUP2 PUSH2 0x309B JUMP JUMPDEST SWAP1 POP SWAP2 SWAP1 POP JUMP JUMPDEST PUSH1 0x0 PUSH1 0x20 DUP3 ADD SWAP1 POP DUP2 DUP2 SUB PUSH1 0x0 DUP4 ADD MSTORE PUSH2 0x32E5 DUP2 PUSH2 0x30DB JUMP JUMPDEST SWAP1 POP SWAP2 SWAP1 POP JUMP JUMPDEST PUSH1 0x0 PUSH1 0x20 DUP3 ADD SWAP1 POP DUP2 DUP2 SUB PUSH1 0x0 DUP4 ADD MSTORE PUSH2 0x3305 DUP2 PUSH2 0x311B JUMP JUMPDEST SWAP1 POP SWAP2 SWAP1 POP JUMP JUMPDEST PUSH1 0x0 PUSH1 0x20 DUP3 ADD SWAP1 POP DUP2 DUP2 SUB PUSH1 0x0 DUP4 ADD MSTORE PUSH2 0x3325 DUP2 PUSH2 0x3181 JUMP JUMPDEST SWAP1 POP SWAP2 SWAP1 POP JUMP JUMPDEST PUSH1 0x0 PUSH1 0x20 DUP3 ADD SWAP1 POP DUP2 DUP2 SUB PUSH1 0x0 DUP4 ADD MSTORE PUSH2 0x3345 DUP2 PUSH2 0x31E7 JUMP JUMPDEST SWAP1 POP SWAP2 SWAP1 POP JUMP JUMPDEST PUSH1 0x0 PUSH1 0x20 DUP3 ADD SWAP1 POP PUSH2 0x3361 PUSH1 0x0 DUP4 ADD DUP5 PUSH2 0x3227 JUMP JUMPDEST SWAP3 SWAP2 POP POP JUMP JUMPDEST PUSH1 0x0 PUSH1 0x60 DUP3 ADD SWAP1 POP PUSH2 0x337C PUSH1 0x0 DUP4 ADD DUP7 PUSH2 0x3227 JUMP JUMPDEST DUP2 DUP2 SUB PUSH1 0x20 DUP4 ADD MSTORE PUSH2 0x338E DUP2 DUP6 PUSH2 0x2FBC JUMP JUMPDEST SWAP1 POP DUP2 DUP2 SUB PUSH1 0x40 DUP4 ADD MSTORE PUSH2 0x33A2 DUP2 DUP5 PUSH2 0x2FBC JUMP JUMPDEST SWAP1 POP SWAP5 SWAP4 POP POP POP POP JUMP JUMPDEST PUSH1 0x0 PUSH1 0xC0 DUP3 ADD SWAP1 POP PUSH2 0x33C1 PUSH1 0x0 DUP4 ADD DUP10 PUSH2 0x3227 JUMP JUMPDEST DUP2 DUP2 SUB PUSH1 0x20 DUP4 ADD MSTORE PUSH2 0x33D3 DUP2 DUP9 PUSH2 0x2FBC JUMP JUMPDEST SWAP1 POP DUP2 DUP2 SUB PUSH1 0x40 DUP4 ADD MSTORE PUSH2 0x33E7 DUP2 DUP8 PUSH2 0x2FBC JUMP JUMPDEST SWAP1 POP PUSH2 0x33F6 PUSH1 0x60 DUP4 ADD DUP7 PUSH2 0x3227 JUMP JUMPDEST PUSH2 0x3403 PUSH1 0x80 DUP4 ADD DUP6 PUSH2 0x3227 JUMP JUMPDEST PUSH2 0x3410 PUSH1 0xA0 DUP4 ADD DUP5 PUSH2 0x3227 JUMP JUMPDEST SWAP8 SWAP7 POP POP POP POP POP POP POP JUMP JUMPDEST PUSH1 0x0 PUSH1 0x40 MLOAD SWAP1 POP DUP2 DUP2 ADD DUP2 DUP2 LT PUSH8 0xFFFFFFFFFFFFFFFF DUP3 GT OR ISZERO PUSH2 0x3442 JUMPI PUSH2 0x3441 PUSH2 0x372D JUMP JUMPDEST JUMPDEST DUP1 PUSH1 0x40 MSTORE POP SWAP2 SWAP1 POP JUMP JUMPDEST PUSH1 0x0 PUSH8 0xFFFFFFFFFFFFFFFF DUP3 GT ISZERO PUSH2 0x3467 JUMPI PUSH2 0x3466 PUSH2 0x372D JUMP JUMPDEST JUMPDEST PUSH1 0x20 DUP3 MUL SWAP1 POP PUSH1 0x20 DUP2 ADD SWAP1 POP SWAP2 SWAP1 POP JUMP JUMPDEST PUSH1 0x0 PUSH8 0xFFFFFFFFFFFFFFFF DUP3 GT ISZERO PUSH2 0x3493 JUMPI PUSH2 0x3492 PUSH2 0x372D JUMP JUMPDEST JUMPDEST PUSH1 0x20 DUP3 MUL SWAP1 POP PUSH1 0x20 DUP2 ADD SWAP1 POP SWAP2 SWAP1 POP JUMP JUMPDEST PUSH1 0x0 PUSH8 0xFFFFFFFFFFFFFFFF DUP3 GT ISZERO PUSH2 0x34BF JUMPI PUSH2 0x34BE PUSH2 0x372D JUMP JUMPDEST JUMPDEST PUSH1 0x1F NOT PUSH1 0x1F DUP4 ADD AND SWAP1 POP PUSH1 0x20 DUP2 ADD SWAP1 POP SWAP2 SWAP1 POP JUMP JUMPDEST PUSH1 0x0 DUP2 MLOAD SWAP1 POP SWAP2 SWAP1 POP JUMP JUMPDEST PUSH1 0x0 DUP3 DUP3 MSTORE PUSH1 0x20 DUP3 ADD SWAP1 POP SWAP3 SWAP2 POP POP JUMP JUMPDEST PUSH1 0x0 PUSH2 0x34FB DUP3 PUSH2 0x35DE JUMP JUMPDEST SWAP2 POP PUSH2 0x3506 DUP4 PUSH2 0x35DE JUMP JUMPDEST SWAP3 POP DUP3 PUSH32 0xFFFFFFFFFFFFFFFFFFFFFFFFFFFFFFFFFFFFFFFFFFFFFFFFFFFFFFFFFFFFFFFF SUB DUP3 GT ISZERO PUSH2 0x353B JUMPI PUSH2 0x353A PUSH2 0x36CF JUMP JUMPDEST JUMPDEST DUP3 DUP3 ADD SWAP1 POP SWAP3 SWAP2 POP POP JUMP JUMPDEST PUSH1 0x0 PUSH2 0x3551 DUP3 PUSH2 0x35DE JUMP JUMPDEST SWAP2 POP PUSH2 0x355C DUP4 PUSH2 0x35DE JUMP JUMPDEST SWAP3 POP DUP2 PUSH32 0xFFFFFFFFFFFFFFFFFFFFFFFFFFFFFFFFFFFFFFFFFFFFFFFFFFFFFFFFFFFFFFFF DIV DUP4 GT DUP3 ISZERO ISZERO AND ISZERO PUSH2 0x3595 JUMPI PUSH2 0x3594 PUSH2 0x36CF JUMP JUMPDEST JUMPDEST DUP3 DUP3 MUL SWAP1 POP SWAP3 SWAP2 POP POP JUMP JUMPDEST PUSH1 0x0 PUSH2 0x35AB DUP3 PUSH2 0x35BE JUMP JUMPDEST SWAP1 POP SWAP2 SWAP1 POP JUMP JUMPDEST PUSH1 0x0 DUP2 ISZERO ISZERO SWAP1 POP SWAP2 SWAP1 POP JUMP JUMPDEST PUSH1 0x0 PUSH20 0xFFFFFFFFFFFFFFFFFFFFFFFFFFFFFFFFFFFFFFFF DUP3 AND SWAP1 POP SWAP2 SWAP1 POP JUMP JUMPDEST PUSH1 0x0 DUP2 SWAP1 POP SWAP2 SWAP1 POP JUMP JUMPDEST DUP3 DUP2 DUP4 CALLDATACOPY PUSH1 0x0 DUP4 DUP4 ADD MSTORE POP POP POP JUMP JUMPDEST PUSH1 0x0 JUMPDEST DUP4 DUP2 LT ISZERO PUSH2 0x3615 JUMPI DUP1 DUP3 ADD MLOAD DUP2 DUP5 ADD MSTORE PUSH1 0x20 DUP2 ADD SWAP1 POP PUSH2 0x35FA JUMP JUMPDEST DUP4 DUP2 GT ISZERO PUSH2 0x3624 JUMPI PUSH1 0x0 DUP5 DUP5 ADD MSTORE JUMPDEST POP POP POP POP JUMP JUMPDEST PUSH1 0x0 PUSH2 0x3635 DUP3 PUSH2 0x35DE JUMP JUMPDEST SWAP2 POP PUSH1 0x0 DUP3 EQ ISZERO PUSH2 0x3649 JUMPI PUSH2 0x3648 PUSH2 0x36CF JUMP JUMPDEST JUMPDEST PUSH1 0x1 DUP3 SUB SWAP1 POP SWAP2 SWAP1 POP JUMP JUMPDEST PUSH1 0x0 PUSH1 0x2 DUP3 DIV SWAP1 POP PUSH1 0x1 DUP3 AND DUP1 PUSH2 0x366C JUMPI PUSH1 0x7F DUP3 AND SWAP2 POP JUMPDEST PUSH1 0x20 DUP3 LT DUP2 EQ ISZERO PUSH2 0x3680 JUMPI PUSH2 0x367F PUSH2 0x36FE JUMP JUMPDEST JUMPDEST POP SWAP2 SWAP1 POP JUMP JUMPDEST PUSH1 0x0 PUSH2 0x3691 DUP3 PUSH2 0x35DE JUMP JUMPDEST SWAP2 POP PUSH32 0xFFFFFFFFFFFFFFFFFFFFFFFFFFFFFFFFFFFFFFFFFFFFFFFFFFFFFFFFFFFFFFFF DUP3 EQ ISZERO PUSH2 0x36C4 JUMPI PUSH2 0x36C3 PUSH2 0x36CF JUMP JUMPDEST JUMPDEST PUSH1 0x1 DUP3 ADD SWAP1 POP SWAP2 SWAP1 POP JUMP JUMPDEST PUSH32 0x4E487B7100000000000000000000000000000000000000000000000000000000 PUSH1 0x0 MSTORE PUSH1 0x11 PUSH1 0x4 MSTORE PUSH1 0x24 PUSH1 0x0 REVERT JUMPDEST PUSH32 0x4E487B7100000000000000000000000000000000000000000000000000000000 PUSH1 0x0 MSTORE PUSH1 0x22 PUSH1 0x4 MSTORE PUSH1 0x24 PUSH1 0x0 REVERT JUMPDEST PUSH32 0x4E487B7100000000000000000000000000000000000000000000000000000000 PUSH1 0x0 MSTORE PUSH1 0x41 PUSH1 0x4 MSTORE PUSH1 0x24 PUSH1 0x0 REVERT JUMPDEST PUSH1 0x0 PUSH1 0x1F NOT PUSH1 0x1F DUP4 ADD AND SWAP1 POP SWAP2 SWAP1 POP JUMP JUMPDEST PUSH2 0x3776 DUP2 PUSH2 0x35A0 JUMP JUMPDEST DUP2 EQ PUSH2 0x3781 JUMPI PUSH1 0x0 DUP1 REVERT JUMPDEST POP JUMP JUMPDEST PUSH2 0x378D DUP2 PUSH2 0x35DE JUMP JUMPDEST DUP2 EQ PUSH2 0x3798 JUMPI PUSH1 0x0 DUP1 REVERT JUMPDEST POP JUMP INVALID LOG2 PUSH5 0x6970667358 0x22 SLT KECCAK256 PUSH18 0xD8FB7E1073B4B9642E027C7CAA12F5B775A8 DUP4 PUSH15 0x7015E75EB64152AF725DDF64736F6C PUSH4 0x43000800 STOP CALLER "
        },
        "methodIdentifiers": {
          "_getOwner(uint256)": "64d4eeab",
          "approve(address,uint256)": "095ea7b3",
          "balanceOf(address)": "70a08231",
          "changeSlotInfo(uint256,string,string)": "3b90a698",
          "createSlot(string[],string[],uint256[])": "6551d381",
          "isOwner()": "8f32d59b",
          "owner()": "8da5cb5b",
          "ownerOf(uint256)": "6352211e",
          "renounceOwnership()": "715018a6",
          "setHibernationTimePeriod(uint256)": "f6fc7e05",
          "setInitialFreezeTimeStamp(uint256)": "8c73bd6b",
          "setSaleTimePeriod(uint256)": "070c46c5",
          "slotToOwner(uint256)": "0c10e499",
          "transferFrom(address,address,uint256)": "23b872dd",
          "transferOwnership(address)": "f2fde38b",
          "withdraw()": "3ccfd60b"
        }
      }
    }
  }
}